{"contracts/SupplyChain.sol":{"SupplyChain":{"abi":[{"inputs":[],"stateMutability":"nonpayable","type":"constructor"},{"anonymous":false,"inputs":[{"indexed":false,"internalType":"uint256","name":"medicineID","type":"uint256"},{"indexed":false,"internalType":"string","name":"alertMessage","type":"string"}],"name":"ExpiryAlert","type":"event"},{"anonymous":false,"inputs":[{"indexed":false,"internalType":"uint256","name":"id","type":"uint256"},{"indexed":false,"internalType":"string","name":"name","type":"string"},{"indexed":false,"internalType":"string","name":"location","type":"string"},{"indexed":false,"internalType":"address","name":"addr","type":"address"}],"name":"HospitalAdded","type":"event"},{"anonymous":false,"inputs":[{"indexed":true,"internalType":"uint256","name":"medicineID","type":"uint256"}],"name":"MedicineDestroyed","type":"event"},{"anonymous":false,"inputs":[{"indexed":false,"internalType":"uint256","name":"hospitalID","type":"uint256"},{"indexed":false,"internalType":"uint256","name":"medicineID","type":"uint256"},{"indexed":false,"internalType":"uint256","name":"quantity","type":"uint256"},{"indexed":false,"internalType":"bool","name":"urgent","type":"bool"}],"name":"MedicineRequested","type":"event"},{"anonymous":false,"inputs":[{"indexed":false,"internalType":"uint256","name":"hospitalID","type":"uint256"},{"indexed":false,"internalType":"uint256","name":"medicineID","type":"uint256"},{"indexed":false,"internalType":"uint256","name":"quantity","type":"uint256"}],"name":"MedicineTransferred","type":"event"},{"anonymous":false,"inputs":[{"indexed":true,"internalType":"uint256","name":"medicineID","type":"uint256"},{"indexed":true,"internalType":"address","name":"initiator","type":"address"}],"name":"ReturnInitiated","type":"event"},{"anonymous":false,"inputs":[{"indexed":false,"internalType":"uint256","name":"medicineID","type":"uint256"},{"indexed":false,"internalType":"string","name":"alertType","type":"string"}],"name":"StockAlert","type":"event"},{"inputs":[{"internalType":"uint256","name":"","type":"uint256"}],"name":"DIS","outputs":[{"internalType":"address","name":"addr","type":"address"},{"internalType":"uint256","name":"id","type":"uint256"},{"internalType":"string","name":"name","type":"string"},{"internalType":"string","name":"place","type":"string"}],"stateMutability":"view","type":"function"},{"inputs":[{"internalType":"uint256","name":"_medicineID","type":"uint256"}],"name":"Distribute","outputs":[],"stateMutability":"nonpayable","type":"function"},{"inputs":[{"internalType":"uint256","name":"","type":"uint256"}],"name":"MAN","outputs":[{"internalType":"address","name":"addr","type":"address"},{"internalType":"uint256","name":"id","type":"uint256"},{"internalType":"string","name":"name","type":"string"},{"internalType":"string","name":"place","type":"string"}],"stateMutability":"view","type":"function"},{"inputs":[{"internalType":"uint256","name":"_medicineID","type":"uint256"}],"name":"Manufacturing","outputs":[],"stateMutability":"nonpayable","type":"function"},{"inputs":[{"internalType":"uint256","name":"","type":"uint256"}],"name":"MedicineStock","outputs":[{"internalType":"uint256","name":"id","type":"uint256"},{"internalType":"string","name":"name","type":"string"},{"internalType":"string","name":"description","type":"string"},{"internalType":"uint256","name":"quantity","type":"uint256"},{"internalType":"uint256","name":"expiryDate","type":"uint256"},{"internalType":"string","name":"batchNumber","type":"string"},{"internalType":"uint256","name":"priceINR","type":"uint256"},{"internalType":"uint256","name":"RMSid","type":"uint256"},{"internalType":"uint256","name":"MANid","type":"uint256"},{"internalType":"uint256","name":"DISid","type":"uint256"},{"internalType":"uint256","name":"RETid","type":"uint256"},{"internalType":"enum SupplyChain.STAGE","name":"stage","type":"uint8"}],"stateMutability":"view","type":"function"},{"inputs":[],"name":"Owner","outputs":[{"internalType":"address","name":"","type":"address"}],"stateMutability":"view","type":"function"},{"inputs":[{"internalType":"uint256","name":"","type":"uint256"}],"name":"RET","outputs":[{"internalType":"address","name":"addr","type":"address"},{"internalType":"uint256","name":"id","type":"uint256"},{"internalType":"string","name":"name","type":"string"},{"internalType":"string","name":"place","type":"string"}],"stateMutability":"view","type":"function"},{"inputs":[{"internalType":"uint256","name":"","type":"uint256"}],"name":"RMS","outputs":[{"internalType":"address","name":"addr","type":"address"},{"internalType":"uint256","name":"id","type":"uint256"},{"internalType":"string","name":"name","type":"string"},{"internalType":"string","name":"place","type":"string"}],"stateMutability":"view","type":"function"},{"inputs":[{"internalType":"uint256","name":"_medicineID","type":"uint256"}],"name":"RMSsupply","outputs":[],"stateMutability":"nonpayable","type":"function"},{"inputs":[{"internalType":"uint256","name":"_medicineID","type":"uint256"}],"name":"Retail","outputs":[],"stateMutability":"nonpayable","type":"function"},{"inputs":[{"internalType":"address","name":"_address","type":"address"},{"internalType":"string","name":"_name","type":"string"},{"internalType":"string","name":"_place","type":"string"}],"name":"addDistributor","outputs":[],"stateMutability":"nonpayable","type":"function"},{"inputs":[{"internalType":"address","name":"_distributor","type":"address"}],"name":"addDistributor","outputs":[],"stateMutability":"nonpayable","type":"function"},{"inputs":[{"internalType":"string","name":"_name","type":"string"},{"internalType":"string","name":"_location","type":"string"},{"internalType":"address","name":"_addr","type":"address"}],"name":"addHospital","outputs":[],"stateMutability":"nonpayable","type":"function"},{"inputs":[{"internalType":"address","name":"_address","type":"address"},{"internalType":"string","name":"_name","type":"string"},{"internalType":"string","name":"_place","type":"string"}],"name":"addManufacturer","outputs":[],"stateMutability":"nonpayable","type":"function"},{"inputs":[{"internalType":"string","name":"_name","type":"string"},{"internalType":"string","name":"_description","type":"string"},{"internalType":"uint256","name":"_quantity","type":"uint256"},{"internalType":"uint256","name":"_expiryDate","type":"uint256"},{"internalType":"string","name":"_batchNumber","type":"string"},{"internalType":"uint256","name":"_priceINR","type":"uint256"}],"name":"addMedicine","outputs":[],"stateMutability":"nonpayable","type":"function"},{"inputs":[{"internalType":"address","name":"_address","type":"address"},{"internalType":"string","name":"_name","type":"string"},{"internalType":"string","name":"_place","type":"string"}],"name":"addRMS","outputs":[],"stateMutability":"nonpayable","type":"function"},{"inputs":[{"internalType":"address","name":"_address","type":"address"},{"internalType":"string","name":"_name","type":"string"},{"internalType":"string","name":"_place","type":"string"}],"name":"addRetailer","outputs":[],"stateMutability":"nonpayable","type":"function"},{"inputs":[{"internalType":"uint256","name":"_medicineID","type":"uint256"}],"name":"checkExpiry","outputs":[{"internalType":"bool","name":"isExpiringSoon","type":"bool"}],"stateMutability":"view","type":"function"},{"inputs":[{"internalType":"uint256","name":"_medicineID","type":"uint256"}],"name":"confirmDestruction","outputs":[],"stateMutability":"nonpayable","type":"function"},{"inputs":[],"name":"disCtr","outputs":[{"internalType":"uint256","name":"","type":"uint256"}],"stateMutability":"view","type":"function"},{"inputs":[{"internalType":"address","name":"","type":"address"}],"name":"distributors","outputs":[{"internalType":"bool","name":"","type":"bool"}],"stateMutability":"view","type":"function"},{"inputs":[],"name":"getDashboardData","outputs":[{"internalType":"uint256","name":"totalMedicines","type":"uint256"},{"internalType":"uint256","name":"understocked","type":"uint256"},{"internalType":"uint256","name":"overstocked","type":"uint256"},{"internalType":"uint256","name":"expiringSoon","type":"uint256"},{"internalType":"uint256","name":"totalHospitals","type":"uint256"},{"internalType":"uint256","name":"totalRequests","type":"uint256"},{"internalType":"uint256","name":"fulfilledRequests","type":"uint256"}],"stateMutability":"view","type":"function"},{"inputs":[{"internalType":"uint256","name":"_medicineID","type":"uint256"}],"name":"getMedicineBatchNumber","outputs":[{"internalType":"string","name":"","type":"string"}],"stateMutability":"view","type":"function"},{"inputs":[{"internalType":"uint256","name":"_medicineID","type":"uint256"}],"name":"getMedicinePrice","outputs":[{"internalType":"uint256","name":"","type":"uint256"}],"stateMutability":"view","type":"function"},{"inputs":[{"internalType":"uint256","name":"_hospitalID","type":"uint256"}],"name":"getMedicineRequests","outputs":[{"components":[{"internalType":"uint256","name":"hospitalID","type":"uint256"},{"internalType":"uint256","name":"medicineID","type":"uint256"},{"internalType":"uint256","name":"quantity","type":"uint256"},{"internalType":"bool","name":"urgent","type":"bool"},{"internalType":"bool","name":"fulfilled","type":"bool"}],"internalType":"struct SupplyChain.MedicineRequest[]","name":"","type":"tuple[]"}],"stateMutability":"view","type":"function"},{"inputs":[],"name":"getPendingRequests","outputs":[{"internalType":"uint256[]","name":"hospitalIDs","type":"uint256[]"},{"internalType":"uint256[]","name":"medicineIDs","type":"uint256[]"},{"internalType":"uint256[]","name":"quantities","type":"uint256[]"},{"internalType":"bool[]","name":"urgentFlags","type":"bool[]"}],"stateMutability":"view","type":"function"},{"inputs":[],"name":"hospitalCtr","outputs":[{"internalType":"uint256","name":"","type":"uint256"}],"stateMutability":"view","type":"function"},{"inputs":[{"internalType":"uint256","name":"","type":"uint256"}],"name":"hospitals","outputs":[{"internalType":"uint256","name":"id","type":"uint256"},{"internalType":"string","name":"name","type":"string"},{"internalType":"string","name":"location","type":"string"},{"internalType":"address","name":"addr","type":"address"}],"stateMutability":"view","type":"function"},{"inputs":[{"internalType":"uint256","name":"_medicineID","type":"uint256"}],"name":"initiateReturn","outputs":[],"stateMutability":"nonpayable","type":"function"},{"inputs":[],"name":"manCtr","outputs":[{"internalType":"uint256","name":"","type":"uint256"}],"stateMutability":"view","type":"function"},{"inputs":[],"name":"medicineCtr","outputs":[{"internalType":"uint256","name":"","type":"uint256"}],"stateMutability":"view","type":"function"},{"inputs":[{"internalType":"uint256","name":"","type":"uint256"},{"internalType":"uint256","name":"","type":"uint256"}],"name":"medicineRequests","outputs":[{"internalType":"uint256","name":"hospitalID","type":"uint256"},{"internalType":"uint256","name":"medicineID","type":"uint256"},{"internalType":"uint256","name":"quantity","type":"uint256"},{"internalType":"bool","name":"urgent","type":"bool"},{"internalType":"bool","name":"fulfilled","type":"bool"}],"stateMutability":"view","type":"function"},{"inputs":[],"name":"overstockThreshold","outputs":[{"internalType":"uint256","name":"","type":"uint256"}],"stateMutability":"view","type":"function"},{"inputs":[{"internalType":"address","name":"_distributor","type":"address"}],"name":"removeDistributor","outputs":[],"stateMutability":"nonpayable","type":"function"},{"inputs":[{"internalType":"uint256","name":"_hospitalID","type":"uint256"},{"internalType":"uint256","name":"_medicineID","type":"uint256"},{"internalType":"uint256","name":"_quantity","type":"uint256"},{"internalType":"bool","name":"_urgent","type":"bool"}],"name":"requestMedicine","outputs":[],"stateMutability":"nonpayable","type":"function"},{"inputs":[],"name":"retCtr","outputs":[{"internalType":"uint256","name":"","type":"uint256"}],"stateMutability":"view","type":"function"},{"inputs":[],"name":"rmsCtr","outputs":[{"internalType":"uint256","name":"","type":"uint256"}],"stateMutability":"view","type":"function"},{"inputs":[{"internalType":"uint256","name":"_medicineID","type":"uint256"}],"name":"showStage","outputs":[{"internalType":"string","name":"","type":"string"}],"stateMutability":"view","type":"function"},{"inputs":[{"internalType":"uint256","name":"_medicineID","type":"uint256"}],"name":"sold","outputs":[],"stateMutability":"nonpayable","type":"function"},{"inputs":[{"internalType":"uint256","name":"_medicineID","type":"uint256"}],"name":"timeSpentInStages","outputs":[{"internalType":"uint256[]","name":"times","type":"uint256[]"}],"stateMutability":"view","type":"function"},{"inputs":[{"internalType":"uint256","name":"_hospitalID","type":"uint256"},{"internalType":"uint256","name":"_medicineID","type":"uint256"},{"internalType":"uint256","name":"_quantity","type":"uint256"}],"name":"transferMedicine","outputs":[],"stateMutability":"nonpayable","type":"function"},{"inputs":[],"name":"understockThreshold","outputs":[{"internalType":"uint256","name":"","type":"uint256"}],"stateMutability":"view","type":"function"},{"inputs":[{"internalType":"uint256","name":"_medicineID","type":"uint256"},{"internalType":"uint256","name":"_newQuantity","type":"uint256"}],"name":"updateMedicineQuantity","outputs":[],"stateMutability":"nonpayable","type":"function"}],"evm":{"bytecode":{"linkReferences":{},"object":"6080604052600060015560006002556000600355600060045560006005556000600655600a600f556103e8601055348015603857600080fd5b50600080546001600160a01b031916331790556135c58061005a6000396000f3fe608060405234801561001057600080fd5b50600436106102695760003560e01c806381dc6fd211610151578063cc642784116100c3578063e101a2e011610087578063e101a2e0146105d6578063e4357cd7146105e9578063eb1a06b5146105fc578063eef5cb4014610627578063f3c40a361461063a578063f507bbc01461064357600080fd5b8063cc6427841461052a578063d0f8fd4f1461055d578063d95f4b671461057d578063d9708d4814610590578063dd286398146105cd57600080fd5b80639f4ca9fe116101155780639f4ca9fe146104aa578063a48d335a146104bd578063a95f29d9146104d0578063b4a99a4e146104d9578063c877b34414610504578063cc4030691461051757600080fd5b806381dc6fd21461042e578063857ddb041461045157806386c1827514610464578063874ae092146104775780639c03facb1461049757600080fd5b80633d753a1c116101ea57806359bf286f116101ae57806359bf286f146103c15780635e9db90c146103d45780636a992c9f146103e75780637250e224146103fa5780637e43d94d1461040d57806380a1f7121461041657600080fd5b80633d753a1c1461036c578063438e9c4d1461037f5780634def474a1461038857806351d9ab381461039b57806357c1f9e2146103ae57600080fd5b80632a4af440116102315780632a4af440146103115780632b0187ac146103245780632b70b08d146103475780632bdb2e6b1461035a57806330f901d71461036357600080fd5b80630221e2cf1461026e57806302565813146102835780630280b6c1146102c75780631291b2ef146102de578063154c04d2146102f1575b600080fd5b61028161027c366004612d26565b610656565b005b610296610291366004612d52565b6109d2565b60408051958652602086019490945292840191909152151560608301521515608082015260a0015b60405180910390f35b6102d060065481565b6040519081526020016102be565b6102816102ec366004612d74565b610a24565b6103046102ff366004612d74565b610b45565b6040516102be9190612dd3565b61028161031f366004612eac565b610c16565b610337610332366004612d74565b610cd8565b6040516102be9493929190612f23565b610281610355366004612eac565b610e1b565b6102d060045481565b6102d060105481565b61028161037a366004612d74565b610ec9565b6102d060035481565b610281610396366004612d74565b610fde565b6102816103a9366004612f67565b6110da565b6102816103bc366004612fde565b6111ee565b6103376103cf366004612d74565b611239565b6102816103e2366004612d52565b61126b565b6102816103f5366004612eac565b6112e4565b610281610408366004612fde565b611391565b6102d060055481565b61041e6113df565b6040516102be9493929190613035565b61044161043c366004612d74565b611725565b6040516102be94939291906130b7565b61028161045f366004612eac565b611867565b610281610472366004612d74565b611914565b61048a610485366004612d74565b611a07565b6040516102be91906130fc565b6102816104a5366004612d74565b611b61565b6102816104b8366004612d74565b611cc2565b6102816104cb366004612d74565b611d92565b6102d060015481565b6000546104ec906001600160a01b031681565b6040516001600160a01b0390911681526020016102be565b61028161051236600461310f565b611e8f565b610337610525366004612d74565b611fed565b61054d610538366004612fde565b600e6020526000908152604090205460ff1681565b60405190151581526020016102be565b61057061056b366004612d74565b61201f565b6040516102be9190613155565b6102d061058b366004612d74565b6120c8565b61059861210d565b604080519788526020880196909652948601939093526060850191909152608084015260a083015260c082015260e0016102be565b6102d060025481565b6103046105e4366004612d74565b61223d565b61054d6105f7366004612d74565b612467565b61060f61060a366004612d74565b6124d9565b6040516102be9c9b9a999897969594939291906131e2565b610337610635366004612d74565b6126d0565b6102d0600f5481565b610281610651366004613289565b612702565b6000546001600160a01b031633148061067e5750336000908152600e602052604090205460ff165b6106e85760405162461bcd60e51b815260206004820152603060248201527f4f6e6c79206f776e6572206f72206469737472696275746f722063616e20636160448201526f3636103a3434b990333ab731ba34b7b760811b60648201526084015b60405180910390fd5b6000831180156106fa57506006548311155b61073c5760405162461bcd60e51b8152602060048201526013602482015272125b9d985b1a59081a1bdcdc1a5d185b081251606a1b60448201526064016106df565b60008211801561074e57506001548211155b61076a5760405162461bcd60e51b81526004016106df90613338565b600082815260076020526040902060038101548211156107cc5760405162461bcd60e51b815260206004820152601e60248201527f496e73756666696369656e74206d65646963696e65207175616e74697479000060448201526064016106df565b6000848152600d6020526040812090805b825481101561096e57858382815481106107f9576107f9613365565b906000526020600020906004020160010154148015610846575082818154811061082557610825613365565b906000526020600020906004020160030160019054906101000a900460ff16155b15610966578483828154811061085e5761085e613365565b906000526020600020906004020160020154146108bd5760405162461bcd60e51b815260206004820152601e60248201527f5175616e74697479206d69736d6174636820776974682072657175657374000060448201526064016106df565b60018382815481106108d1576108d1613365565b906000526020600020906004020160030160016101000a81548160ff02191690831515021790555060019150848460030160008282546109119190613391565b9091555061092090508661295b565b60408051888152602081018890529081018690527fb16b8ad0728126d2a855fb7ee03b1c607c4fbb68d5466b6416855a45dcb3a6229060600160405180910390a161096e565b6001016107dd565b50806109ca5760405162461bcd60e51b815260206004820152602560248201527f4e6f206d61746368696e6720756e66756c66696c6c6564207265717565737420604482015264199bdd5b9960da1b60648201526084016106df565b505050505050565b600d60205281600052604060002081815481106109ee57600080fd5b60009182526020909120600490910201805460018201546002830154600390930154919450925060ff8082169161010090041685565b6000546001600160a01b03163314610a4e5760405162461bcd60e51b81526004016106df906133aa565b600081118015610a6057506001548111155b610a7c5760405162461bcd60e51b81526004016106df90613338565b610a8581612467565b610ad15760405162461bcd60e51b815260206004820152601760248201527f4d65646963696e65206973206e6f74206578706972656400000000000000000060448201526064016106df565b6000818152600760205260409020600b8101805460ff19166006908117909155600c820180544292908110610b0857610b08613365565b6000918252602082200191909155604051339184917fd09b09f037beb4a869d9aab82980a8b8672115f3ad9f657acb0ba1d955a1f4ba9190a35050565b6060600082118015610b5957506001548211155b610b755760405162461bcd60e51b81526004016106df90613338565b60008281526007602052604090206005018054610b91906133eb565b80601f0160208091040260200160405190810160405280929190818152602001828054610bbd906133eb565b8015610c0a5780601f10610bdf57610100808354040283529160200191610c0a565b820191906000526020600020905b815481529060010190602001808311610bed57829003601f168201915b50505050509050919050565b6000546001600160a01b03163314610c405760405162461bcd60e51b81526004016106df906133aa565b60048054906000610c508361341f565b9091555050604080516080810182526001600160a01b0385811682526004546020808401828152848601888152606086018890526000938452600a90925294909120835181546001600160a01b03191693169290921782559251600182015591519091906002820190610cc39082613487565b50606082015160038201906109ca9082613487565b600a602052600090815260409020805460018201546002830180546001600160a01b03909316939192610d0a906133eb565b80601f0160208091040260200160405190810160405280929190818152602001828054610d36906133eb565b8015610d835780601f10610d5857610100808354040283529160200191610d83565b820191906000526020600020905b815481529060010190602001808311610d6657829003601f168201915b505050505090806003018054610d98906133eb565b80601f0160208091040260200160405190810160405280929190818152602001828054610dc4906133eb565b8015610e115780601f10610de657610100808354040283529160200191610e11565b820191906000526020600020905b815481529060010190602001808311610df457829003601f168201915b5050505050905084565b6000546001600160a01b03163314610e455760405162461bcd60e51b81526004016106df906133aa565b60028054906000610e558361341f565b9091555050604080516080810182526001600160a01b038581168252600280546020808501828152858701898152606087018990526000938452600890925295909120845181546001600160a01b03191694169390931783559351600183015592519192909190820190610cc39082613487565b600081118015610edb57506001548111155b610ef75760405162461bcd60e51b81526004016106df90613338565b6000610f0233612a32565b905060008111610f495760405162461bcd60e51b815260206004820152601260248201527114995d185a5b195c881b9bdd08199bdd5b9960721b60448201526064016106df565b60036000838152600760208190526040909120600b015460ff1690811115610f7357610f736131cc565b14610f905760405162461bcd60e51b81526004016106df90613545565b6000828152600760205260409020600a8101829055600b8101805460ff191660049081179091554291600c01905b81548110610fce57610fce613365565b6000918252602090912001555050565b600081118015610ff057506001548111155b61100c5760405162461bcd60e51b81526004016106df90613338565b600061101733612ad5565b9050600081116110615760405162461bcd60e51b8152602060048201526015602482015274111a5cdd1c9a589d5d1bdc881b9bdd08199bdd5b99605a1b60448201526064016106df565b60026000838152600760208190526040909120600b015460ff169081111561108b5761108b6131cc565b146110a85760405162461bcd60e51b81526004016106df90613545565b600082815260076020526040902060098101829055600b8101805460ff191660039081179091554291600c0190610fbe565b6000546001600160a01b031633146111045760405162461bcd60e51b81526004016106df906133aa565b600680549060006111148361341f565b90915550506040805160808101825260065480825260208083018781528385018790526001600160a01b03861660608501526000928352600c909152929020815181559151909190600182019061116b9082613487565b50604082015160028201906111809082613487565b5060609190910151600390910180546001600160a01b0319166001600160a01b039092169190911790556006546040517fec62a7e33aac8af593991e2e40bb00093c5ccf25306306b757522493cf35d657916111e1918690869086906130b7565b60405180910390a1505050565b6000546001600160a01b031633146112185760405162461bcd60e51b81526004016106df906133aa565b6001600160a01b03166000908152600e60205260409020805460ff19169055565b600b602052600090815260409020805460018201546002830180546001600160a01b03909316939192610d0a906133eb565b6000546001600160a01b031633146112955760405162461bcd60e51b81526004016106df906133aa565b6000821180156112a757506001548211155b6112c35760405162461bcd60e51b81526004016106df90613338565b60008281526007602052604090206003018190556112e08261295b565b5050565b6000546001600160a01b0316331461130e5760405162461bcd60e51b81526004016106df906133aa565b6003805490600061131e8361341f565b9091555050604080516080810182526001600160a01b0385811682526003546020808401828152848601888152606086018890526000938452600990925294909120835181546001600160a01b03191693169290921782559251600182015591519091906002820190610cc39082613487565b6000546001600160a01b031633146113bb5760405162461bcd60e51b81526004016106df906133aa565b6001600160a01b03166000908152600e60205260409020805460ff19166001179055565b6060808080600060015b600654811161146b576000818152600d60205260408120905b81548110156114565781818154811061141d5761141d613365565b906000526020600020906004020160030160019054906101000a900460ff1661144e578361144a8161341f565b9450505b600101611402565b505080806114639061341f565b9150506113e9565b50806001600160401b0381111561148457611484612e09565b6040519080825280602002602001820160405280156114ad578160200160208202803683370190505b509450806001600160401b038111156114c8576114c8612e09565b6040519080825280602002602001820160405280156114f1578160200160208202803683370190505b509350806001600160401b0381111561150c5761150c612e09565b604051908082528060200260200182016040528015611535578160200160208202803683370190505b509250806001600160401b0381111561155057611550612e09565b604051908082528060200260200182016040528015611579578160200160208202803683370190505b509150600060015b600654811161171c576000818152600d60205260408120905b8154811015611707578181815481106115b5576115b5613365565b906000526020600020906004020160030160019054906101000a900460ff166116ff578181815481106115ea576115ea613365565b90600052602060002090600402016000015489858151811061160e5761160e613365565b60200260200101818152505081818154811061162c5761162c613365565b90600052602060002090600402016001015488858151811061165057611650613365565b60200260200101818152505081818154811061166e5761166e613365565b90600052602060002090600402016002015487858151811061169257611692613365565b6020026020010181815250508181815481106116b0576116b0613365565b906000526020600020906004020160030160009054906101000a900460ff168685815181106116e1576116e1613365565b91151560209283029190910190910152836116fb8161341f565b9450505b60010161159a565b505080806117149061341f565b915050611581565b50505090919293565b600c6020526000908152604090208054600182018054919291611747906133eb565b80601f0160208091040260200160405190810160405280929190818152602001828054611773906133eb565b80156117c05780601f10611795576101008083540402835291602001916117c0565b820191906000526020600020905b8154815290600101906020018083116117a357829003601f168201915b5050505050908060020180546117d5906133eb565b80601f0160208091040260200160405190810160405280929190818152602001828054611801906133eb565b801561184e5780601f106118235761010080835404028352916020019161184e565b820191906000526020600020905b81548152906001019060200180831161183157829003601f168201915b505050600390930154919250506001600160a01b031684565b6000546001600160a01b031633146118915760405162461bcd60e51b81526004016106df906133aa565b600580549060006118a18361341f565b9091555050604080516080810182526001600160a01b0385811682526005546020808401828152848601888152606086018890526000938452600b90925294909120835181546001600160a01b03191693169290921782559251600182015591519091906002820190610cc39082613487565b60008111801561192657506001548111155b6119425760405162461bcd60e51b81526004016106df90613338565b600061194d33612b7f565b90506000811161198f5760405162461bcd60e51b815260206004820152600d60248201526c149354c81b9bdd08199bdd5b99609a1b60448201526064016106df565b60008281526007602081905260408220600b015460ff16908111156119b6576119b66131cc565b146119d35760405162461bcd60e51b81526004016106df90613545565b6000828152600760208190526040909120908101829055600b8101805460ff191660019081179091554291600c0190610fbe565b6060600082118015611a1b57506001548211155b611a375760405162461bcd60e51b81526004016106df90613338565b600082815260076020526040908190208151600880825261012082019093529091908181602001602082028036833701905050925060015b81811015611b5957600083600c018281548110611a8e57611a8e613365565b9060005260206000200154118015611acf57506000600c8401611ab2600184613391565b81548110611ac257611ac2613365565b9060005260206000200154115b15611b5157600c8301611ae3600183613391565b81548110611af357611af3613365565b906000526020600020015483600c018281548110611b1357611b13613365565b9060005260206000200154611b289190613391565b84611b34600184613391565b81518110611b4457611b44613365565b6020026020010181815250505b600101611a6f565b505050919050565b600081118015611b7357506001548111155b611b8f5760405162461bcd60e51b81526004016106df90613338565b6000611b9a33612a32565b905060008111611be15760405162461bcd60e51b815260206004820152601260248201527114995d185a5b195c881b9bdd08199bdd5b9960721b60448201526064016106df565b6000828152600760205260409020600a01548114611c505760405162461bcd60e51b815260206004820152602660248201527f4f6e6c7920636f72726563742072657461696c65722063616e206d61726b20616044820152651cc81cdbdb1960d21b60648201526084016106df565b60046000838152600760208190526040909120600b015460ff1690811115611c7a57611c7a6131cc565b14611c975760405162461bcd60e51b81526004016106df90613545565b6000828152600760205260409020600b8101805460ff191660059081179091554291600c0190610fbe565b6000546001600160a01b03163314611cec5760405162461bcd60e51b81526004016106df906133aa565b600081118015611cfe57506001548111155b611d1a5760405162461bcd60e51b81526004016106df90613338565b6000818152600760208190526040909120600b8101805460ff191683179055600c81018054919242928110611d5157611d51613365565b60009182526020822001919091556003820181905560405183917f70292049d8ede2b2bf911dea7441f0f33d0ed181d463899ac8ed3eda71d6160491a25050565b600081118015611da457506001548111155b611dc05760405162461bcd60e51b81526004016106df90613338565b6000611dcb33612c1c565b905060008111611e165760405162461bcd60e51b815260206004820152601660248201527513585b9d599858dd1d5c995c881b9bdd08199bdd5b9960521b60448201526064016106df565b60016000838152600760208190526040909120600b015460ff1690811115611e4057611e406131cc565b14611e5d5760405162461bcd60e51b81526004016106df90613545565b600082815260076020526040902060088101829055600b8101805460ff191660029081179091554291600c0190610fbe565b6000848152600c60205260409020600301546001600160a01b03163314611f105760405162461bcd60e51b815260206004820152602f60248201527f4f6e6c79207265676973746572656420686f73706974616c732063616e20726560448201526e7175657374206d65646963696e657360881b60648201526084016106df565b6000848152600d60209081526040808320815160a081018352888152808401888152818401888152871515606080850182815260808087018b8152885460018082018b55998d529b8b902097516004909c029097019a8b559451968a019690965591516002890155935160039097018054935161ffff1990941697151561ff0019169790971761010093151593909302929092179095558251898152938401889052918301869052908201527f49b2c810ae9751ec4b8b6ca8d82a6a9061fdffd81489292a1d798940471aed89910160405180910390a150505050565b6009602052600090815260409020805460018201546002830180546001600160a01b03909316939192610d0a906133eb565b6060600d6000838152602001908152602001600020805480602002602001604051908101604052809291908181526020016000905b828210156120bd5760008481526020908190206040805160a0810182526004860290920180548352600180820154848601526002820154928401929092526003015460ff8082161515606085015261010090910416151560808301529083529092019101612054565b505050509050919050565b600080821180156120db57506001548211155b6120f75760405162461bcd60e51b81526004016106df90613338565b5060009081526007602052604090206006015490565b6001805460065490916000918291829190829081905b600154811161219d57600081815260076020526040902060030154600f5481101561215657876121528161341f565b9850505b60105481111561216e578661216a8161341f565b9750505b61217782612467565b1561218a57856121868161341f565b9650505b50806121958161341f565b915050612123565b5060015b6006548111612233576000818152600d6020526040902080546121c4908561357c565b935060005b815481101561221e578181815481106121e4576121e4613365565b906000526020600020906004020160030160019054906101000a900460ff161561221657836122128161341f565b9450505b6001016121c9565b5050808061222b9061341f565b9150506121a1565b5090919293949596565b606060008211801561225157506001548211155b61226d5760405162461bcd60e51b81526004016106df90613338565b6000828152600760205260408120600b015460ff1690816007811115612295576122956131cc565b036122c857505060408051808201909152601081526f1359591a58da5b994813dc99195c995960821b6020820152919050565b60018160078111156122dc576122dc6131cc565b0361231c57505060408051808201909152601981527f526177204d6174657269616c20537570706c79205374616765000000000000006020820152919050565b6002816007811115612330576123306131cc565b036123665750506040805180820190915260138152724d616e75666163747572696e6720537461676560681b6020820152919050565b600381600781111561237a5761237a6131cc565b036123af575050604080518082019091526012815271446973747269627574696f6e20537461676560701b6020820152919050565b60048160078111156123c3576123c36131cc565b036123f257505060408051808201909152600c81526b52657461696c20537461676560a01b6020820152919050565b6005816007811115612406576124066131cc565b0361243657505060408051808201909152600d81526c1359591a58da5b994814dbdb19609a1b6020820152919050565b505060408051808201909152600d81526c556e6b6e6f776e20537461676560981b6020820152919050565b50919050565b6000808211801561247a57506001548211155b6124965760405162461bcd60e51b81526004016106df90613338565b60008281526007602052604090206004015480158015906124c257506124bf426213c68061357c565b81105b156124d05750600192915050565b50600092915050565b600760205260009081526040902080546001820180549192916124fb906133eb565b80601f0160208091040260200160405190810160405280929190818152602001828054612527906133eb565b80156125745780601f1061254957610100808354040283529160200191612574565b820191906000526020600020905b81548152906001019060200180831161255757829003601f168201915b505050505090806002018054612589906133eb565b80601f01602080910402602001604051908101604052809291908181526020018280546125b5906133eb565b80156126025780601f106125d757610100808354040283529160200191612602565b820191906000526020600020905b8154815290600101906020018083116125e557829003601f168201915b505050505090806003015490806004015490806005018054612623906133eb565b80601f016020809104026020016040519081016040528092919081815260200182805461264f906133eb565b801561269c5780601f106126715761010080835404028352916020019161269c565b820191906000526020600020905b81548152906001019060200180831161267f57829003601f168201915b5050506006840154600785015460088601546009870154600a880154600b9098015496979396929550909350919060ff168c565b6008602052600090815260409020805460018201546002830180546001600160a01b03909316939192610d0a906133eb565b6000546001600160a01b0316331461272c5760405162461bcd60e51b81526004016106df906133aa565b600060025411801561274057506000600354115b801561274e57506000600454115b801561275c57506000600554115b6127be5760405162461bcd60e51b815260206004820152602d60248201527f416c6c20726f6c6573206d75737420626520736574206265666f72652061646460448201526c696e67206d65646963696e657360981b60648201526084016106df565b600180549060006127ce8361341f565b9190505550604051806101a001604052806001548152602001878152602001868152602001858152602001848152602001838152602001828152602001600081526020016000815260200160008152602001600081526020016000600781111561283a5761283a6131cc565b815260408051600880825261012082019092526020928301929091908201610100803683375050509052600180546000908152600760209081526040909120835181559083015190918201906128909082613487565b50604082015160028201906128a59082613487565b50606082015160038201556080820151600482015560a082015160058201906128ce9082613487565b5060c0820151816006015560e082015181600701556101008201518160080155610120820151816009015561014082015181600a015561016082015181600b0160006101000a81548160ff0219169083600781111561292f5761292f6131cc565b0217905550610180820151805161295091600c840191602090910190612cc6565b505050505050505050565b600081815260076020526040902060030154600f548110156129d6577fe15983936b4d90991838db308a365ee0da6b9bd5e38c649239c1e46c0efc4980826040516129ca918152604060208201819052600a9082015269556e64657273746f636b60b01b606082015260800190565b60405180910390a15050565b6010548111156112e0577fe15983936b4d90991838db308a365ee0da6b9bd5e38c649239c1e46c0efc4980826040516129ca918152604060208201819052600990820152684f76657273746f636b60b81b606082015260800190565b60008060055411612a7e5760405162461bcd60e51b81526020600482015260166024820152754e6f2072657461696c65727320617661696c61626c6560501b60448201526064016106df565b60015b60055481116124d0576000818152600b60205260409020546001600160a01b03808516911603612ac3576000908152600b602052604090206001015492915050565b80612acd8161341f565b915050612a81565b60008060045411612b285760405162461bcd60e51b815260206004820152601960248201527f4e6f206469737472696275746f727320617661696c61626c650000000000000060448201526064016106df565b60015b60045481116124d0576000818152600a60205260409020546001600160a01b03808516911603612b6d576000908152600a602052604090206001015492915050565b80612b778161341f565b915050612b2b565b60008060025411612bc55760405162461bcd60e51b815260206004820152601060248201526f4e6f20524d5320617661696c61626c6560801b60448201526064016106df565b60015b60025481116124d0576000818152600860205260409020546001600160a01b03808516911603612c0a5760009081526008602052604090206001015492915050565b80612c148161341f565b915050612bc8565b60008060035411612c6f5760405162461bcd60e51b815260206004820152601a60248201527f4e6f206d616e7566616374757265727320617661696c61626c6500000000000060448201526064016106df565b60015b60035481116124d0576000818152600960205260409020546001600160a01b03808516911603612cb45760009081526009602052604090206001015492915050565b80612cbe8161341f565b915050612c72565b828054828255906000526020600020908101928215612d01579160200282015b82811115612d01578251825591602001919060010190612ce6565b50612d0d929150612d11565b5090565b5b80821115612d0d5760008155600101612d12565b600080600060608486031215612d3b57600080fd5b505081359360208301359350604090920135919050565b60008060408385031215612d6557600080fd5b50508035926020909101359150565b600060208284031215612d8657600080fd5b5035919050565b6000815180845260005b81811015612db357602081850181015186830182015201612d97565b506000602082860101526020601f19601f83011685010191505092915050565b602081526000612de66020830184612d8d565b9392505050565b80356001600160a01b0381168114612e0457600080fd5b919050565b634e487b7160e01b600052604160045260246000fd5b600082601f830112612e3057600080fd5b81356001600160401b03811115612e4957612e49612e09565b604051601f8201601f19908116603f011681016001600160401b0381118282101715612e7757612e77612e09565b604052818152838201602001851015612e8f57600080fd5b816020850160208301376000918101602001919091529392505050565b600080600060608486031215612ec157600080fd5b612eca84612ded565b925060208401356001600160401b03811115612ee557600080fd5b612ef186828701612e1f565b92505060408401356001600160401b03811115612f0d57600080fd5b612f1986828701612e1f565b9150509250925092565b60018060a01b0385168152836020820152608060408201526000612f4a6080830185612d8d565b8281036060840152612f5c8185612d8d565b979650505050505050565b600080600060608486031215612f7c57600080fd5b83356001600160401b03811115612f9257600080fd5b612f9e86828701612e1f565b93505060208401356001600160401b03811115612fba57600080fd5b612fc686828701612e1f565b925050612fd560408501612ded565b90509250925092565b600060208284031215612ff057600080fd5b612de682612ded565b600081518084526020840193506020830160005b8281101561302b57815186526020958601959091019060010161300d565b5093949350505050565b6080815260006130486080830187612ff9565b828103602084015261305a8187612ff9565b9050828103604084015261306e8186612ff9565b83810360608501528451808252602080870193509091019060005b818110156130a95783511515835260209384019390920191600101613089565b509098975050505050505050565b8481526080602082015260006130d06080830186612d8d565b82810360408401526130e28186612d8d565b91505060018060a01b038316606083015295945050505050565b602081526000612de66020830184612ff9565b6000806000806080858703121561312557600080fd5b8435935060208501359250604085013591506060850135801515811461314a57600080fd5b939692955090935050565b602080825282518282018190526000918401906040840190835b818110156131c15783518051845260208101516020850152604081015160408501526060810151151560608501526080810151151560808501525060a08301925060208401935060018101905061316f565b509095945050505050565b634e487b7160e01b600052602160045260246000fd5b8c8152610180602082015260006131fd61018083018e612d8d565b828103604084015261320f818e612d8d565b90508b60608401528a608084015282810360a084015261322f818b612d8d565b9150508760c08301528660e08301528561010083015284610120830152836101408301526008831061327157634e487b7160e01b600052602160045260246000fd5b826101608301529d9c50505050505050505050505050565b60008060008060008060c087890312156132a257600080fd5b86356001600160401b038111156132b857600080fd5b6132c489828a01612e1f565b96505060208701356001600160401b038111156132e057600080fd5b6132ec89828a01612e1f565b955050604087013593506060870135925060808701356001600160401b0381111561331657600080fd5b61332289828a01612e1f565b9699959850939692959460a09093013593505050565b602080825260139082015272125b9d985b1a59081b59591a58da5b99481251606a1b604082015260600190565b634e487b7160e01b600052603260045260246000fd5b634e487b7160e01b600052601160045260246000fd5b818103818111156133a4576133a461337b565b92915050565b60208082526021908201527f4f6e6c79206f776e65722063616e2063616c6c20746869732066756e6374696f6040820152603760f91b606082015260800190565b600181811c908216806133ff57607f821691505b60208210810361246157634e487b7160e01b600052602260045260246000fd5b6000600182016134315761343161337b565b5060010190565b601f82111561348257806000526020600020601f840160051c8101602085101561345f5750805b601f840160051c820191505b8181101561347f576000815560010161346b565b50505b505050565b81516001600160401b038111156134a0576134a0612e09565b6134b4816134ae84546133eb565b84613438565b6020601f8211600181146134e857600083156134d05750848201515b600019600385901b1c1916600184901b17845561347f565b600084815260208120601f198516915b8281101561351857878501518255602094850194600190920191016134f8565b50848210156135365786840151600019600387901b60f8161c191681555b50505050600190811b01905550565b60208082526018908201527f496e76616c6964207374616765207472616e736974696f6e0000000000000000604082015260600190565b808201808211156133a4576133a461337b56fea26469706673582212208901623d93cae797dbd8272fd73811c92583a87d91e1c9a4db2bf8eb723f2bf464736f6c634300081b0033","opcodes":"PUSH1 0x80 PUSH1 0x40 MSTORE PUSH1 0x0 PUSH1 0x1 SSTORE PUSH1 0x0 PUSH1 0x2 SSTORE PUSH1 0x0 PUSH1 0x3 SSTORE PUSH1 0x0 PUSH1 0x4 SSTORE PUSH1 0x0 PUSH1 0x5 SSTORE PUSH1 0x0 PUSH1 0x6 SSTORE PUSH1 0xA PUSH1 0xF SSTORE PUSH2 0x3E8 PUSH1 0x10 SSTORE CALLVALUE DUP1 ISZERO PUSH1 0x38 JUMPI PUSH1 0x0 DUP1 REVERT JUMPDEST POP PUSH1 0x0 DUP1 SLOAD PUSH1 0x1 PUSH1 0x1 PUSH1 0xA0 SHL SUB NOT AND CALLER OR SWAP1 SSTORE PUSH2 0x35C5 DUP1 PUSH2 0x5A PUSH1 0x0 CODECOPY PUSH1 0x0 RETURN INVALID PUSH1 0x80 PUSH1 0x40 MSTORE CALLVALUE DUP1 ISZERO PUSH2 0x10 JUMPI PUSH1 0x0 DUP1 REVERT JUMPDEST POP PUSH1 0x4 CALLDATASIZE LT PUSH2 0x269 JUMPI PUSH1 0x0 CALLDATALOAD PUSH1 0xE0 SHR DUP1 PUSH4 0x81DC6FD2 GT PUSH2 0x151 JUMPI DUP1 PUSH4 0xCC642784 GT PUSH2 0xC3 JUMPI DUP1 PUSH4 0xE101A2E0 GT PUSH2 0x87 JUMPI DUP1 PUSH4 0xE101A2E0 EQ PUSH2 0x5D6 JUMPI DUP1 PUSH4 0xE4357CD7 EQ PUSH2 0x5E9 JUMPI DUP1 PUSH4 0xEB1A06B5 EQ PUSH2 0x5FC JUMPI DUP1 PUSH4 0xEEF5CB40 EQ PUSH2 0x627 JUMPI DUP1 PUSH4 0xF3C40A36 EQ PUSH2 0x63A JUMPI DUP1 PUSH4 0xF507BBC0 EQ PUSH2 0x643 JUMPI PUSH1 0x0 DUP1 REVERT JUMPDEST DUP1 PUSH4 0xCC642784 EQ PUSH2 0x52A JUMPI DUP1 PUSH4 0xD0F8FD4F EQ PUSH2 0x55D JUMPI DUP1 PUSH4 0xD95F4B67 EQ PUSH2 0x57D JUMPI DUP1 PUSH4 0xD9708D48 EQ PUSH2 0x590 JUMPI DUP1 PUSH4 0xDD286398 EQ PUSH2 0x5CD JUMPI PUSH1 0x0 DUP1 REVERT JUMPDEST DUP1 PUSH4 0x9F4CA9FE GT PUSH2 0x115 JUMPI DUP1 PUSH4 0x9F4CA9FE EQ PUSH2 0x4AA JUMPI DUP1 PUSH4 0xA48D335A EQ PUSH2 0x4BD JUMPI DUP1 PUSH4 0xA95F29D9 EQ PUSH2 0x4D0 JUMPI DUP1 PUSH4 0xB4A99A4E EQ PUSH2 0x4D9 JUMPI DUP1 PUSH4 0xC877B344 EQ PUSH2 0x504 JUMPI DUP1 PUSH4 0xCC403069 EQ PUSH2 0x517 JUMPI PUSH1 0x0 DUP1 REVERT JUMPDEST DUP1 PUSH4 0x81DC6FD2 EQ PUSH2 0x42E JUMPI DUP1 PUSH4 0x857DDB04 EQ PUSH2 0x451 JUMPI DUP1 PUSH4 0x86C18275 EQ PUSH2 0x464 JUMPI DUP1 PUSH4 0x874AE092 EQ PUSH2 0x477 JUMPI DUP1 PUSH4 0x9C03FACB EQ PUSH2 0x497 JUMPI PUSH1 0x0 DUP1 REVERT JUMPDEST DUP1 PUSH4 0x3D753A1C GT PUSH2 0x1EA JUMPI DUP1 PUSH4 0x59BF286F GT PUSH2 0x1AE JUMPI DUP1 PUSH4 0x59BF286F EQ PUSH2 0x3C1 JUMPI DUP1 PUSH4 0x5E9DB90C EQ PUSH2 0x3D4 JUMPI DUP1 PUSH4 0x6A992C9F EQ PUSH2 0x3E7 JUMPI DUP1 PUSH4 0x7250E224 EQ PUSH2 0x3FA JUMPI DUP1 PUSH4 0x7E43D94D EQ PUSH2 0x40D JUMPI DUP1 PUSH4 0x80A1F712 EQ PUSH2 0x416 JUMPI PUSH1 0x0 DUP1 REVERT JUMPDEST DUP1 PUSH4 0x3D753A1C EQ PUSH2 0x36C JUMPI DUP1 PUSH4 0x438E9C4D EQ PUSH2 0x37F JUMPI DUP1 PUSH4 0x4DEF474A EQ PUSH2 0x388 JUMPI DUP1 PUSH4 0x51D9AB38 EQ PUSH2 0x39B JUMPI DUP1 PUSH4 0x57C1F9E2 EQ PUSH2 0x3AE JUMPI PUSH1 0x0 DUP1 REVERT JUMPDEST DUP1 PUSH4 0x2A4AF440 GT PUSH2 0x231 JUMPI DUP1 PUSH4 0x2A4AF440 EQ PUSH2 0x311 JUMPI DUP1 PUSH4 0x2B0187AC EQ PUSH2 0x324 JUMPI DUP1 PUSH4 0x2B70B08D EQ PUSH2 0x347 JUMPI DUP1 PUSH4 0x2BDB2E6B EQ PUSH2 0x35A JUMPI DUP1 PUSH4 0x30F901D7 EQ PUSH2 0x363 JUMPI PUSH1 0x0 DUP1 REVERT JUMPDEST DUP1 PUSH4 0x221E2CF EQ PUSH2 0x26E JUMPI DUP1 PUSH4 0x2565813 EQ PUSH2 0x283 JUMPI DUP1 PUSH4 0x280B6C1 EQ PUSH2 0x2C7 JUMPI DUP1 PUSH4 0x1291B2EF EQ PUSH2 0x2DE JUMPI DUP1 PUSH4 0x154C04D2 EQ PUSH2 0x2F1 JUMPI JUMPDEST PUSH1 0x0 DUP1 REVERT JUMPDEST PUSH2 0x281 PUSH2 0x27C CALLDATASIZE PUSH1 0x4 PUSH2 0x2D26 JUMP JUMPDEST PUSH2 0x656 JUMP JUMPDEST STOP JUMPDEST PUSH2 0x296 PUSH2 0x291 CALLDATASIZE PUSH1 0x4 PUSH2 0x2D52 JUMP JUMPDEST PUSH2 0x9D2 JUMP JUMPDEST PUSH1 0x40 DUP1 MLOAD SWAP6 DUP7 MSTORE PUSH1 0x20 DUP7 ADD SWAP5 SWAP1 SWAP5 MSTORE SWAP3 DUP5 ADD SWAP2 SWAP1 SWAP2 MSTORE ISZERO ISZERO PUSH1 0x60 DUP4 ADD MSTORE ISZERO ISZERO PUSH1 0x80 DUP3 ADD MSTORE PUSH1 0xA0 ADD JUMPDEST PUSH1 0x40 MLOAD DUP1 SWAP2 SUB SWAP1 RETURN JUMPDEST PUSH2 0x2D0 PUSH1 0x6 SLOAD DUP2 JUMP JUMPDEST PUSH1 0x40 MLOAD SWAP1 DUP2 MSTORE PUSH1 0x20 ADD PUSH2 0x2BE JUMP JUMPDEST PUSH2 0x281 PUSH2 0x2EC CALLDATASIZE PUSH1 0x4 PUSH2 0x2D74 JUMP JUMPDEST PUSH2 0xA24 JUMP JUMPDEST PUSH2 0x304 PUSH2 0x2FF CALLDATASIZE PUSH1 0x4 PUSH2 0x2D74 JUMP JUMPDEST PUSH2 0xB45 JUMP JUMPDEST PUSH1 0x40 MLOAD PUSH2 0x2BE SWAP2 SWAP1 PUSH2 0x2DD3 JUMP JUMPDEST PUSH2 0x281 PUSH2 0x31F CALLDATASIZE PUSH1 0x4 PUSH2 0x2EAC JUMP JUMPDEST PUSH2 0xC16 JUMP JUMPDEST PUSH2 0x337 PUSH2 0x332 CALLDATASIZE PUSH1 0x4 PUSH2 0x2D74 JUMP JUMPDEST PUSH2 0xCD8 JUMP JUMPDEST PUSH1 0x40 MLOAD PUSH2 0x2BE SWAP5 SWAP4 SWAP3 SWAP2 SWAP1 PUSH2 0x2F23 JUMP JUMPDEST PUSH2 0x281 PUSH2 0x355 CALLDATASIZE PUSH1 0x4 PUSH2 0x2EAC JUMP JUMPDEST PUSH2 0xE1B JUMP JUMPDEST PUSH2 0x2D0 PUSH1 0x4 SLOAD DUP2 JUMP JUMPDEST PUSH2 0x2D0 PUSH1 0x10 SLOAD DUP2 JUMP JUMPDEST PUSH2 0x281 PUSH2 0x37A CALLDATASIZE PUSH1 0x4 PUSH2 0x2D74 JUMP JUMPDEST PUSH2 0xEC9 JUMP JUMPDEST PUSH2 0x2D0 PUSH1 0x3 SLOAD DUP2 JUMP JUMPDEST PUSH2 0x281 PUSH2 0x396 CALLDATASIZE PUSH1 0x4 PUSH2 0x2D74 JUMP JUMPDEST PUSH2 0xFDE JUMP JUMPDEST PUSH2 0x281 PUSH2 0x3A9 CALLDATASIZE PUSH1 0x4 PUSH2 0x2F67 JUMP JUMPDEST PUSH2 0x10DA JUMP JUMPDEST PUSH2 0x281 PUSH2 0x3BC CALLDATASIZE PUSH1 0x4 PUSH2 0x2FDE JUMP JUMPDEST PUSH2 0x11EE JUMP JUMPDEST PUSH2 0x337 PUSH2 0x3CF CALLDATASIZE PUSH1 0x4 PUSH2 0x2D74 JUMP JUMPDEST PUSH2 0x1239 JUMP JUMPDEST PUSH2 0x281 PUSH2 0x3E2 CALLDATASIZE PUSH1 0x4 PUSH2 0x2D52 JUMP JUMPDEST PUSH2 0x126B JUMP JUMPDEST PUSH2 0x281 PUSH2 0x3F5 CALLDATASIZE PUSH1 0x4 PUSH2 0x2EAC JUMP JUMPDEST PUSH2 0x12E4 JUMP JUMPDEST PUSH2 0x281 PUSH2 0x408 CALLDATASIZE PUSH1 0x4 PUSH2 0x2FDE JUMP JUMPDEST PUSH2 0x1391 JUMP JUMPDEST PUSH2 0x2D0 PUSH1 0x5 SLOAD DUP2 JUMP JUMPDEST PUSH2 0x41E PUSH2 0x13DF JUMP JUMPDEST PUSH1 0x40 MLOAD PUSH2 0x2BE SWAP5 SWAP4 SWAP3 SWAP2 SWAP1 PUSH2 0x3035 JUMP JUMPDEST PUSH2 0x441 PUSH2 0x43C CALLDATASIZE PUSH1 0x4 PUSH2 0x2D74 JUMP JUMPDEST PUSH2 0x1725 JUMP JUMPDEST PUSH1 0x40 MLOAD PUSH2 0x2BE SWAP5 SWAP4 SWAP3 SWAP2 SWAP1 PUSH2 0x30B7 JUMP JUMPDEST PUSH2 0x281 PUSH2 0x45F CALLDATASIZE PUSH1 0x4 PUSH2 0x2EAC JUMP JUMPDEST PUSH2 0x1867 JUMP JUMPDEST PUSH2 0x281 PUSH2 0x472 CALLDATASIZE PUSH1 0x4 PUSH2 0x2D74 JUMP JUMPDEST PUSH2 0x1914 JUMP JUMPDEST PUSH2 0x48A PUSH2 0x485 CALLDATASIZE PUSH1 0x4 PUSH2 0x2D74 JUMP JUMPDEST PUSH2 0x1A07 JUMP JUMPDEST PUSH1 0x40 MLOAD PUSH2 0x2BE SWAP2 SWAP1 PUSH2 0x30FC JUMP JUMPDEST PUSH2 0x281 PUSH2 0x4A5 CALLDATASIZE PUSH1 0x4 PUSH2 0x2D74 JUMP JUMPDEST PUSH2 0x1B61 JUMP JUMPDEST PUSH2 0x281 PUSH2 0x4B8 CALLDATASIZE PUSH1 0x4 PUSH2 0x2D74 JUMP JUMPDEST PUSH2 0x1CC2 JUMP JUMPDEST PUSH2 0x281 PUSH2 0x4CB CALLDATASIZE PUSH1 0x4 PUSH2 0x2D74 JUMP JUMPDEST PUSH2 0x1D92 JUMP JUMPDEST PUSH2 0x2D0 PUSH1 0x1 SLOAD DUP2 JUMP JUMPDEST PUSH1 0x0 SLOAD PUSH2 0x4EC SWAP1 PUSH1 0x1 PUSH1 0x1 PUSH1 0xA0 SHL SUB AND DUP2 JUMP JUMPDEST PUSH1 0x40 MLOAD PUSH1 0x1 PUSH1 0x1 PUSH1 0xA0 SHL SUB SWAP1 SWAP2 AND DUP2 MSTORE PUSH1 0x20 ADD PUSH2 0x2BE JUMP JUMPDEST PUSH2 0x281 PUSH2 0x512 CALLDATASIZE PUSH1 0x4 PUSH2 0x310F JUMP JUMPDEST PUSH2 0x1E8F JUMP JUMPDEST PUSH2 0x337 PUSH2 0x525 CALLDATASIZE PUSH1 0x4 PUSH2 0x2D74 JUMP JUMPDEST PUSH2 0x1FED JUMP JUMPDEST PUSH2 0x54D PUSH2 0x538 CALLDATASIZE PUSH1 0x4 PUSH2 0x2FDE JUMP JUMPDEST PUSH1 0xE PUSH1 0x20 MSTORE PUSH1 0x0 SWAP1 DUP2 MSTORE PUSH1 0x40 SWAP1 KECCAK256 SLOAD PUSH1 0xFF AND DUP2 JUMP JUMPDEST PUSH1 0x40 MLOAD SWAP1 ISZERO ISZERO DUP2 MSTORE PUSH1 0x20 ADD PUSH2 0x2BE JUMP JUMPDEST PUSH2 0x570 PUSH2 0x56B CALLDATASIZE PUSH1 0x4 PUSH2 0x2D74 JUMP JUMPDEST PUSH2 0x201F JUMP JUMPDEST PUSH1 0x40 MLOAD PUSH2 0x2BE SWAP2 SWAP1 PUSH2 0x3155 JUMP JUMPDEST PUSH2 0x2D0 PUSH2 0x58B CALLDATASIZE PUSH1 0x4 PUSH2 0x2D74 JUMP JUMPDEST PUSH2 0x20C8 JUMP JUMPDEST PUSH2 0x598 PUSH2 0x210D JUMP JUMPDEST PUSH1 0x40 DUP1 MLOAD SWAP8 DUP9 MSTORE PUSH1 0x20 DUP9 ADD SWAP7 SWAP1 SWAP7 MSTORE SWAP5 DUP7 ADD SWAP4 SWAP1 SWAP4 MSTORE PUSH1 0x60 DUP6 ADD SWAP2 SWAP1 SWAP2 MSTORE PUSH1 0x80 DUP5 ADD MSTORE PUSH1 0xA0 DUP4 ADD MSTORE PUSH1 0xC0 DUP3 ADD MSTORE PUSH1 0xE0 ADD PUSH2 0x2BE JUMP JUMPDEST PUSH2 0x2D0 PUSH1 0x2 SLOAD DUP2 JUMP JUMPDEST PUSH2 0x304 PUSH2 0x5E4 CALLDATASIZE PUSH1 0x4 PUSH2 0x2D74 JUMP JUMPDEST PUSH2 0x223D JUMP JUMPDEST PUSH2 0x54D PUSH2 0x5F7 CALLDATASIZE PUSH1 0x4 PUSH2 0x2D74 JUMP JUMPDEST PUSH2 0x2467 JUMP JUMPDEST PUSH2 0x60F PUSH2 0x60A CALLDATASIZE PUSH1 0x4 PUSH2 0x2D74 JUMP JUMPDEST PUSH2 0x24D9 JUMP JUMPDEST PUSH1 0x40 MLOAD PUSH2 0x2BE SWAP13 SWAP12 SWAP11 SWAP10 SWAP9 SWAP8 SWAP7 SWAP6 SWAP5 SWAP4 SWAP3 SWAP2 SWAP1 PUSH2 0x31E2 JUMP JUMPDEST PUSH2 0x337 PUSH2 0x635 CALLDATASIZE PUSH1 0x4 PUSH2 0x2D74 JUMP JUMPDEST PUSH2 0x26D0 JUMP JUMPDEST PUSH2 0x2D0 PUSH1 0xF SLOAD DUP2 JUMP JUMPDEST PUSH2 0x281 PUSH2 0x651 CALLDATASIZE PUSH1 0x4 PUSH2 0x3289 JUMP JUMPDEST PUSH2 0x2702 JUMP JUMPDEST PUSH1 0x0 SLOAD PUSH1 0x1 PUSH1 0x1 PUSH1 0xA0 SHL SUB AND CALLER EQ DUP1 PUSH2 0x67E JUMPI POP CALLER PUSH1 0x0 SWAP1 DUP2 MSTORE PUSH1 0xE PUSH1 0x20 MSTORE PUSH1 0x40 SWAP1 KECCAK256 SLOAD PUSH1 0xFF AND JUMPDEST PUSH2 0x6E8 JUMPI PUSH1 0x40 MLOAD PUSH3 0x461BCD PUSH1 0xE5 SHL DUP2 MSTORE PUSH1 0x20 PUSH1 0x4 DUP3 ADD MSTORE PUSH1 0x30 PUSH1 0x24 DUP3 ADD MSTORE PUSH32 0x4F6E6C79206F776E6572206F72206469737472696275746F722063616E206361 PUSH1 0x44 DUP3 ADD MSTORE PUSH16 0x3636103A3434B990333AB731BA34B7B7 PUSH1 0x81 SHL PUSH1 0x64 DUP3 ADD MSTORE PUSH1 0x84 ADD JUMPDEST PUSH1 0x40 MLOAD DUP1 SWAP2 SUB SWAP1 REVERT JUMPDEST PUSH1 0x0 DUP4 GT DUP1 ISZERO PUSH2 0x6FA JUMPI POP PUSH1 0x6 SLOAD DUP4 GT ISZERO JUMPDEST PUSH2 0x73C JUMPI PUSH1 0x40 MLOAD PUSH3 0x461BCD PUSH1 0xE5 SHL DUP2 MSTORE PUSH1 0x20 PUSH1 0x4 DUP3 ADD MSTORE PUSH1 0x13 PUSH1 0x24 DUP3 ADD MSTORE PUSH19 0x125B9D985B1A59081A1BDCDC1A5D185B081251 PUSH1 0x6A SHL PUSH1 0x44 DUP3 ADD MSTORE PUSH1 0x64 ADD PUSH2 0x6DF JUMP JUMPDEST PUSH1 0x0 DUP3 GT DUP1 ISZERO PUSH2 0x74E JUMPI POP PUSH1 0x1 SLOAD DUP3 GT ISZERO JUMPDEST PUSH2 0x76A JUMPI PUSH1 0x40 MLOAD PUSH3 0x461BCD PUSH1 0xE5 SHL DUP2 MSTORE PUSH1 0x4 ADD PUSH2 0x6DF SWAP1 PUSH2 0x3338 JUMP JUMPDEST PUSH1 0x0 DUP3 DUP2 MSTORE PUSH1 0x7 PUSH1 0x20 MSTORE PUSH1 0x40 SWAP1 KECCAK256 PUSH1 0x3 DUP2 ADD SLOAD DUP3 GT ISZERO PUSH2 0x7CC JUMPI PUSH1 0x40 MLOAD PUSH3 0x461BCD PUSH1 0xE5 SHL DUP2 MSTORE PUSH1 0x20 PUSH1 0x4 DUP3 ADD MSTORE PUSH1 0x1E PUSH1 0x24 DUP3 ADD MSTORE PUSH32 0x496E73756666696369656E74206D65646963696E65207175616E746974790000 PUSH1 0x44 DUP3 ADD MSTORE PUSH1 0x64 ADD PUSH2 0x6DF JUMP JUMPDEST PUSH1 0x0 DUP5 DUP2 MSTORE PUSH1 0xD PUSH1 0x20 MSTORE PUSH1 0x40 DUP2 KECCAK256 SWAP1 DUP1 JUMPDEST DUP3 SLOAD DUP2 LT ISZERO PUSH2 0x96E JUMPI DUP6 DUP4 DUP3 DUP2 SLOAD DUP2 LT PUSH2 0x7F9 JUMPI PUSH2 0x7F9 PUSH2 0x3365 JUMP JUMPDEST SWAP1 PUSH1 0x0 MSTORE PUSH1 0x20 PUSH1 0x0 KECCAK256 SWAP1 PUSH1 0x4 MUL ADD PUSH1 0x1 ADD SLOAD EQ DUP1 ISZERO PUSH2 0x846 JUMPI POP DUP3 DUP2 DUP2 SLOAD DUP2 LT PUSH2 0x825 JUMPI PUSH2 0x825 PUSH2 0x3365 JUMP JUMPDEST SWAP1 PUSH1 0x0 MSTORE PUSH1 0x20 PUSH1 0x0 KECCAK256 SWAP1 PUSH1 0x4 MUL ADD PUSH1 0x3 ADD PUSH1 0x1 SWAP1 SLOAD SWAP1 PUSH2 0x100 EXP SWAP1 DIV PUSH1 0xFF AND ISZERO JUMPDEST ISZERO PUSH2 0x966 JUMPI DUP5 DUP4 DUP3 DUP2 SLOAD DUP2 LT PUSH2 0x85E JUMPI PUSH2 0x85E PUSH2 0x3365 JUMP JUMPDEST SWAP1 PUSH1 0x0 MSTORE PUSH1 0x20 PUSH1 0x0 KECCAK256 SWAP1 PUSH1 0x4 MUL ADD PUSH1 0x2 ADD SLOAD EQ PUSH2 0x8BD JUMPI PUSH1 0x40 MLOAD PUSH3 0x461BCD PUSH1 0xE5 SHL DUP2 MSTORE PUSH1 0x20 PUSH1 0x4 DUP3 ADD MSTORE PUSH1 0x1E PUSH1 0x24 DUP3 ADD MSTORE PUSH32 0x5175616E74697479206D69736D61746368207769746820726571756573740000 PUSH1 0x44 DUP3 ADD MSTORE PUSH1 0x64 ADD PUSH2 0x6DF JUMP JUMPDEST PUSH1 0x1 DUP4 DUP3 DUP2 SLOAD DUP2 LT PUSH2 0x8D1 JUMPI PUSH2 0x8D1 PUSH2 0x3365 JUMP JUMPDEST SWAP1 PUSH1 0x0 MSTORE PUSH1 0x20 PUSH1 0x0 KECCAK256 SWAP1 PUSH1 0x4 MUL ADD PUSH1 0x3 ADD PUSH1 0x1 PUSH2 0x100 EXP DUP2 SLOAD DUP2 PUSH1 0xFF MUL NOT AND SWAP1 DUP4 ISZERO ISZERO MUL OR SWAP1 SSTORE POP PUSH1 0x1 SWAP2 POP DUP5 DUP5 PUSH1 0x3 ADD PUSH1 0x0 DUP3 DUP3 SLOAD PUSH2 0x911 SWAP2 SWAP1 PUSH2 0x3391 JUMP JUMPDEST SWAP1 SWAP2 SSTORE POP PUSH2 0x920 SWAP1 POP DUP7 PUSH2 0x295B JUMP JUMPDEST PUSH1 0x40 DUP1 MLOAD DUP9 DUP2 MSTORE PUSH1 0x20 DUP2 ADD DUP9 SWAP1 MSTORE SWAP1 DUP2 ADD DUP7 SWAP1 MSTORE PUSH32 0xB16B8AD0728126D2A855FB7EE03B1C607C4FBB68D5466B6416855A45DCB3A622 SWAP1 PUSH1 0x60 ADD PUSH1 0x40 MLOAD DUP1 SWAP2 SUB SWAP1 LOG1 PUSH2 0x96E JUMP JUMPDEST PUSH1 0x1 ADD PUSH2 0x7DD JUMP JUMPDEST POP DUP1 PUSH2 0x9CA JUMPI PUSH1 0x40 MLOAD PUSH3 0x461BCD PUSH1 0xE5 SHL DUP2 MSTORE PUSH1 0x20 PUSH1 0x4 DUP3 ADD MSTORE PUSH1 0x25 PUSH1 0x24 DUP3 ADD MSTORE PUSH32 0x4E6F206D61746368696E6720756E66756C66696C6C6564207265717565737420 PUSH1 0x44 DUP3 ADD MSTORE PUSH5 0x199BDD5B99 PUSH1 0xDA SHL PUSH1 0x64 DUP3 ADD MSTORE PUSH1 0x84 ADD PUSH2 0x6DF JUMP JUMPDEST POP POP POP POP POP POP JUMP JUMPDEST PUSH1 0xD PUSH1 0x20 MSTORE DUP2 PUSH1 0x0 MSTORE PUSH1 0x40 PUSH1 0x0 KECCAK256 DUP2 DUP2 SLOAD DUP2 LT PUSH2 0x9EE JUMPI PUSH1 0x0 DUP1 REVERT JUMPDEST PUSH1 0x0 SWAP2 DUP3 MSTORE PUSH1 0x20 SWAP1 SWAP2 KECCAK256 PUSH1 0x4 SWAP1 SWAP2 MUL ADD DUP1 SLOAD PUSH1 0x1 DUP3 ADD SLOAD PUSH1 0x2 DUP4 ADD SLOAD PUSH1 0x3 SWAP1 SWAP4 ADD SLOAD SWAP2 SWAP5 POP SWAP3 POP PUSH1 0xFF DUP1 DUP3 AND SWAP2 PUSH2 0x100 SWAP1 DIV AND DUP6 JUMP JUMPDEST PUSH1 0x0 SLOAD PUSH1 0x1 PUSH1 0x1 PUSH1 0xA0 SHL SUB AND CALLER EQ PUSH2 0xA4E JUMPI PUSH1 0x40 MLOAD PUSH3 0x461BCD PUSH1 0xE5 SHL DUP2 MSTORE PUSH1 0x4 ADD PUSH2 0x6DF SWAP1 PUSH2 0x33AA JUMP JUMPDEST PUSH1 0x0 DUP2 GT DUP1 ISZERO PUSH2 0xA60 JUMPI POP PUSH1 0x1 SLOAD DUP2 GT ISZERO JUMPDEST PUSH2 0xA7C JUMPI PUSH1 0x40 MLOAD PUSH3 0x461BCD PUSH1 0xE5 SHL DUP2 MSTORE PUSH1 0x4 ADD PUSH2 0x6DF SWAP1 PUSH2 0x3338 JUMP JUMPDEST PUSH2 0xA85 DUP2 PUSH2 0x2467 JUMP JUMPDEST PUSH2 0xAD1 JUMPI PUSH1 0x40 MLOAD PUSH3 0x461BCD PUSH1 0xE5 SHL DUP2 MSTORE PUSH1 0x20 PUSH1 0x4 DUP3 ADD MSTORE PUSH1 0x17 PUSH1 0x24 DUP3 ADD MSTORE PUSH32 0x4D65646963696E65206973206E6F742065787069726564000000000000000000 PUSH1 0x44 DUP3 ADD MSTORE PUSH1 0x64 ADD PUSH2 0x6DF JUMP JUMPDEST PUSH1 0x0 DUP2 DUP2 MSTORE PUSH1 0x7 PUSH1 0x20 MSTORE PUSH1 0x40 SWAP1 KECCAK256 PUSH1 0xB DUP2 ADD DUP1 SLOAD PUSH1 0xFF NOT AND PUSH1 0x6 SWAP1 DUP2 OR SWAP1 SWAP2 SSTORE PUSH1 0xC DUP3 ADD DUP1 SLOAD TIMESTAMP SWAP3 SWAP1 DUP2 LT PUSH2 0xB08 JUMPI PUSH2 0xB08 PUSH2 0x3365 JUMP JUMPDEST PUSH1 0x0 SWAP2 DUP3 MSTORE PUSH1 0x20 DUP3 KECCAK256 ADD SWAP2 SWAP1 SWAP2 SSTORE PUSH1 0x40 MLOAD CALLER SWAP2 DUP5 SWAP2 PUSH32 0xD09B09F037BEB4A869D9AAB82980A8B8672115F3AD9F657ACB0BA1D955A1F4BA SWAP2 SWAP1 LOG3 POP POP JUMP JUMPDEST PUSH1 0x60 PUSH1 0x0 DUP3 GT DUP1 ISZERO PUSH2 0xB59 JUMPI POP PUSH1 0x1 SLOAD DUP3 GT ISZERO JUMPDEST PUSH2 0xB75 JUMPI PUSH1 0x40 MLOAD PUSH3 0x461BCD PUSH1 0xE5 SHL DUP2 MSTORE PUSH1 0x4 ADD PUSH2 0x6DF SWAP1 PUSH2 0x3338 JUMP JUMPDEST PUSH1 0x0 DUP3 DUP2 MSTORE PUSH1 0x7 PUSH1 0x20 MSTORE PUSH1 0x40 SWAP1 KECCAK256 PUSH1 0x5 ADD DUP1 SLOAD PUSH2 0xB91 SWAP1 PUSH2 0x33EB JUMP JUMPDEST DUP1 PUSH1 0x1F ADD PUSH1 0x20 DUP1 SWAP2 DIV MUL PUSH1 0x20 ADD PUSH1 0x40 MLOAD SWAP1 DUP2 ADD PUSH1 0x40 MSTORE DUP1 SWAP3 SWAP2 SWAP1 DUP2 DUP2 MSTORE PUSH1 0x20 ADD DUP3 DUP1 SLOAD PUSH2 0xBBD SWAP1 PUSH2 0x33EB JUMP JUMPDEST DUP1 ISZERO PUSH2 0xC0A JUMPI DUP1 PUSH1 0x1F LT PUSH2 0xBDF JUMPI PUSH2 0x100 DUP1 DUP4 SLOAD DIV MUL DUP4 MSTORE SWAP2 PUSH1 0x20 ADD SWAP2 PUSH2 0xC0A JUMP JUMPDEST DUP3 ADD SWAP2 SWAP1 PUSH1 0x0 MSTORE PUSH1 0x20 PUSH1 0x0 KECCAK256 SWAP1 JUMPDEST DUP2 SLOAD DUP2 MSTORE SWAP1 PUSH1 0x1 ADD SWAP1 PUSH1 0x20 ADD DUP1 DUP4 GT PUSH2 0xBED JUMPI DUP3 SWAP1 SUB PUSH1 0x1F AND DUP3 ADD SWAP2 JUMPDEST POP POP POP POP POP SWAP1 POP SWAP2 SWAP1 POP JUMP JUMPDEST PUSH1 0x0 SLOAD PUSH1 0x1 PUSH1 0x1 PUSH1 0xA0 SHL SUB AND CALLER EQ PUSH2 0xC40 JUMPI PUSH1 0x40 MLOAD PUSH3 0x461BCD PUSH1 0xE5 SHL DUP2 MSTORE PUSH1 0x4 ADD PUSH2 0x6DF SWAP1 PUSH2 0x33AA JUMP JUMPDEST PUSH1 0x4 DUP1 SLOAD SWAP1 PUSH1 0x0 PUSH2 0xC50 DUP4 PUSH2 0x341F JUMP JUMPDEST SWAP1 SWAP2 SSTORE POP POP PUSH1 0x40 DUP1 MLOAD PUSH1 0x80 DUP2 ADD DUP3 MSTORE PUSH1 0x1 PUSH1 0x1 PUSH1 0xA0 SHL SUB DUP6 DUP2 AND DUP3 MSTORE PUSH1 0x4 SLOAD PUSH1 0x20 DUP1 DUP5 ADD DUP3 DUP2 MSTORE DUP5 DUP7 ADD DUP9 DUP2 MSTORE PUSH1 0x60 DUP7 ADD DUP9 SWAP1 MSTORE PUSH1 0x0 SWAP4 DUP5 MSTORE PUSH1 0xA SWAP1 SWAP3 MSTORE SWAP5 SWAP1 SWAP2 KECCAK256 DUP4 MLOAD DUP2 SLOAD PUSH1 0x1 PUSH1 0x1 PUSH1 0xA0 SHL SUB NOT AND SWAP4 AND SWAP3 SWAP1 SWAP3 OR DUP3 SSTORE SWAP3 MLOAD PUSH1 0x1 DUP3 ADD SSTORE SWAP2 MLOAD SWAP1 SWAP2 SWAP1 PUSH1 0x2 DUP3 ADD SWAP1 PUSH2 0xCC3 SWAP1 DUP3 PUSH2 0x3487 JUMP JUMPDEST POP PUSH1 0x60 DUP3 ADD MLOAD PUSH1 0x3 DUP3 ADD SWAP1 PUSH2 0x9CA SWAP1 DUP3 PUSH2 0x3487 JUMP JUMPDEST PUSH1 0xA PUSH1 0x20 MSTORE PUSH1 0x0 SWAP1 DUP2 MSTORE PUSH1 0x40 SWAP1 KECCAK256 DUP1 SLOAD PUSH1 0x1 DUP3 ADD SLOAD PUSH1 0x2 DUP4 ADD DUP1 SLOAD PUSH1 0x1 PUSH1 0x1 PUSH1 0xA0 SHL SUB SWAP1 SWAP4 AND SWAP4 SWAP2 SWAP3 PUSH2 0xD0A SWAP1 PUSH2 0x33EB JUMP JUMPDEST DUP1 PUSH1 0x1F ADD PUSH1 0x20 DUP1 SWAP2 DIV MUL PUSH1 0x20 ADD PUSH1 0x40 MLOAD SWAP1 DUP2 ADD PUSH1 0x40 MSTORE DUP1 SWAP3 SWAP2 SWAP1 DUP2 DUP2 MSTORE PUSH1 0x20 ADD DUP3 DUP1 SLOAD PUSH2 0xD36 SWAP1 PUSH2 0x33EB JUMP JUMPDEST DUP1 ISZERO PUSH2 0xD83 JUMPI DUP1 PUSH1 0x1F LT PUSH2 0xD58 JUMPI PUSH2 0x100 DUP1 DUP4 SLOAD DIV MUL DUP4 MSTORE SWAP2 PUSH1 0x20 ADD SWAP2 PUSH2 0xD83 JUMP JUMPDEST DUP3 ADD SWAP2 SWAP1 PUSH1 0x0 MSTORE PUSH1 0x20 PUSH1 0x0 KECCAK256 SWAP1 JUMPDEST DUP2 SLOAD DUP2 MSTORE SWAP1 PUSH1 0x1 ADD SWAP1 PUSH1 0x20 ADD DUP1 DUP4 GT PUSH2 0xD66 JUMPI DUP3 SWAP1 SUB PUSH1 0x1F AND DUP3 ADD SWAP2 JUMPDEST POP POP POP POP POP SWAP1 DUP1 PUSH1 0x3 ADD DUP1 SLOAD PUSH2 0xD98 SWAP1 PUSH2 0x33EB JUMP JUMPDEST DUP1 PUSH1 0x1F ADD PUSH1 0x20 DUP1 SWAP2 DIV MUL PUSH1 0x20 ADD PUSH1 0x40 MLOAD SWAP1 DUP2 ADD PUSH1 0x40 MSTORE DUP1 SWAP3 SWAP2 SWAP1 DUP2 DUP2 MSTORE PUSH1 0x20 ADD DUP3 DUP1 SLOAD PUSH2 0xDC4 SWAP1 PUSH2 0x33EB JUMP JUMPDEST DUP1 ISZERO PUSH2 0xE11 JUMPI DUP1 PUSH1 0x1F LT PUSH2 0xDE6 JUMPI PUSH2 0x100 DUP1 DUP4 SLOAD DIV MUL DUP4 MSTORE SWAP2 PUSH1 0x20 ADD SWAP2 PUSH2 0xE11 JUMP JUMPDEST DUP3 ADD SWAP2 SWAP1 PUSH1 0x0 MSTORE PUSH1 0x20 PUSH1 0x0 KECCAK256 SWAP1 JUMPDEST DUP2 SLOAD DUP2 MSTORE SWAP1 PUSH1 0x1 ADD SWAP1 PUSH1 0x20 ADD DUP1 DUP4 GT PUSH2 0xDF4 JUMPI DUP3 SWAP1 SUB PUSH1 0x1F AND DUP3 ADD SWAP2 JUMPDEST POP POP POP POP POP SWAP1 POP DUP5 JUMP JUMPDEST PUSH1 0x0 SLOAD PUSH1 0x1 PUSH1 0x1 PUSH1 0xA0 SHL SUB AND CALLER EQ PUSH2 0xE45 JUMPI PUSH1 0x40 MLOAD PUSH3 0x461BCD PUSH1 0xE5 SHL DUP2 MSTORE PUSH1 0x4 ADD PUSH2 0x6DF SWAP1 PUSH2 0x33AA JUMP JUMPDEST PUSH1 0x2 DUP1 SLOAD SWAP1 PUSH1 0x0 PUSH2 0xE55 DUP4 PUSH2 0x341F JUMP JUMPDEST SWAP1 SWAP2 SSTORE POP POP PUSH1 0x40 DUP1 MLOAD PUSH1 0x80 DUP2 ADD DUP3 MSTORE PUSH1 0x1 PUSH1 0x1 PUSH1 0xA0 SHL SUB DUP6 DUP2 AND DUP3 MSTORE PUSH1 0x2 DUP1 SLOAD PUSH1 0x20 DUP1 DUP6 ADD DUP3 DUP2 MSTORE DUP6 DUP8 ADD DUP10 DUP2 MSTORE PUSH1 0x60 DUP8 ADD DUP10 SWAP1 MSTORE PUSH1 0x0 SWAP4 DUP5 MSTORE PUSH1 0x8 SWAP1 SWAP3 MSTORE SWAP6 SWAP1 SWAP2 KECCAK256 DUP5 MLOAD DUP2 SLOAD PUSH1 0x1 PUSH1 0x1 PUSH1 0xA0 SHL SUB NOT AND SWAP5 AND SWAP4 SWAP1 SWAP4 OR DUP4 SSTORE SWAP4 MLOAD PUSH1 0x1 DUP4 ADD SSTORE SWAP3 MLOAD SWAP2 SWAP3 SWAP1 SWAP2 SWAP1 DUP3 ADD SWAP1 PUSH2 0xCC3 SWAP1 DUP3 PUSH2 0x3487 JUMP JUMPDEST PUSH1 0x0 DUP2 GT DUP1 ISZERO PUSH2 0xEDB JUMPI POP PUSH1 0x1 SLOAD DUP2 GT ISZERO JUMPDEST PUSH2 0xEF7 JUMPI PUSH1 0x40 MLOAD PUSH3 0x461BCD PUSH1 0xE5 SHL DUP2 MSTORE PUSH1 0x4 ADD PUSH2 0x6DF SWAP1 PUSH2 0x3338 JUMP JUMPDEST PUSH1 0x0 PUSH2 0xF02 CALLER PUSH2 0x2A32 JUMP JUMPDEST SWAP1 POP PUSH1 0x0 DUP2 GT PUSH2 0xF49 JUMPI PUSH1 0x40 MLOAD PUSH3 0x461BCD PUSH1 0xE5 SHL DUP2 MSTORE PUSH1 0x20 PUSH1 0x4 DUP3 ADD MSTORE PUSH1 0x12 PUSH1 0x24 DUP3 ADD MSTORE PUSH18 0x14995D185A5B195C881B9BDD08199BDD5B99 PUSH1 0x72 SHL PUSH1 0x44 DUP3 ADD MSTORE PUSH1 0x64 ADD PUSH2 0x6DF JUMP JUMPDEST PUSH1 0x3 PUSH1 0x0 DUP4 DUP2 MSTORE PUSH1 0x7 PUSH1 0x20 DUP2 SWAP1 MSTORE PUSH1 0x40 SWAP1 SWAP2 KECCAK256 PUSH1 0xB ADD SLOAD PUSH1 0xFF AND SWAP1 DUP2 GT ISZERO PUSH2 0xF73 JUMPI PUSH2 0xF73 PUSH2 0x31CC JUMP JUMPDEST EQ PUSH2 0xF90 JUMPI PUSH1 0x40 MLOAD PUSH3 0x461BCD PUSH1 0xE5 SHL DUP2 MSTORE PUSH1 0x4 ADD PUSH2 0x6DF SWAP1 PUSH2 0x3545 JUMP JUMPDEST PUSH1 0x0 DUP3 DUP2 MSTORE PUSH1 0x7 PUSH1 0x20 MSTORE PUSH1 0x40 SWAP1 KECCAK256 PUSH1 0xA DUP2 ADD DUP3 SWAP1 SSTORE PUSH1 0xB DUP2 ADD DUP1 SLOAD PUSH1 0xFF NOT AND PUSH1 0x4 SWAP1 DUP2 OR SWAP1 SWAP2 SSTORE TIMESTAMP SWAP2 PUSH1 0xC ADD SWAP1 JUMPDEST DUP2 SLOAD DUP2 LT PUSH2 0xFCE JUMPI PUSH2 0xFCE PUSH2 0x3365 JUMP JUMPDEST PUSH1 0x0 SWAP2 DUP3 MSTORE PUSH1 0x20 SWAP1 SWAP2 KECCAK256 ADD SSTORE POP POP JUMP JUMPDEST PUSH1 0x0 DUP2 GT DUP1 ISZERO PUSH2 0xFF0 JUMPI POP PUSH1 0x1 SLOAD DUP2 GT ISZERO JUMPDEST PUSH2 0x100C JUMPI PUSH1 0x40 MLOAD PUSH3 0x461BCD PUSH1 0xE5 SHL DUP2 MSTORE PUSH1 0x4 ADD PUSH2 0x6DF SWAP1 PUSH2 0x3338 JUMP JUMPDEST PUSH1 0x0 PUSH2 0x1017 CALLER PUSH2 0x2AD5 JUMP JUMPDEST SWAP1 POP PUSH1 0x0 DUP2 GT PUSH2 0x1061 JUMPI PUSH1 0x40 MLOAD PUSH3 0x461BCD PUSH1 0xE5 SHL DUP2 MSTORE PUSH1 0x20 PUSH1 0x4 DUP3 ADD MSTORE PUSH1 0x15 PUSH1 0x24 DUP3 ADD MSTORE PUSH21 0x111A5CDD1C9A589D5D1BDC881B9BDD08199BDD5B99 PUSH1 0x5A SHL PUSH1 0x44 DUP3 ADD MSTORE PUSH1 0x64 ADD PUSH2 0x6DF JUMP JUMPDEST PUSH1 0x2 PUSH1 0x0 DUP4 DUP2 MSTORE PUSH1 0x7 PUSH1 0x20 DUP2 SWAP1 MSTORE PUSH1 0x40 SWAP1 SWAP2 KECCAK256 PUSH1 0xB ADD SLOAD PUSH1 0xFF AND SWAP1 DUP2 GT ISZERO PUSH2 0x108B JUMPI PUSH2 0x108B PUSH2 0x31CC JUMP JUMPDEST EQ PUSH2 0x10A8 JUMPI PUSH1 0x40 MLOAD PUSH3 0x461BCD PUSH1 0xE5 SHL DUP2 MSTORE PUSH1 0x4 ADD PUSH2 0x6DF SWAP1 PUSH2 0x3545 JUMP JUMPDEST PUSH1 0x0 DUP3 DUP2 MSTORE PUSH1 0x7 PUSH1 0x20 MSTORE PUSH1 0x40 SWAP1 KECCAK256 PUSH1 0x9 DUP2 ADD DUP3 SWAP1 SSTORE PUSH1 0xB DUP2 ADD DUP1 SLOAD PUSH1 0xFF NOT AND PUSH1 0x3 SWAP1 DUP2 OR SWAP1 SWAP2 SSTORE TIMESTAMP SWAP2 PUSH1 0xC ADD SWAP1 PUSH2 0xFBE JUMP JUMPDEST PUSH1 0x0 SLOAD PUSH1 0x1 PUSH1 0x1 PUSH1 0xA0 SHL SUB AND CALLER EQ PUSH2 0x1104 JUMPI PUSH1 0x40 MLOAD PUSH3 0x461BCD PUSH1 0xE5 SHL DUP2 MSTORE PUSH1 0x4 ADD PUSH2 0x6DF SWAP1 PUSH2 0x33AA JUMP JUMPDEST PUSH1 0x6 DUP1 SLOAD SWAP1 PUSH1 0x0 PUSH2 0x1114 DUP4 PUSH2 0x341F JUMP JUMPDEST SWAP1 SWAP2 SSTORE POP POP PUSH1 0x40 DUP1 MLOAD PUSH1 0x80 DUP2 ADD DUP3 MSTORE PUSH1 0x6 SLOAD DUP1 DUP3 MSTORE PUSH1 0x20 DUP1 DUP4 ADD DUP8 DUP2 MSTORE DUP4 DUP6 ADD DUP8 SWAP1 MSTORE PUSH1 0x1 PUSH1 0x1 PUSH1 0xA0 SHL SUB DUP7 AND PUSH1 0x60 DUP6 ADD MSTORE PUSH1 0x0 SWAP3 DUP4 MSTORE PUSH1 0xC SWAP1 SWAP2 MSTORE SWAP3 SWAP1 KECCAK256 DUP2 MLOAD DUP2 SSTORE SWAP2 MLOAD SWAP1 SWAP2 SWAP1 PUSH1 0x1 DUP3 ADD SWAP1 PUSH2 0x116B SWAP1 DUP3 PUSH2 0x3487 JUMP JUMPDEST POP PUSH1 0x40 DUP3 ADD MLOAD PUSH1 0x2 DUP3 ADD SWAP1 PUSH2 0x1180 SWAP1 DUP3 PUSH2 0x3487 JUMP JUMPDEST POP PUSH1 0x60 SWAP2 SWAP1 SWAP2 ADD MLOAD PUSH1 0x3 SWAP1 SWAP2 ADD DUP1 SLOAD PUSH1 0x1 PUSH1 0x1 PUSH1 0xA0 SHL SUB NOT AND PUSH1 0x1 PUSH1 0x1 PUSH1 0xA0 SHL SUB SWAP1 SWAP3 AND SWAP2 SWAP1 SWAP2 OR SWAP1 SSTORE PUSH1 0x6 SLOAD PUSH1 0x40 MLOAD PUSH32 0xEC62A7E33AAC8AF593991E2E40BB00093C5CCF25306306B757522493CF35D657 SWAP2 PUSH2 0x11E1 SWAP2 DUP7 SWAP1 DUP7 SWAP1 DUP7 SWAP1 PUSH2 0x30B7 JUMP JUMPDEST PUSH1 0x40 MLOAD DUP1 SWAP2 SUB SWAP1 LOG1 POP POP POP JUMP JUMPDEST PUSH1 0x0 SLOAD PUSH1 0x1 PUSH1 0x1 PUSH1 0xA0 SHL SUB AND CALLER EQ PUSH2 0x1218 JUMPI PUSH1 0x40 MLOAD PUSH3 0x461BCD PUSH1 0xE5 SHL DUP2 MSTORE PUSH1 0x4 ADD PUSH2 0x6DF SWAP1 PUSH2 0x33AA JUMP JUMPDEST PUSH1 0x1 PUSH1 0x1 PUSH1 0xA0 SHL SUB AND PUSH1 0x0 SWAP1 DUP2 MSTORE PUSH1 0xE PUSH1 0x20 MSTORE PUSH1 0x40 SWAP1 KECCAK256 DUP1 SLOAD PUSH1 0xFF NOT AND SWAP1 SSTORE JUMP JUMPDEST PUSH1 0xB PUSH1 0x20 MSTORE PUSH1 0x0 SWAP1 DUP2 MSTORE PUSH1 0x40 SWAP1 KECCAK256 DUP1 SLOAD PUSH1 0x1 DUP3 ADD SLOAD PUSH1 0x2 DUP4 ADD DUP1 SLOAD PUSH1 0x1 PUSH1 0x1 PUSH1 0xA0 SHL SUB SWAP1 SWAP4 AND SWAP4 SWAP2 SWAP3 PUSH2 0xD0A SWAP1 PUSH2 0x33EB JUMP JUMPDEST PUSH1 0x0 SLOAD PUSH1 0x1 PUSH1 0x1 PUSH1 0xA0 SHL SUB AND CALLER EQ PUSH2 0x1295 JUMPI PUSH1 0x40 MLOAD PUSH3 0x461BCD PUSH1 0xE5 SHL DUP2 MSTORE PUSH1 0x4 ADD PUSH2 0x6DF SWAP1 PUSH2 0x33AA JUMP JUMPDEST PUSH1 0x0 DUP3 GT DUP1 ISZERO PUSH2 0x12A7 JUMPI POP PUSH1 0x1 SLOAD DUP3 GT ISZERO JUMPDEST PUSH2 0x12C3 JUMPI PUSH1 0x40 MLOAD PUSH3 0x461BCD PUSH1 0xE5 SHL DUP2 MSTORE PUSH1 0x4 ADD PUSH2 0x6DF SWAP1 PUSH2 0x3338 JUMP JUMPDEST PUSH1 0x0 DUP3 DUP2 MSTORE PUSH1 0x7 PUSH1 0x20 MSTORE PUSH1 0x40 SWAP1 KECCAK256 PUSH1 0x3 ADD DUP2 SWAP1 SSTORE PUSH2 0x12E0 DUP3 PUSH2 0x295B JUMP JUMPDEST POP POP JUMP JUMPDEST PUSH1 0x0 SLOAD PUSH1 0x1 PUSH1 0x1 PUSH1 0xA0 SHL SUB AND CALLER EQ PUSH2 0x130E JUMPI PUSH1 0x40 MLOAD PUSH3 0x461BCD PUSH1 0xE5 SHL DUP2 MSTORE PUSH1 0x4 ADD PUSH2 0x6DF SWAP1 PUSH2 0x33AA JUMP JUMPDEST PUSH1 0x3 DUP1 SLOAD SWAP1 PUSH1 0x0 PUSH2 0x131E DUP4 PUSH2 0x341F JUMP JUMPDEST SWAP1 SWAP2 SSTORE POP POP PUSH1 0x40 DUP1 MLOAD PUSH1 0x80 DUP2 ADD DUP3 MSTORE PUSH1 0x1 PUSH1 0x1 PUSH1 0xA0 SHL SUB DUP6 DUP2 AND DUP3 MSTORE PUSH1 0x3 SLOAD PUSH1 0x20 DUP1 DUP5 ADD DUP3 DUP2 MSTORE DUP5 DUP7 ADD DUP9 DUP2 MSTORE PUSH1 0x60 DUP7 ADD DUP9 SWAP1 MSTORE PUSH1 0x0 SWAP4 DUP5 MSTORE PUSH1 0x9 SWAP1 SWAP3 MSTORE SWAP5 SWAP1 SWAP2 KECCAK256 DUP4 MLOAD DUP2 SLOAD PUSH1 0x1 PUSH1 0x1 PUSH1 0xA0 SHL SUB NOT AND SWAP4 AND SWAP3 SWAP1 SWAP3 OR DUP3 SSTORE SWAP3 MLOAD PUSH1 0x1 DUP3 ADD SSTORE SWAP2 MLOAD SWAP1 SWAP2 SWAP1 PUSH1 0x2 DUP3 ADD SWAP1 PUSH2 0xCC3 SWAP1 DUP3 PUSH2 0x3487 JUMP JUMPDEST PUSH1 0x0 SLOAD PUSH1 0x1 PUSH1 0x1 PUSH1 0xA0 SHL SUB AND CALLER EQ PUSH2 0x13BB JUMPI PUSH1 0x40 MLOAD PUSH3 0x461BCD PUSH1 0xE5 SHL DUP2 MSTORE PUSH1 0x4 ADD PUSH2 0x6DF SWAP1 PUSH2 0x33AA JUMP JUMPDEST PUSH1 0x1 PUSH1 0x1 PUSH1 0xA0 SHL SUB AND PUSH1 0x0 SWAP1 DUP2 MSTORE PUSH1 0xE PUSH1 0x20 MSTORE PUSH1 0x40 SWAP1 KECCAK256 DUP1 SLOAD PUSH1 0xFF NOT AND PUSH1 0x1 OR SWAP1 SSTORE JUMP JUMPDEST PUSH1 0x60 DUP1 DUP1 DUP1 PUSH1 0x0 PUSH1 0x1 JUMPDEST PUSH1 0x6 SLOAD DUP2 GT PUSH2 0x146B JUMPI PUSH1 0x0 DUP2 DUP2 MSTORE PUSH1 0xD PUSH1 0x20 MSTORE PUSH1 0x40 DUP2 KECCAK256 SWAP1 JUMPDEST DUP2 SLOAD DUP2 LT ISZERO PUSH2 0x1456 JUMPI DUP2 DUP2 DUP2 SLOAD DUP2 LT PUSH2 0x141D JUMPI PUSH2 0x141D PUSH2 0x3365 JUMP JUMPDEST SWAP1 PUSH1 0x0 MSTORE PUSH1 0x20 PUSH1 0x0 KECCAK256 SWAP1 PUSH1 0x4 MUL ADD PUSH1 0x3 ADD PUSH1 0x1 SWAP1 SLOAD SWAP1 PUSH2 0x100 EXP SWAP1 DIV PUSH1 0xFF AND PUSH2 0x144E JUMPI DUP4 PUSH2 0x144A DUP2 PUSH2 0x341F JUMP JUMPDEST SWAP5 POP POP JUMPDEST PUSH1 0x1 ADD PUSH2 0x1402 JUMP JUMPDEST POP POP DUP1 DUP1 PUSH2 0x1463 SWAP1 PUSH2 0x341F JUMP JUMPDEST SWAP2 POP POP PUSH2 0x13E9 JUMP JUMPDEST POP DUP1 PUSH1 0x1 PUSH1 0x1 PUSH1 0x40 SHL SUB DUP2 GT ISZERO PUSH2 0x1484 JUMPI PUSH2 0x1484 PUSH2 0x2E09 JUMP JUMPDEST PUSH1 0x40 MLOAD SWAP1 DUP1 DUP3 MSTORE DUP1 PUSH1 0x20 MUL PUSH1 0x20 ADD DUP3 ADD PUSH1 0x40 MSTORE DUP1 ISZERO PUSH2 0x14AD JUMPI DUP2 PUSH1 0x20 ADD PUSH1 0x20 DUP3 MUL DUP1 CALLDATASIZE DUP4 CALLDATACOPY ADD SWAP1 POP JUMPDEST POP SWAP5 POP DUP1 PUSH1 0x1 PUSH1 0x1 PUSH1 0x40 SHL SUB DUP2 GT ISZERO PUSH2 0x14C8 JUMPI PUSH2 0x14C8 PUSH2 0x2E09 JUMP JUMPDEST PUSH1 0x40 MLOAD SWAP1 DUP1 DUP3 MSTORE DUP1 PUSH1 0x20 MUL PUSH1 0x20 ADD DUP3 ADD PUSH1 0x40 MSTORE DUP1 ISZERO PUSH2 0x14F1 JUMPI DUP2 PUSH1 0x20 ADD PUSH1 0x20 DUP3 MUL DUP1 CALLDATASIZE DUP4 CALLDATACOPY ADD SWAP1 POP JUMPDEST POP SWAP4 POP DUP1 PUSH1 0x1 PUSH1 0x1 PUSH1 0x40 SHL SUB DUP2 GT ISZERO PUSH2 0x150C JUMPI PUSH2 0x150C PUSH2 0x2E09 JUMP JUMPDEST PUSH1 0x40 MLOAD SWAP1 DUP1 DUP3 MSTORE DUP1 PUSH1 0x20 MUL PUSH1 0x20 ADD DUP3 ADD PUSH1 0x40 MSTORE DUP1 ISZERO PUSH2 0x1535 JUMPI DUP2 PUSH1 0x20 ADD PUSH1 0x20 DUP3 MUL DUP1 CALLDATASIZE DUP4 CALLDATACOPY ADD SWAP1 POP JUMPDEST POP SWAP3 POP DUP1 PUSH1 0x1 PUSH1 0x1 PUSH1 0x40 SHL SUB DUP2 GT ISZERO PUSH2 0x1550 JUMPI PUSH2 0x1550 PUSH2 0x2E09 JUMP JUMPDEST PUSH1 0x40 MLOAD SWAP1 DUP1 DUP3 MSTORE DUP1 PUSH1 0x20 MUL PUSH1 0x20 ADD DUP3 ADD PUSH1 0x40 MSTORE DUP1 ISZERO PUSH2 0x1579 JUMPI DUP2 PUSH1 0x20 ADD PUSH1 0x20 DUP3 MUL DUP1 CALLDATASIZE DUP4 CALLDATACOPY ADD SWAP1 POP JUMPDEST POP SWAP2 POP PUSH1 0x0 PUSH1 0x1 JUMPDEST PUSH1 0x6 SLOAD DUP2 GT PUSH2 0x171C JUMPI PUSH1 0x0 DUP2 DUP2 MSTORE PUSH1 0xD PUSH1 0x20 MSTORE PUSH1 0x40 DUP2 KECCAK256 SWAP1 JUMPDEST DUP2 SLOAD DUP2 LT ISZERO PUSH2 0x1707 JUMPI DUP2 DUP2 DUP2 SLOAD DUP2 LT PUSH2 0x15B5 JUMPI PUSH2 0x15B5 PUSH2 0x3365 JUMP JUMPDEST SWAP1 PUSH1 0x0 MSTORE PUSH1 0x20 PUSH1 0x0 KECCAK256 SWAP1 PUSH1 0x4 MUL ADD PUSH1 0x3 ADD PUSH1 0x1 SWAP1 SLOAD SWAP1 PUSH2 0x100 EXP SWAP1 DIV PUSH1 0xFF AND PUSH2 0x16FF JUMPI DUP2 DUP2 DUP2 SLOAD DUP2 LT PUSH2 0x15EA JUMPI PUSH2 0x15EA PUSH2 0x3365 JUMP JUMPDEST SWAP1 PUSH1 0x0 MSTORE PUSH1 0x20 PUSH1 0x0 KECCAK256 SWAP1 PUSH1 0x4 MUL ADD PUSH1 0x0 ADD SLOAD DUP10 DUP6 DUP2 MLOAD DUP2 LT PUSH2 0x160E JUMPI PUSH2 0x160E PUSH2 0x3365 JUMP JUMPDEST PUSH1 0x20 MUL PUSH1 0x20 ADD ADD DUP2 DUP2 MSTORE POP POP DUP2 DUP2 DUP2 SLOAD DUP2 LT PUSH2 0x162C JUMPI PUSH2 0x162C PUSH2 0x3365 JUMP JUMPDEST SWAP1 PUSH1 0x0 MSTORE PUSH1 0x20 PUSH1 0x0 KECCAK256 SWAP1 PUSH1 0x4 MUL ADD PUSH1 0x1 ADD SLOAD DUP9 DUP6 DUP2 MLOAD DUP2 LT PUSH2 0x1650 JUMPI PUSH2 0x1650 PUSH2 0x3365 JUMP JUMPDEST PUSH1 0x20 MUL PUSH1 0x20 ADD ADD DUP2 DUP2 MSTORE POP POP DUP2 DUP2 DUP2 SLOAD DUP2 LT PUSH2 0x166E JUMPI PUSH2 0x166E PUSH2 0x3365 JUMP JUMPDEST SWAP1 PUSH1 0x0 MSTORE PUSH1 0x20 PUSH1 0x0 KECCAK256 SWAP1 PUSH1 0x4 MUL ADD PUSH1 0x2 ADD SLOAD DUP8 DUP6 DUP2 MLOAD DUP2 LT PUSH2 0x1692 JUMPI PUSH2 0x1692 PUSH2 0x3365 JUMP JUMPDEST PUSH1 0x20 MUL PUSH1 0x20 ADD ADD DUP2 DUP2 MSTORE POP POP DUP2 DUP2 DUP2 SLOAD DUP2 LT PUSH2 0x16B0 JUMPI PUSH2 0x16B0 PUSH2 0x3365 JUMP JUMPDEST SWAP1 PUSH1 0x0 MSTORE PUSH1 0x20 PUSH1 0x0 KECCAK256 SWAP1 PUSH1 0x4 MUL ADD PUSH1 0x3 ADD PUSH1 0x0 SWAP1 SLOAD SWAP1 PUSH2 0x100 EXP SWAP1 DIV PUSH1 0xFF AND DUP7 DUP6 DUP2 MLOAD DUP2 LT PUSH2 0x16E1 JUMPI PUSH2 0x16E1 PUSH2 0x3365 JUMP JUMPDEST SWAP2 ISZERO ISZERO PUSH1 0x20 SWAP3 DUP4 MUL SWAP2 SWAP1 SWAP2 ADD SWAP1 SWAP2 ADD MSTORE DUP4 PUSH2 0x16FB DUP2 PUSH2 0x341F JUMP JUMPDEST SWAP5 POP POP JUMPDEST PUSH1 0x1 ADD PUSH2 0x159A JUMP JUMPDEST POP POP DUP1 DUP1 PUSH2 0x1714 SWAP1 PUSH2 0x341F JUMP JUMPDEST SWAP2 POP POP PUSH2 0x1581 JUMP JUMPDEST POP POP POP SWAP1 SWAP2 SWAP3 SWAP4 JUMP JUMPDEST PUSH1 0xC PUSH1 0x20 MSTORE PUSH1 0x0 SWAP1 DUP2 MSTORE PUSH1 0x40 SWAP1 KECCAK256 DUP1 SLOAD PUSH1 0x1 DUP3 ADD DUP1 SLOAD SWAP2 SWAP3 SWAP2 PUSH2 0x1747 SWAP1 PUSH2 0x33EB JUMP JUMPDEST DUP1 PUSH1 0x1F ADD PUSH1 0x20 DUP1 SWAP2 DIV MUL PUSH1 0x20 ADD PUSH1 0x40 MLOAD SWAP1 DUP2 ADD PUSH1 0x40 MSTORE DUP1 SWAP3 SWAP2 SWAP1 DUP2 DUP2 MSTORE PUSH1 0x20 ADD DUP3 DUP1 SLOAD PUSH2 0x1773 SWAP1 PUSH2 0x33EB JUMP JUMPDEST DUP1 ISZERO PUSH2 0x17C0 JUMPI DUP1 PUSH1 0x1F LT PUSH2 0x1795 JUMPI PUSH2 0x100 DUP1 DUP4 SLOAD DIV MUL DUP4 MSTORE SWAP2 PUSH1 0x20 ADD SWAP2 PUSH2 0x17C0 JUMP JUMPDEST DUP3 ADD SWAP2 SWAP1 PUSH1 0x0 MSTORE PUSH1 0x20 PUSH1 0x0 KECCAK256 SWAP1 JUMPDEST DUP2 SLOAD DUP2 MSTORE SWAP1 PUSH1 0x1 ADD SWAP1 PUSH1 0x20 ADD DUP1 DUP4 GT PUSH2 0x17A3 JUMPI DUP3 SWAP1 SUB PUSH1 0x1F AND DUP3 ADD SWAP2 JUMPDEST POP POP POP POP POP SWAP1 DUP1 PUSH1 0x2 ADD DUP1 SLOAD PUSH2 0x17D5 SWAP1 PUSH2 0x33EB JUMP JUMPDEST DUP1 PUSH1 0x1F ADD PUSH1 0x20 DUP1 SWAP2 DIV MUL PUSH1 0x20 ADD PUSH1 0x40 MLOAD SWAP1 DUP2 ADD PUSH1 0x40 MSTORE DUP1 SWAP3 SWAP2 SWAP1 DUP2 DUP2 MSTORE PUSH1 0x20 ADD DUP3 DUP1 SLOAD PUSH2 0x1801 SWAP1 PUSH2 0x33EB JUMP JUMPDEST DUP1 ISZERO PUSH2 0x184E JUMPI DUP1 PUSH1 0x1F LT PUSH2 0x1823 JUMPI PUSH2 0x100 DUP1 DUP4 SLOAD DIV MUL DUP4 MSTORE SWAP2 PUSH1 0x20 ADD SWAP2 PUSH2 0x184E JUMP JUMPDEST DUP3 ADD SWAP2 SWAP1 PUSH1 0x0 MSTORE PUSH1 0x20 PUSH1 0x0 KECCAK256 SWAP1 JUMPDEST DUP2 SLOAD DUP2 MSTORE SWAP1 PUSH1 0x1 ADD SWAP1 PUSH1 0x20 ADD DUP1 DUP4 GT PUSH2 0x1831 JUMPI DUP3 SWAP1 SUB PUSH1 0x1F AND DUP3 ADD SWAP2 JUMPDEST POP POP POP PUSH1 0x3 SWAP1 SWAP4 ADD SLOAD SWAP2 SWAP3 POP POP PUSH1 0x1 PUSH1 0x1 PUSH1 0xA0 SHL SUB AND DUP5 JUMP JUMPDEST PUSH1 0x0 SLOAD PUSH1 0x1 PUSH1 0x1 PUSH1 0xA0 SHL SUB AND CALLER EQ PUSH2 0x1891 JUMPI PUSH1 0x40 MLOAD PUSH3 0x461BCD PUSH1 0xE5 SHL DUP2 MSTORE PUSH1 0x4 ADD PUSH2 0x6DF SWAP1 PUSH2 0x33AA JUMP JUMPDEST PUSH1 0x5 DUP1 SLOAD SWAP1 PUSH1 0x0 PUSH2 0x18A1 DUP4 PUSH2 0x341F JUMP JUMPDEST SWAP1 SWAP2 SSTORE POP POP PUSH1 0x40 DUP1 MLOAD PUSH1 0x80 DUP2 ADD DUP3 MSTORE PUSH1 0x1 PUSH1 0x1 PUSH1 0xA0 SHL SUB DUP6 DUP2 AND DUP3 MSTORE PUSH1 0x5 SLOAD PUSH1 0x20 DUP1 DUP5 ADD DUP3 DUP2 MSTORE DUP5 DUP7 ADD DUP9 DUP2 MSTORE PUSH1 0x60 DUP7 ADD DUP9 SWAP1 MSTORE PUSH1 0x0 SWAP4 DUP5 MSTORE PUSH1 0xB SWAP1 SWAP3 MSTORE SWAP5 SWAP1 SWAP2 KECCAK256 DUP4 MLOAD DUP2 SLOAD PUSH1 0x1 PUSH1 0x1 PUSH1 0xA0 SHL SUB NOT AND SWAP4 AND SWAP3 SWAP1 SWAP3 OR DUP3 SSTORE SWAP3 MLOAD PUSH1 0x1 DUP3 ADD SSTORE SWAP2 MLOAD SWAP1 SWAP2 SWAP1 PUSH1 0x2 DUP3 ADD SWAP1 PUSH2 0xCC3 SWAP1 DUP3 PUSH2 0x3487 JUMP JUMPDEST PUSH1 0x0 DUP2 GT DUP1 ISZERO PUSH2 0x1926 JUMPI POP PUSH1 0x1 SLOAD DUP2 GT ISZERO JUMPDEST PUSH2 0x1942 JUMPI PUSH1 0x40 MLOAD PUSH3 0x461BCD PUSH1 0xE5 SHL DUP2 MSTORE PUSH1 0x4 ADD PUSH2 0x6DF SWAP1 PUSH2 0x3338 JUMP JUMPDEST PUSH1 0x0 PUSH2 0x194D CALLER PUSH2 0x2B7F JUMP JUMPDEST SWAP1 POP PUSH1 0x0 DUP2 GT PUSH2 0x198F JUMPI PUSH1 0x40 MLOAD PUSH3 0x461BCD PUSH1 0xE5 SHL DUP2 MSTORE PUSH1 0x20 PUSH1 0x4 DUP3 ADD MSTORE PUSH1 0xD PUSH1 0x24 DUP3 ADD MSTORE PUSH13 0x149354C81B9BDD08199BDD5B99 PUSH1 0x9A SHL PUSH1 0x44 DUP3 ADD MSTORE PUSH1 0x64 ADD PUSH2 0x6DF JUMP JUMPDEST PUSH1 0x0 DUP3 DUP2 MSTORE PUSH1 0x7 PUSH1 0x20 DUP2 SWAP1 MSTORE PUSH1 0x40 DUP3 KECCAK256 PUSH1 0xB ADD SLOAD PUSH1 0xFF AND SWAP1 DUP2 GT ISZERO PUSH2 0x19B6 JUMPI PUSH2 0x19B6 PUSH2 0x31CC JUMP JUMPDEST EQ PUSH2 0x19D3 JUMPI PUSH1 0x40 MLOAD PUSH3 0x461BCD PUSH1 0xE5 SHL DUP2 MSTORE PUSH1 0x4 ADD PUSH2 0x6DF SWAP1 PUSH2 0x3545 JUMP JUMPDEST PUSH1 0x0 DUP3 DUP2 MSTORE PUSH1 0x7 PUSH1 0x20 DUP2 SWAP1 MSTORE PUSH1 0x40 SWAP1 SWAP2 KECCAK256 SWAP1 DUP2 ADD DUP3 SWAP1 SSTORE PUSH1 0xB DUP2 ADD DUP1 SLOAD PUSH1 0xFF NOT AND PUSH1 0x1 SWAP1 DUP2 OR SWAP1 SWAP2 SSTORE TIMESTAMP SWAP2 PUSH1 0xC ADD SWAP1 PUSH2 0xFBE JUMP JUMPDEST PUSH1 0x60 PUSH1 0x0 DUP3 GT DUP1 ISZERO PUSH2 0x1A1B JUMPI POP PUSH1 0x1 SLOAD DUP3 GT ISZERO JUMPDEST PUSH2 0x1A37 JUMPI PUSH1 0x40 MLOAD PUSH3 0x461BCD PUSH1 0xE5 SHL DUP2 MSTORE PUSH1 0x4 ADD PUSH2 0x6DF SWAP1 PUSH2 0x3338 JUMP JUMPDEST PUSH1 0x0 DUP3 DUP2 MSTORE PUSH1 0x7 PUSH1 0x20 MSTORE PUSH1 0x40 SWAP1 DUP2 SWAP1 KECCAK256 DUP2 MLOAD PUSH1 0x8 DUP1 DUP3 MSTORE PUSH2 0x120 DUP3 ADD SWAP1 SWAP4 MSTORE SWAP1 SWAP2 SWAP1 DUP2 DUP2 PUSH1 0x20 ADD PUSH1 0x20 DUP3 MUL DUP1 CALLDATASIZE DUP4 CALLDATACOPY ADD SWAP1 POP POP SWAP3 POP PUSH1 0x1 JUMPDEST DUP2 DUP2 LT ISZERO PUSH2 0x1B59 JUMPI PUSH1 0x0 DUP4 PUSH1 0xC ADD DUP3 DUP2 SLOAD DUP2 LT PUSH2 0x1A8E JUMPI PUSH2 0x1A8E PUSH2 0x3365 JUMP JUMPDEST SWAP1 PUSH1 0x0 MSTORE PUSH1 0x20 PUSH1 0x0 KECCAK256 ADD SLOAD GT DUP1 ISZERO PUSH2 0x1ACF JUMPI POP PUSH1 0x0 PUSH1 0xC DUP5 ADD PUSH2 0x1AB2 PUSH1 0x1 DUP5 PUSH2 0x3391 JUMP JUMPDEST DUP2 SLOAD DUP2 LT PUSH2 0x1AC2 JUMPI PUSH2 0x1AC2 PUSH2 0x3365 JUMP JUMPDEST SWAP1 PUSH1 0x0 MSTORE PUSH1 0x20 PUSH1 0x0 KECCAK256 ADD SLOAD GT JUMPDEST ISZERO PUSH2 0x1B51 JUMPI PUSH1 0xC DUP4 ADD PUSH2 0x1AE3 PUSH1 0x1 DUP4 PUSH2 0x3391 JUMP JUMPDEST DUP2 SLOAD DUP2 LT PUSH2 0x1AF3 JUMPI PUSH2 0x1AF3 PUSH2 0x3365 JUMP JUMPDEST SWAP1 PUSH1 0x0 MSTORE PUSH1 0x20 PUSH1 0x0 KECCAK256 ADD SLOAD DUP4 PUSH1 0xC ADD DUP3 DUP2 SLOAD DUP2 LT PUSH2 0x1B13 JUMPI PUSH2 0x1B13 PUSH2 0x3365 JUMP JUMPDEST SWAP1 PUSH1 0x0 MSTORE PUSH1 0x20 PUSH1 0x0 KECCAK256 ADD SLOAD PUSH2 0x1B28 SWAP2 SWAP1 PUSH2 0x3391 JUMP JUMPDEST DUP5 PUSH2 0x1B34 PUSH1 0x1 DUP5 PUSH2 0x3391 JUMP JUMPDEST DUP2 MLOAD DUP2 LT PUSH2 0x1B44 JUMPI PUSH2 0x1B44 PUSH2 0x3365 JUMP JUMPDEST PUSH1 0x20 MUL PUSH1 0x20 ADD ADD DUP2 DUP2 MSTORE POP POP JUMPDEST PUSH1 0x1 ADD PUSH2 0x1A6F JUMP JUMPDEST POP POP POP SWAP2 SWAP1 POP JUMP JUMPDEST PUSH1 0x0 DUP2 GT DUP1 ISZERO PUSH2 0x1B73 JUMPI POP PUSH1 0x1 SLOAD DUP2 GT ISZERO JUMPDEST PUSH2 0x1B8F JUMPI PUSH1 0x40 MLOAD PUSH3 0x461BCD PUSH1 0xE5 SHL DUP2 MSTORE PUSH1 0x4 ADD PUSH2 0x6DF SWAP1 PUSH2 0x3338 JUMP JUMPDEST PUSH1 0x0 PUSH2 0x1B9A CALLER PUSH2 0x2A32 JUMP JUMPDEST SWAP1 POP PUSH1 0x0 DUP2 GT PUSH2 0x1BE1 JUMPI PUSH1 0x40 MLOAD PUSH3 0x461BCD PUSH1 0xE5 SHL DUP2 MSTORE PUSH1 0x20 PUSH1 0x4 DUP3 ADD MSTORE PUSH1 0x12 PUSH1 0x24 DUP3 ADD MSTORE PUSH18 0x14995D185A5B195C881B9BDD08199BDD5B99 PUSH1 0x72 SHL PUSH1 0x44 DUP3 ADD MSTORE PUSH1 0x64 ADD PUSH2 0x6DF JUMP JUMPDEST PUSH1 0x0 DUP3 DUP2 MSTORE PUSH1 0x7 PUSH1 0x20 MSTORE PUSH1 0x40 SWAP1 KECCAK256 PUSH1 0xA ADD SLOAD DUP2 EQ PUSH2 0x1C50 JUMPI PUSH1 0x40 MLOAD PUSH3 0x461BCD PUSH1 0xE5 SHL DUP2 MSTORE PUSH1 0x20 PUSH1 0x4 DUP3 ADD MSTORE PUSH1 0x26 PUSH1 0x24 DUP3 ADD MSTORE PUSH32 0x4F6E6C7920636F72726563742072657461696C65722063616E206D61726B2061 PUSH1 0x44 DUP3 ADD MSTORE PUSH6 0x1CC81CDBDB19 PUSH1 0xD2 SHL PUSH1 0x64 DUP3 ADD MSTORE PUSH1 0x84 ADD PUSH2 0x6DF JUMP JUMPDEST PUSH1 0x4 PUSH1 0x0 DUP4 DUP2 MSTORE PUSH1 0x7 PUSH1 0x20 DUP2 SWAP1 MSTORE PUSH1 0x40 SWAP1 SWAP2 KECCAK256 PUSH1 0xB ADD SLOAD PUSH1 0xFF AND SWAP1 DUP2 GT ISZERO PUSH2 0x1C7A JUMPI PUSH2 0x1C7A PUSH2 0x31CC JUMP JUMPDEST EQ PUSH2 0x1C97 JUMPI PUSH1 0x40 MLOAD PUSH3 0x461BCD PUSH1 0xE5 SHL DUP2 MSTORE PUSH1 0x4 ADD PUSH2 0x6DF SWAP1 PUSH2 0x3545 JUMP JUMPDEST PUSH1 0x0 DUP3 DUP2 MSTORE PUSH1 0x7 PUSH1 0x20 MSTORE PUSH1 0x40 SWAP1 KECCAK256 PUSH1 0xB DUP2 ADD DUP1 SLOAD PUSH1 0xFF NOT AND PUSH1 0x5 SWAP1 DUP2 OR SWAP1 SWAP2 SSTORE TIMESTAMP SWAP2 PUSH1 0xC ADD SWAP1 PUSH2 0xFBE JUMP JUMPDEST PUSH1 0x0 SLOAD PUSH1 0x1 PUSH1 0x1 PUSH1 0xA0 SHL SUB AND CALLER EQ PUSH2 0x1CEC JUMPI PUSH1 0x40 MLOAD PUSH3 0x461BCD PUSH1 0xE5 SHL DUP2 MSTORE PUSH1 0x4 ADD PUSH2 0x6DF SWAP1 PUSH2 0x33AA JUMP JUMPDEST PUSH1 0x0 DUP2 GT DUP1 ISZERO PUSH2 0x1CFE JUMPI POP PUSH1 0x1 SLOAD DUP2 GT ISZERO JUMPDEST PUSH2 0x1D1A JUMPI PUSH1 0x40 MLOAD PUSH3 0x461BCD PUSH1 0xE5 SHL DUP2 MSTORE PUSH1 0x4 ADD PUSH2 0x6DF SWAP1 PUSH2 0x3338 JUMP JUMPDEST PUSH1 0x0 DUP2 DUP2 MSTORE PUSH1 0x7 PUSH1 0x20 DUP2 SWAP1 MSTORE PUSH1 0x40 SWAP1 SWAP2 KECCAK256 PUSH1 0xB DUP2 ADD DUP1 SLOAD PUSH1 0xFF NOT AND DUP4 OR SWAP1 SSTORE PUSH1 0xC DUP2 ADD DUP1 SLOAD SWAP2 SWAP3 TIMESTAMP SWAP3 DUP2 LT PUSH2 0x1D51 JUMPI PUSH2 0x1D51 PUSH2 0x3365 JUMP JUMPDEST PUSH1 0x0 SWAP2 DUP3 MSTORE PUSH1 0x20 DUP3 KECCAK256 ADD SWAP2 SWAP1 SWAP2 SSTORE PUSH1 0x3 DUP3 ADD DUP2 SWAP1 SSTORE PUSH1 0x40 MLOAD DUP4 SWAP2 PUSH32 0x70292049D8EDE2B2BF911DEA7441F0F33D0ED181D463899AC8ED3EDA71D61604 SWAP2 LOG2 POP POP JUMP JUMPDEST PUSH1 0x0 DUP2 GT DUP1 ISZERO PUSH2 0x1DA4 JUMPI POP PUSH1 0x1 SLOAD DUP2 GT ISZERO JUMPDEST PUSH2 0x1DC0 JUMPI PUSH1 0x40 MLOAD PUSH3 0x461BCD PUSH1 0xE5 SHL DUP2 MSTORE PUSH1 0x4 ADD PUSH2 0x6DF SWAP1 PUSH2 0x3338 JUMP JUMPDEST PUSH1 0x0 PUSH2 0x1DCB CALLER PUSH2 0x2C1C JUMP JUMPDEST SWAP1 POP PUSH1 0x0 DUP2 GT PUSH2 0x1E16 JUMPI PUSH1 0x40 MLOAD PUSH3 0x461BCD PUSH1 0xE5 SHL DUP2 MSTORE PUSH1 0x20 PUSH1 0x4 DUP3 ADD MSTORE PUSH1 0x16 PUSH1 0x24 DUP3 ADD MSTORE PUSH22 0x13585B9D599858DD1D5C995C881B9BDD08199BDD5B99 PUSH1 0x52 SHL PUSH1 0x44 DUP3 ADD MSTORE PUSH1 0x64 ADD PUSH2 0x6DF JUMP JUMPDEST PUSH1 0x1 PUSH1 0x0 DUP4 DUP2 MSTORE PUSH1 0x7 PUSH1 0x20 DUP2 SWAP1 MSTORE PUSH1 0x40 SWAP1 SWAP2 KECCAK256 PUSH1 0xB ADD SLOAD PUSH1 0xFF AND SWAP1 DUP2 GT ISZERO PUSH2 0x1E40 JUMPI PUSH2 0x1E40 PUSH2 0x31CC JUMP JUMPDEST EQ PUSH2 0x1E5D JUMPI PUSH1 0x40 MLOAD PUSH3 0x461BCD PUSH1 0xE5 SHL DUP2 MSTORE PUSH1 0x4 ADD PUSH2 0x6DF SWAP1 PUSH2 0x3545 JUMP JUMPDEST PUSH1 0x0 DUP3 DUP2 MSTORE PUSH1 0x7 PUSH1 0x20 MSTORE PUSH1 0x40 SWAP1 KECCAK256 PUSH1 0x8 DUP2 ADD DUP3 SWAP1 SSTORE PUSH1 0xB DUP2 ADD DUP1 SLOAD PUSH1 0xFF NOT AND PUSH1 0x2 SWAP1 DUP2 OR SWAP1 SWAP2 SSTORE TIMESTAMP SWAP2 PUSH1 0xC ADD SWAP1 PUSH2 0xFBE JUMP JUMPDEST PUSH1 0x0 DUP5 DUP2 MSTORE PUSH1 0xC PUSH1 0x20 MSTORE PUSH1 0x40 SWAP1 KECCAK256 PUSH1 0x3 ADD SLOAD PUSH1 0x1 PUSH1 0x1 PUSH1 0xA0 SHL SUB AND CALLER EQ PUSH2 0x1F10 JUMPI PUSH1 0x40 MLOAD PUSH3 0x461BCD PUSH1 0xE5 SHL DUP2 MSTORE PUSH1 0x20 PUSH1 0x4 DUP3 ADD MSTORE PUSH1 0x2F PUSH1 0x24 DUP3 ADD MSTORE PUSH32 0x4F6E6C79207265676973746572656420686F73706974616C732063616E207265 PUSH1 0x44 DUP3 ADD MSTORE PUSH15 0x7175657374206D65646963696E6573 PUSH1 0x88 SHL PUSH1 0x64 DUP3 ADD MSTORE PUSH1 0x84 ADD PUSH2 0x6DF JUMP JUMPDEST PUSH1 0x0 DUP5 DUP2 MSTORE PUSH1 0xD PUSH1 0x20 SWAP1 DUP2 MSTORE PUSH1 0x40 DUP1 DUP4 KECCAK256 DUP2 MLOAD PUSH1 0xA0 DUP2 ADD DUP4 MSTORE DUP9 DUP2 MSTORE DUP1 DUP5 ADD DUP9 DUP2 MSTORE DUP2 DUP5 ADD DUP9 DUP2 MSTORE DUP8 ISZERO ISZERO PUSH1 0x60 DUP1 DUP6 ADD DUP3 DUP2 MSTORE PUSH1 0x80 DUP1 DUP8 ADD DUP12 DUP2 MSTORE DUP9 SLOAD PUSH1 0x1 DUP1 DUP3 ADD DUP12 SSTORE SWAP10 DUP14 MSTORE SWAP12 DUP12 SWAP1 KECCAK256 SWAP8 MLOAD PUSH1 0x4 SWAP1 SWAP13 MUL SWAP1 SWAP8 ADD SWAP11 DUP12 SSTORE SWAP5 MLOAD SWAP7 DUP11 ADD SWAP7 SWAP1 SWAP7 SSTORE SWAP2 MLOAD PUSH1 0x2 DUP10 ADD SSTORE SWAP4 MLOAD PUSH1 0x3 SWAP1 SWAP8 ADD DUP1 SLOAD SWAP4 MLOAD PUSH2 0xFFFF NOT SWAP1 SWAP5 AND SWAP8 ISZERO ISZERO PUSH2 0xFF00 NOT AND SWAP8 SWAP1 SWAP8 OR PUSH2 0x100 SWAP4 ISZERO ISZERO SWAP4 SWAP1 SWAP4 MUL SWAP3 SWAP1 SWAP3 OR SWAP1 SWAP6 SSTORE DUP3 MLOAD DUP10 DUP2 MSTORE SWAP4 DUP5 ADD DUP9 SWAP1 MSTORE SWAP2 DUP4 ADD DUP7 SWAP1 MSTORE SWAP1 DUP3 ADD MSTORE PUSH32 0x49B2C810AE9751EC4B8B6CA8D82A6A9061FDFFD81489292A1D798940471AED89 SWAP2 ADD PUSH1 0x40 MLOAD DUP1 SWAP2 SUB SWAP1 LOG1 POP POP POP POP JUMP JUMPDEST PUSH1 0x9 PUSH1 0x20 MSTORE PUSH1 0x0 SWAP1 DUP2 MSTORE PUSH1 0x40 SWAP1 KECCAK256 DUP1 SLOAD PUSH1 0x1 DUP3 ADD SLOAD PUSH1 0x2 DUP4 ADD DUP1 SLOAD PUSH1 0x1 PUSH1 0x1 PUSH1 0xA0 SHL SUB SWAP1 SWAP4 AND SWAP4 SWAP2 SWAP3 PUSH2 0xD0A SWAP1 PUSH2 0x33EB JUMP JUMPDEST PUSH1 0x60 PUSH1 0xD PUSH1 0x0 DUP4 DUP2 MSTORE PUSH1 0x20 ADD SWAP1 DUP2 MSTORE PUSH1 0x20 ADD PUSH1 0x0 KECCAK256 DUP1 SLOAD DUP1 PUSH1 0x20 MUL PUSH1 0x20 ADD PUSH1 0x40 MLOAD SWAP1 DUP2 ADD PUSH1 0x40 MSTORE DUP1 SWAP3 SWAP2 SWAP1 DUP2 DUP2 MSTORE PUSH1 0x20 ADD PUSH1 0x0 SWAP1 JUMPDEST DUP3 DUP3 LT ISZERO PUSH2 0x20BD JUMPI PUSH1 0x0 DUP5 DUP2 MSTORE PUSH1 0x20 SWAP1 DUP2 SWAP1 KECCAK256 PUSH1 0x40 DUP1 MLOAD PUSH1 0xA0 DUP2 ADD DUP3 MSTORE PUSH1 0x4 DUP7 MUL SWAP1 SWAP3 ADD DUP1 SLOAD DUP4 MSTORE PUSH1 0x1 DUP1 DUP3 ADD SLOAD DUP5 DUP7 ADD MSTORE PUSH1 0x2 DUP3 ADD SLOAD SWAP3 DUP5 ADD SWAP3 SWAP1 SWAP3 MSTORE PUSH1 0x3 ADD SLOAD PUSH1 0xFF DUP1 DUP3 AND ISZERO ISZERO PUSH1 0x60 DUP6 ADD MSTORE PUSH2 0x100 SWAP1 SWAP2 DIV AND ISZERO ISZERO PUSH1 0x80 DUP4 ADD MSTORE SWAP1 DUP4 MSTORE SWAP1 SWAP3 ADD SWAP2 ADD PUSH2 0x2054 JUMP JUMPDEST POP POP POP POP SWAP1 POP SWAP2 SWAP1 POP JUMP JUMPDEST PUSH1 0x0 DUP1 DUP3 GT DUP1 ISZERO PUSH2 0x20DB JUMPI POP PUSH1 0x1 SLOAD DUP3 GT ISZERO JUMPDEST PUSH2 0x20F7 JUMPI PUSH1 0x40 MLOAD PUSH3 0x461BCD PUSH1 0xE5 SHL DUP2 MSTORE PUSH1 0x4 ADD PUSH2 0x6DF SWAP1 PUSH2 0x3338 JUMP JUMPDEST POP PUSH1 0x0 SWAP1 DUP2 MSTORE PUSH1 0x7 PUSH1 0x20 MSTORE PUSH1 0x40 SWAP1 KECCAK256 PUSH1 0x6 ADD SLOAD SWAP1 JUMP JUMPDEST PUSH1 0x1 DUP1 SLOAD PUSH1 0x6 SLOAD SWAP1 SWAP2 PUSH1 0x0 SWAP2 DUP3 SWAP2 DUP3 SWAP2 SWAP1 DUP3 SWAP1 DUP2 SWAP1 JUMPDEST PUSH1 0x1 SLOAD DUP2 GT PUSH2 0x219D JUMPI PUSH1 0x0 DUP2 DUP2 MSTORE PUSH1 0x7 PUSH1 0x20 MSTORE PUSH1 0x40 SWAP1 KECCAK256 PUSH1 0x3 ADD SLOAD PUSH1 0xF SLOAD DUP2 LT ISZERO PUSH2 0x2156 JUMPI DUP8 PUSH2 0x2152 DUP2 PUSH2 0x341F JUMP JUMPDEST SWAP9 POP POP JUMPDEST PUSH1 0x10 SLOAD DUP2 GT ISZERO PUSH2 0x216E JUMPI DUP7 PUSH2 0x216A DUP2 PUSH2 0x341F JUMP JUMPDEST SWAP8 POP POP JUMPDEST PUSH2 0x2177 DUP3 PUSH2 0x2467 JUMP JUMPDEST ISZERO PUSH2 0x218A JUMPI DUP6 PUSH2 0x2186 DUP2 PUSH2 0x341F JUMP JUMPDEST SWAP7 POP POP JUMPDEST POP DUP1 PUSH2 0x2195 DUP2 PUSH2 0x341F JUMP JUMPDEST SWAP2 POP POP PUSH2 0x2123 JUMP JUMPDEST POP PUSH1 0x1 JUMPDEST PUSH1 0x6 SLOAD DUP2 GT PUSH2 0x2233 JUMPI PUSH1 0x0 DUP2 DUP2 MSTORE PUSH1 0xD PUSH1 0x20 MSTORE PUSH1 0x40 SWAP1 KECCAK256 DUP1 SLOAD PUSH2 0x21C4 SWAP1 DUP6 PUSH2 0x357C JUMP JUMPDEST SWAP4 POP PUSH1 0x0 JUMPDEST DUP2 SLOAD DUP2 LT ISZERO PUSH2 0x221E JUMPI DUP2 DUP2 DUP2 SLOAD DUP2 LT PUSH2 0x21E4 JUMPI PUSH2 0x21E4 PUSH2 0x3365 JUMP JUMPDEST SWAP1 PUSH1 0x0 MSTORE PUSH1 0x20 PUSH1 0x0 KECCAK256 SWAP1 PUSH1 0x4 MUL ADD PUSH1 0x3 ADD PUSH1 0x1 SWAP1 SLOAD SWAP1 PUSH2 0x100 EXP SWAP1 DIV PUSH1 0xFF AND ISZERO PUSH2 0x2216 JUMPI DUP4 PUSH2 0x2212 DUP2 PUSH2 0x341F JUMP JUMPDEST SWAP5 POP POP JUMPDEST PUSH1 0x1 ADD PUSH2 0x21C9 JUMP JUMPDEST POP POP DUP1 DUP1 PUSH2 0x222B SWAP1 PUSH2 0x341F JUMP JUMPDEST SWAP2 POP POP PUSH2 0x21A1 JUMP JUMPDEST POP SWAP1 SWAP2 SWAP3 SWAP4 SWAP5 SWAP6 SWAP7 JUMP JUMPDEST PUSH1 0x60 PUSH1 0x0 DUP3 GT DUP1 ISZERO PUSH2 0x2251 JUMPI POP PUSH1 0x1 SLOAD DUP3 GT ISZERO JUMPDEST PUSH2 0x226D JUMPI PUSH1 0x40 MLOAD PUSH3 0x461BCD PUSH1 0xE5 SHL DUP2 MSTORE PUSH1 0x4 ADD PUSH2 0x6DF SWAP1 PUSH2 0x3338 JUMP JUMPDEST PUSH1 0x0 DUP3 DUP2 MSTORE PUSH1 0x7 PUSH1 0x20 MSTORE PUSH1 0x40 DUP2 KECCAK256 PUSH1 0xB ADD SLOAD PUSH1 0xFF AND SWAP1 DUP2 PUSH1 0x7 DUP2 GT ISZERO PUSH2 0x2295 JUMPI PUSH2 0x2295 PUSH2 0x31CC JUMP JUMPDEST SUB PUSH2 0x22C8 JUMPI POP POP PUSH1 0x40 DUP1 MLOAD DUP1 DUP3 ADD SWAP1 SWAP2 MSTORE PUSH1 0x10 DUP2 MSTORE PUSH16 0x1359591A58DA5B994813DC99195C9959 PUSH1 0x82 SHL PUSH1 0x20 DUP3 ADD MSTORE SWAP2 SWAP1 POP JUMP JUMPDEST PUSH1 0x1 DUP2 PUSH1 0x7 DUP2 GT ISZERO PUSH2 0x22DC JUMPI PUSH2 0x22DC PUSH2 0x31CC JUMP JUMPDEST SUB PUSH2 0x231C JUMPI POP POP PUSH1 0x40 DUP1 MLOAD DUP1 DUP3 ADD SWAP1 SWAP2 MSTORE PUSH1 0x19 DUP2 MSTORE PUSH32 0x526177204D6174657269616C20537570706C7920537461676500000000000000 PUSH1 0x20 DUP3 ADD MSTORE SWAP2 SWAP1 POP JUMP JUMPDEST PUSH1 0x2 DUP2 PUSH1 0x7 DUP2 GT ISZERO PUSH2 0x2330 JUMPI PUSH2 0x2330 PUSH2 0x31CC JUMP JUMPDEST SUB PUSH2 0x2366 JUMPI POP POP PUSH1 0x40 DUP1 MLOAD DUP1 DUP3 ADD SWAP1 SWAP2 MSTORE PUSH1 0x13 DUP2 MSTORE PUSH19 0x4D616E75666163747572696E67205374616765 PUSH1 0x68 SHL PUSH1 0x20 DUP3 ADD MSTORE SWAP2 SWAP1 POP JUMP JUMPDEST PUSH1 0x3 DUP2 PUSH1 0x7 DUP2 GT ISZERO PUSH2 0x237A JUMPI PUSH2 0x237A PUSH2 0x31CC JUMP JUMPDEST SUB PUSH2 0x23AF JUMPI POP POP PUSH1 0x40 DUP1 MLOAD DUP1 DUP3 ADD SWAP1 SWAP2 MSTORE PUSH1 0x12 DUP2 MSTORE PUSH18 0x446973747269627574696F6E205374616765 PUSH1 0x70 SHL PUSH1 0x20 DUP3 ADD MSTORE SWAP2 SWAP1 POP JUMP JUMPDEST PUSH1 0x4 DUP2 PUSH1 0x7 DUP2 GT ISZERO PUSH2 0x23C3 JUMPI PUSH2 0x23C3 PUSH2 0x31CC JUMP JUMPDEST SUB PUSH2 0x23F2 JUMPI POP POP PUSH1 0x40 DUP1 MLOAD DUP1 DUP3 ADD SWAP1 SWAP2 MSTORE PUSH1 0xC DUP2 MSTORE PUSH12 0x52657461696C205374616765 PUSH1 0xA0 SHL PUSH1 0x20 DUP3 ADD MSTORE SWAP2 SWAP1 POP JUMP JUMPDEST PUSH1 0x5 DUP2 PUSH1 0x7 DUP2 GT ISZERO PUSH2 0x2406 JUMPI PUSH2 0x2406 PUSH2 0x31CC JUMP JUMPDEST SUB PUSH2 0x2436 JUMPI POP POP PUSH1 0x40 DUP1 MLOAD DUP1 DUP3 ADD SWAP1 SWAP2 MSTORE PUSH1 0xD DUP2 MSTORE PUSH13 0x1359591A58DA5B994814DBDB19 PUSH1 0x9A SHL PUSH1 0x20 DUP3 ADD MSTORE SWAP2 SWAP1 POP JUMP JUMPDEST POP POP PUSH1 0x40 DUP1 MLOAD DUP1 DUP3 ADD SWAP1 SWAP2 MSTORE PUSH1 0xD DUP2 MSTORE PUSH13 0x556E6B6E6F776E205374616765 PUSH1 0x98 SHL PUSH1 0x20 DUP3 ADD MSTORE SWAP2 SWAP1 POP JUMP JUMPDEST POP SWAP2 SWAP1 POP JUMP JUMPDEST PUSH1 0x0 DUP1 DUP3 GT DUP1 ISZERO PUSH2 0x247A JUMPI POP PUSH1 0x1 SLOAD DUP3 GT ISZERO JUMPDEST PUSH2 0x2496 JUMPI PUSH1 0x40 MLOAD PUSH3 0x461BCD PUSH1 0xE5 SHL DUP2 MSTORE PUSH1 0x4 ADD PUSH2 0x6DF SWAP1 PUSH2 0x3338 JUMP JUMPDEST PUSH1 0x0 DUP3 DUP2 MSTORE PUSH1 0x7 PUSH1 0x20 MSTORE PUSH1 0x40 SWAP1 KECCAK256 PUSH1 0x4 ADD SLOAD DUP1 ISZERO DUP1 ISZERO SWAP1 PUSH2 0x24C2 JUMPI POP PUSH2 0x24BF TIMESTAMP PUSH3 0x13C680 PUSH2 0x357C JUMP JUMPDEST DUP2 LT JUMPDEST ISZERO PUSH2 0x24D0 JUMPI POP PUSH1 0x1 SWAP3 SWAP2 POP POP JUMP JUMPDEST POP PUSH1 0x0 SWAP3 SWAP2 POP POP JUMP JUMPDEST PUSH1 0x7 PUSH1 0x20 MSTORE PUSH1 0x0 SWAP1 DUP2 MSTORE PUSH1 0x40 SWAP1 KECCAK256 DUP1 SLOAD PUSH1 0x1 DUP3 ADD DUP1 SLOAD SWAP2 SWAP3 SWAP2 PUSH2 0x24FB SWAP1 PUSH2 0x33EB JUMP JUMPDEST DUP1 PUSH1 0x1F ADD PUSH1 0x20 DUP1 SWAP2 DIV MUL PUSH1 0x20 ADD PUSH1 0x40 MLOAD SWAP1 DUP2 ADD PUSH1 0x40 MSTORE DUP1 SWAP3 SWAP2 SWAP1 DUP2 DUP2 MSTORE PUSH1 0x20 ADD DUP3 DUP1 SLOAD PUSH2 0x2527 SWAP1 PUSH2 0x33EB JUMP JUMPDEST DUP1 ISZERO PUSH2 0x2574 JUMPI DUP1 PUSH1 0x1F LT PUSH2 0x2549 JUMPI PUSH2 0x100 DUP1 DUP4 SLOAD DIV MUL DUP4 MSTORE SWAP2 PUSH1 0x20 ADD SWAP2 PUSH2 0x2574 JUMP JUMPDEST DUP3 ADD SWAP2 SWAP1 PUSH1 0x0 MSTORE PUSH1 0x20 PUSH1 0x0 KECCAK256 SWAP1 JUMPDEST DUP2 SLOAD DUP2 MSTORE SWAP1 PUSH1 0x1 ADD SWAP1 PUSH1 0x20 ADD DUP1 DUP4 GT PUSH2 0x2557 JUMPI DUP3 SWAP1 SUB PUSH1 0x1F AND DUP3 ADD SWAP2 JUMPDEST POP POP POP POP POP SWAP1 DUP1 PUSH1 0x2 ADD DUP1 SLOAD PUSH2 0x2589 SWAP1 PUSH2 0x33EB JUMP JUMPDEST DUP1 PUSH1 0x1F ADD PUSH1 0x20 DUP1 SWAP2 DIV MUL PUSH1 0x20 ADD PUSH1 0x40 MLOAD SWAP1 DUP2 ADD PUSH1 0x40 MSTORE DUP1 SWAP3 SWAP2 SWAP1 DUP2 DUP2 MSTORE PUSH1 0x20 ADD DUP3 DUP1 SLOAD PUSH2 0x25B5 SWAP1 PUSH2 0x33EB JUMP JUMPDEST DUP1 ISZERO PUSH2 0x2602 JUMPI DUP1 PUSH1 0x1F LT PUSH2 0x25D7 JUMPI PUSH2 0x100 DUP1 DUP4 SLOAD DIV MUL DUP4 MSTORE SWAP2 PUSH1 0x20 ADD SWAP2 PUSH2 0x2602 JUMP JUMPDEST DUP3 ADD SWAP2 SWAP1 PUSH1 0x0 MSTORE PUSH1 0x20 PUSH1 0x0 KECCAK256 SWAP1 JUMPDEST DUP2 SLOAD DUP2 MSTORE SWAP1 PUSH1 0x1 ADD SWAP1 PUSH1 0x20 ADD DUP1 DUP4 GT PUSH2 0x25E5 JUMPI DUP3 SWAP1 SUB PUSH1 0x1F AND DUP3 ADD SWAP2 JUMPDEST POP POP POP POP POP SWAP1 DUP1 PUSH1 0x3 ADD SLOAD SWAP1 DUP1 PUSH1 0x4 ADD SLOAD SWAP1 DUP1 PUSH1 0x5 ADD DUP1 SLOAD PUSH2 0x2623 SWAP1 PUSH2 0x33EB JUMP JUMPDEST DUP1 PUSH1 0x1F ADD PUSH1 0x20 DUP1 SWAP2 DIV MUL PUSH1 0x20 ADD PUSH1 0x40 MLOAD SWAP1 DUP2 ADD PUSH1 0x40 MSTORE DUP1 SWAP3 SWAP2 SWAP1 DUP2 DUP2 MSTORE PUSH1 0x20 ADD DUP3 DUP1 SLOAD PUSH2 0x264F SWAP1 PUSH2 0x33EB JUMP JUMPDEST DUP1 ISZERO PUSH2 0x269C JUMPI DUP1 PUSH1 0x1F LT PUSH2 0x2671 JUMPI PUSH2 0x100 DUP1 DUP4 SLOAD DIV MUL DUP4 MSTORE SWAP2 PUSH1 0x20 ADD SWAP2 PUSH2 0x269C JUMP JUMPDEST DUP3 ADD SWAP2 SWAP1 PUSH1 0x0 MSTORE PUSH1 0x20 PUSH1 0x0 KECCAK256 SWAP1 JUMPDEST DUP2 SLOAD DUP2 MSTORE SWAP1 PUSH1 0x1 ADD SWAP1 PUSH1 0x20 ADD DUP1 DUP4 GT PUSH2 0x267F JUMPI DUP3 SWAP1 SUB PUSH1 0x1F AND DUP3 ADD SWAP2 JUMPDEST POP POP POP PUSH1 0x6 DUP5 ADD SLOAD PUSH1 0x7 DUP6 ADD SLOAD PUSH1 0x8 DUP7 ADD SLOAD PUSH1 0x9 DUP8 ADD SLOAD PUSH1 0xA DUP9 ADD SLOAD PUSH1 0xB SWAP1 SWAP9 ADD SLOAD SWAP7 SWAP8 SWAP4 SWAP7 SWAP3 SWAP6 POP SWAP1 SWAP4 POP SWAP2 SWAP1 PUSH1 0xFF AND DUP13 JUMP JUMPDEST PUSH1 0x8 PUSH1 0x20 MSTORE PUSH1 0x0 SWAP1 DUP2 MSTORE PUSH1 0x40 SWAP1 KECCAK256 DUP1 SLOAD PUSH1 0x1 DUP3 ADD SLOAD PUSH1 0x2 DUP4 ADD DUP1 SLOAD PUSH1 0x1 PUSH1 0x1 PUSH1 0xA0 SHL SUB SWAP1 SWAP4 AND SWAP4 SWAP2 SWAP3 PUSH2 0xD0A SWAP1 PUSH2 0x33EB JUMP JUMPDEST PUSH1 0x0 SLOAD PUSH1 0x1 PUSH1 0x1 PUSH1 0xA0 SHL SUB AND CALLER EQ PUSH2 0x272C JUMPI PUSH1 0x40 MLOAD PUSH3 0x461BCD PUSH1 0xE5 SHL DUP2 MSTORE PUSH1 0x4 ADD PUSH2 0x6DF SWAP1 PUSH2 0x33AA JUMP JUMPDEST PUSH1 0x0 PUSH1 0x2 SLOAD GT DUP1 ISZERO PUSH2 0x2740 JUMPI POP PUSH1 0x0 PUSH1 0x3 SLOAD GT JUMPDEST DUP1 ISZERO PUSH2 0x274E JUMPI POP PUSH1 0x0 PUSH1 0x4 SLOAD GT JUMPDEST DUP1 ISZERO PUSH2 0x275C JUMPI POP PUSH1 0x0 PUSH1 0x5 SLOAD GT JUMPDEST PUSH2 0x27BE JUMPI PUSH1 0x40 MLOAD PUSH3 0x461BCD PUSH1 0xE5 SHL DUP2 MSTORE PUSH1 0x20 PUSH1 0x4 DUP3 ADD MSTORE PUSH1 0x2D PUSH1 0x24 DUP3 ADD MSTORE PUSH32 0x416C6C20726F6C6573206D75737420626520736574206265666F726520616464 PUSH1 0x44 DUP3 ADD MSTORE PUSH13 0x696E67206D65646963696E6573 PUSH1 0x98 SHL PUSH1 0x64 DUP3 ADD MSTORE PUSH1 0x84 ADD PUSH2 0x6DF JUMP JUMPDEST PUSH1 0x1 DUP1 SLOAD SWAP1 PUSH1 0x0 PUSH2 0x27CE DUP4 PUSH2 0x341F JUMP JUMPDEST SWAP2 SWAP1 POP SSTORE POP PUSH1 0x40 MLOAD DUP1 PUSH2 0x1A0 ADD PUSH1 0x40 MSTORE DUP1 PUSH1 0x1 SLOAD DUP2 MSTORE PUSH1 0x20 ADD DUP8 DUP2 MSTORE PUSH1 0x20 ADD DUP7 DUP2 MSTORE PUSH1 0x20 ADD DUP6 DUP2 MSTORE PUSH1 0x20 ADD DUP5 DUP2 MSTORE PUSH1 0x20 ADD DUP4 DUP2 MSTORE PUSH1 0x20 ADD DUP3 DUP2 MSTORE PUSH1 0x20 ADD PUSH1 0x0 DUP2 MSTORE PUSH1 0x20 ADD PUSH1 0x0 DUP2 MSTORE PUSH1 0x20 ADD PUSH1 0x0 DUP2 MSTORE PUSH1 0x20 ADD PUSH1 0x0 DUP2 MSTORE PUSH1 0x20 ADD PUSH1 0x0 PUSH1 0x7 DUP2 GT ISZERO PUSH2 0x283A JUMPI PUSH2 0x283A PUSH2 0x31CC JUMP JUMPDEST DUP2 MSTORE PUSH1 0x40 DUP1 MLOAD PUSH1 0x8 DUP1 DUP3 MSTORE PUSH2 0x120 DUP3 ADD SWAP1 SWAP3 MSTORE PUSH1 0x20 SWAP3 DUP4 ADD SWAP3 SWAP1 SWAP2 SWAP1 DUP3 ADD PUSH2 0x100 DUP1 CALLDATASIZE DUP4 CALLDATACOPY POP POP POP SWAP1 MSTORE PUSH1 0x1 DUP1 SLOAD PUSH1 0x0 SWAP1 DUP2 MSTORE PUSH1 0x7 PUSH1 0x20 SWAP1 DUP2 MSTORE PUSH1 0x40 SWAP1 SWAP2 KECCAK256 DUP4 MLOAD DUP2 SSTORE SWAP1 DUP4 ADD MLOAD SWAP1 SWAP2 DUP3 ADD SWAP1 PUSH2 0x2890 SWAP1 DUP3 PUSH2 0x3487 JUMP JUMPDEST POP PUSH1 0x40 DUP3 ADD MLOAD PUSH1 0x2 DUP3 ADD SWAP1 PUSH2 0x28A5 SWAP1 DUP3 PUSH2 0x3487 JUMP JUMPDEST POP PUSH1 0x60 DUP3 ADD MLOAD PUSH1 0x3 DUP3 ADD SSTORE PUSH1 0x80 DUP3 ADD MLOAD PUSH1 0x4 DUP3 ADD SSTORE PUSH1 0xA0 DUP3 ADD MLOAD PUSH1 0x5 DUP3 ADD SWAP1 PUSH2 0x28CE SWAP1 DUP3 PUSH2 0x3487 JUMP JUMPDEST POP PUSH1 0xC0 DUP3 ADD MLOAD DUP2 PUSH1 0x6 ADD SSTORE PUSH1 0xE0 DUP3 ADD MLOAD DUP2 PUSH1 0x7 ADD SSTORE PUSH2 0x100 DUP3 ADD MLOAD DUP2 PUSH1 0x8 ADD SSTORE PUSH2 0x120 DUP3 ADD MLOAD DUP2 PUSH1 0x9 ADD SSTORE PUSH2 0x140 DUP3 ADD MLOAD DUP2 PUSH1 0xA ADD SSTORE PUSH2 0x160 DUP3 ADD MLOAD DUP2 PUSH1 0xB ADD PUSH1 0x0 PUSH2 0x100 EXP DUP2 SLOAD DUP2 PUSH1 0xFF MUL NOT AND SWAP1 DUP4 PUSH1 0x7 DUP2 GT ISZERO PUSH2 0x292F JUMPI PUSH2 0x292F PUSH2 0x31CC JUMP JUMPDEST MUL OR SWAP1 SSTORE POP PUSH2 0x180 DUP3 ADD MLOAD DUP1 MLOAD PUSH2 0x2950 SWAP2 PUSH1 0xC DUP5 ADD SWAP2 PUSH1 0x20 SWAP1 SWAP2 ADD SWAP1 PUSH2 0x2CC6 JUMP JUMPDEST POP POP POP POP POP POP POP POP POP JUMP JUMPDEST PUSH1 0x0 DUP2 DUP2 MSTORE PUSH1 0x7 PUSH1 0x20 MSTORE PUSH1 0x40 SWAP1 KECCAK256 PUSH1 0x3 ADD SLOAD PUSH1 0xF SLOAD DUP2 LT ISZERO PUSH2 0x29D6 JUMPI PUSH32 0xE15983936B4D90991838DB308A365EE0DA6B9BD5E38C649239C1E46C0EFC4980 DUP3 PUSH1 0x40 MLOAD PUSH2 0x29CA SWAP2 DUP2 MSTORE PUSH1 0x40 PUSH1 0x20 DUP3 ADD DUP2 SWAP1 MSTORE PUSH1 0xA SWAP1 DUP3 ADD MSTORE PUSH10 0x556E64657273746F636B PUSH1 0xB0 SHL PUSH1 0x60 DUP3 ADD MSTORE PUSH1 0x80 ADD SWAP1 JUMP JUMPDEST PUSH1 0x40 MLOAD DUP1 SWAP2 SUB SWAP1 LOG1 POP POP JUMP JUMPDEST PUSH1 0x10 SLOAD DUP2 GT ISZERO PUSH2 0x12E0 JUMPI PUSH32 0xE15983936B4D90991838DB308A365EE0DA6B9BD5E38C649239C1E46C0EFC4980 DUP3 PUSH1 0x40 MLOAD PUSH2 0x29CA SWAP2 DUP2 MSTORE PUSH1 0x40 PUSH1 0x20 DUP3 ADD DUP2 SWAP1 MSTORE PUSH1 0x9 SWAP1 DUP3 ADD MSTORE PUSH9 0x4F76657273746F636B PUSH1 0xB8 SHL PUSH1 0x60 DUP3 ADD MSTORE PUSH1 0x80 ADD SWAP1 JUMP JUMPDEST PUSH1 0x0 DUP1 PUSH1 0x5 SLOAD GT PUSH2 0x2A7E JUMPI PUSH1 0x40 MLOAD PUSH3 0x461BCD PUSH1 0xE5 SHL DUP2 MSTORE PUSH1 0x20 PUSH1 0x4 DUP3 ADD MSTORE PUSH1 0x16 PUSH1 0x24 DUP3 ADD MSTORE PUSH22 0x4E6F2072657461696C65727320617661696C61626C65 PUSH1 0x50 SHL PUSH1 0x44 DUP3 ADD MSTORE PUSH1 0x64 ADD PUSH2 0x6DF JUMP JUMPDEST PUSH1 0x1 JUMPDEST PUSH1 0x5 SLOAD DUP2 GT PUSH2 0x24D0 JUMPI PUSH1 0x0 DUP2 DUP2 MSTORE PUSH1 0xB PUSH1 0x20 MSTORE PUSH1 0x40 SWAP1 KECCAK256 SLOAD PUSH1 0x1 PUSH1 0x1 PUSH1 0xA0 SHL SUB DUP1 DUP6 AND SWAP2 AND SUB PUSH2 0x2AC3 JUMPI PUSH1 0x0 SWAP1 DUP2 MSTORE PUSH1 0xB PUSH1 0x20 MSTORE PUSH1 0x40 SWAP1 KECCAK256 PUSH1 0x1 ADD SLOAD SWAP3 SWAP2 POP POP JUMP JUMPDEST DUP1 PUSH2 0x2ACD DUP2 PUSH2 0x341F JUMP JUMPDEST SWAP2 POP POP PUSH2 0x2A81 JUMP JUMPDEST PUSH1 0x0 DUP1 PUSH1 0x4 SLOAD GT PUSH2 0x2B28 JUMPI PUSH1 0x40 MLOAD PUSH3 0x461BCD PUSH1 0xE5 SHL DUP2 MSTORE PUSH1 0x20 PUSH1 0x4 DUP3 ADD MSTORE PUSH1 0x19 PUSH1 0x24 DUP3 ADD MSTORE PUSH32 0x4E6F206469737472696275746F727320617661696C61626C6500000000000000 PUSH1 0x44 DUP3 ADD MSTORE PUSH1 0x64 ADD PUSH2 0x6DF JUMP JUMPDEST PUSH1 0x1 JUMPDEST PUSH1 0x4 SLOAD DUP2 GT PUSH2 0x24D0 JUMPI PUSH1 0x0 DUP2 DUP2 MSTORE PUSH1 0xA PUSH1 0x20 MSTORE PUSH1 0x40 SWAP1 KECCAK256 SLOAD PUSH1 0x1 PUSH1 0x1 PUSH1 0xA0 SHL SUB DUP1 DUP6 AND SWAP2 AND SUB PUSH2 0x2B6D JUMPI PUSH1 0x0 SWAP1 DUP2 MSTORE PUSH1 0xA PUSH1 0x20 MSTORE PUSH1 0x40 SWAP1 KECCAK256 PUSH1 0x1 ADD SLOAD SWAP3 SWAP2 POP POP JUMP JUMPDEST DUP1 PUSH2 0x2B77 DUP2 PUSH2 0x341F JUMP JUMPDEST SWAP2 POP POP PUSH2 0x2B2B JUMP JUMPDEST PUSH1 0x0 DUP1 PUSH1 0x2 SLOAD GT PUSH2 0x2BC5 JUMPI PUSH1 0x40 MLOAD PUSH3 0x461BCD PUSH1 0xE5 SHL DUP2 MSTORE PUSH1 0x20 PUSH1 0x4 DUP3 ADD MSTORE PUSH1 0x10 PUSH1 0x24 DUP3 ADD MSTORE PUSH16 0x4E6F20524D5320617661696C61626C65 PUSH1 0x80 SHL PUSH1 0x44 DUP3 ADD MSTORE PUSH1 0x64 ADD PUSH2 0x6DF JUMP JUMPDEST PUSH1 0x1 JUMPDEST PUSH1 0x2 SLOAD DUP2 GT PUSH2 0x24D0 JUMPI PUSH1 0x0 DUP2 DUP2 MSTORE PUSH1 0x8 PUSH1 0x20 MSTORE PUSH1 0x40 SWAP1 KECCAK256 SLOAD PUSH1 0x1 PUSH1 0x1 PUSH1 0xA0 SHL SUB DUP1 DUP6 AND SWAP2 AND SUB PUSH2 0x2C0A JUMPI PUSH1 0x0 SWAP1 DUP2 MSTORE PUSH1 0x8 PUSH1 0x20 MSTORE PUSH1 0x40 SWAP1 KECCAK256 PUSH1 0x1 ADD SLOAD SWAP3 SWAP2 POP POP JUMP JUMPDEST DUP1 PUSH2 0x2C14 DUP2 PUSH2 0x341F JUMP JUMPDEST SWAP2 POP POP PUSH2 0x2BC8 JUMP JUMPDEST PUSH1 0x0 DUP1 PUSH1 0x3 SLOAD GT PUSH2 0x2C6F JUMPI PUSH1 0x40 MLOAD PUSH3 0x461BCD PUSH1 0xE5 SHL DUP2 MSTORE PUSH1 0x20 PUSH1 0x4 DUP3 ADD MSTORE PUSH1 0x1A PUSH1 0x24 DUP3 ADD MSTORE PUSH32 0x4E6F206D616E7566616374757265727320617661696C61626C65000000000000 PUSH1 0x44 DUP3 ADD MSTORE PUSH1 0x64 ADD PUSH2 0x6DF JUMP JUMPDEST PUSH1 0x1 JUMPDEST PUSH1 0x3 SLOAD DUP2 GT PUSH2 0x24D0 JUMPI PUSH1 0x0 DUP2 DUP2 MSTORE PUSH1 0x9 PUSH1 0x20 MSTORE PUSH1 0x40 SWAP1 KECCAK256 SLOAD PUSH1 0x1 PUSH1 0x1 PUSH1 0xA0 SHL SUB DUP1 DUP6 AND SWAP2 AND SUB PUSH2 0x2CB4 JUMPI PUSH1 0x0 SWAP1 DUP2 MSTORE PUSH1 0x9 PUSH1 0x20 MSTORE PUSH1 0x40 SWAP1 KECCAK256 PUSH1 0x1 ADD SLOAD SWAP3 SWAP2 POP POP JUMP JUMPDEST DUP1 PUSH2 0x2CBE DUP2 PUSH2 0x341F JUMP JUMPDEST SWAP2 POP POP PUSH2 0x2C72 JUMP JUMPDEST DUP3 DUP1 SLOAD DUP3 DUP3 SSTORE SWAP1 PUSH1 0x0 MSTORE PUSH1 0x20 PUSH1 0x0 KECCAK256 SWAP1 DUP2 ADD SWAP3 DUP3 ISZERO PUSH2 0x2D01 JUMPI SWAP2 PUSH1 0x20 MUL DUP3 ADD JUMPDEST DUP3 DUP2 GT ISZERO PUSH2 0x2D01 JUMPI DUP3 MLOAD DUP3 SSTORE SWAP2 PUSH1 0x20 ADD SWAP2 SWAP1 PUSH1 0x1 ADD SWAP1 PUSH2 0x2CE6 JUMP JUMPDEST POP PUSH2 0x2D0D SWAP3 SWAP2 POP PUSH2 0x2D11 JUMP JUMPDEST POP SWAP1 JUMP JUMPDEST JUMPDEST DUP1 DUP3 GT ISZERO PUSH2 0x2D0D JUMPI PUSH1 0x0 DUP2 SSTORE PUSH1 0x1 ADD PUSH2 0x2D12 JUMP JUMPDEST PUSH1 0x0 DUP1 PUSH1 0x0 PUSH1 0x60 DUP5 DUP7 SUB SLT ISZERO PUSH2 0x2D3B JUMPI PUSH1 0x0 DUP1 REVERT JUMPDEST POP POP DUP2 CALLDATALOAD SWAP4 PUSH1 0x20 DUP4 ADD CALLDATALOAD SWAP4 POP PUSH1 0x40 SWAP1 SWAP3 ADD CALLDATALOAD SWAP2 SWAP1 POP JUMP JUMPDEST PUSH1 0x0 DUP1 PUSH1 0x40 DUP4 DUP6 SUB SLT ISZERO PUSH2 0x2D65 JUMPI PUSH1 0x0 DUP1 REVERT JUMPDEST POP POP DUP1 CALLDATALOAD SWAP3 PUSH1 0x20 SWAP1 SWAP2 ADD CALLDATALOAD SWAP2 POP JUMP JUMPDEST PUSH1 0x0 PUSH1 0x20 DUP3 DUP5 SUB SLT ISZERO PUSH2 0x2D86 JUMPI PUSH1 0x0 DUP1 REVERT JUMPDEST POP CALLDATALOAD SWAP2 SWAP1 POP JUMP JUMPDEST PUSH1 0x0 DUP2 MLOAD DUP1 DUP5 MSTORE PUSH1 0x0 JUMPDEST DUP2 DUP2 LT ISZERO PUSH2 0x2DB3 JUMPI PUSH1 0x20 DUP2 DUP6 ADD DUP2 ADD MLOAD DUP7 DUP4 ADD DUP3 ADD MSTORE ADD PUSH2 0x2D97 JUMP JUMPDEST POP PUSH1 0x0 PUSH1 0x20 DUP3 DUP7 ADD ADD MSTORE PUSH1 0x20 PUSH1 0x1F NOT PUSH1 0x1F DUP4 ADD AND DUP6 ADD ADD SWAP2 POP POP SWAP3 SWAP2 POP POP JUMP JUMPDEST PUSH1 0x20 DUP2 MSTORE PUSH1 0x0 PUSH2 0x2DE6 PUSH1 0x20 DUP4 ADD DUP5 PUSH2 0x2D8D JUMP JUMPDEST SWAP4 SWAP3 POP POP POP JUMP JUMPDEST DUP1 CALLDATALOAD PUSH1 0x1 PUSH1 0x1 PUSH1 0xA0 SHL SUB DUP2 AND DUP2 EQ PUSH2 0x2E04 JUMPI PUSH1 0x0 DUP1 REVERT JUMPDEST SWAP2 SWAP1 POP JUMP JUMPDEST PUSH4 0x4E487B71 PUSH1 0xE0 SHL PUSH1 0x0 MSTORE PUSH1 0x41 PUSH1 0x4 MSTORE PUSH1 0x24 PUSH1 0x0 REVERT JUMPDEST PUSH1 0x0 DUP3 PUSH1 0x1F DUP4 ADD SLT PUSH2 0x2E30 JUMPI PUSH1 0x0 DUP1 REVERT JUMPDEST DUP2 CALLDATALOAD PUSH1 0x1 PUSH1 0x1 PUSH1 0x40 SHL SUB DUP2 GT ISZERO PUSH2 0x2E49 JUMPI PUSH2 0x2E49 PUSH2 0x2E09 JUMP JUMPDEST PUSH1 0x40 MLOAD PUSH1 0x1F DUP3 ADD PUSH1 0x1F NOT SWAP1 DUP2 AND PUSH1 0x3F ADD AND DUP2 ADD PUSH1 0x1 PUSH1 0x1 PUSH1 0x40 SHL SUB DUP2 GT DUP3 DUP3 LT OR ISZERO PUSH2 0x2E77 JUMPI PUSH2 0x2E77 PUSH2 0x2E09 JUMP JUMPDEST PUSH1 0x40 MSTORE DUP2 DUP2 MSTORE DUP4 DUP3 ADD PUSH1 0x20 ADD DUP6 LT ISZERO PUSH2 0x2E8F JUMPI PUSH1 0x0 DUP1 REVERT JUMPDEST DUP2 PUSH1 0x20 DUP6 ADD PUSH1 0x20 DUP4 ADD CALLDATACOPY PUSH1 0x0 SWAP2 DUP2 ADD PUSH1 0x20 ADD SWAP2 SWAP1 SWAP2 MSTORE SWAP4 SWAP3 POP POP POP JUMP JUMPDEST PUSH1 0x0 DUP1 PUSH1 0x0 PUSH1 0x60 DUP5 DUP7 SUB SLT ISZERO PUSH2 0x2EC1 JUMPI PUSH1 0x0 DUP1 REVERT JUMPDEST PUSH2 0x2ECA DUP5 PUSH2 0x2DED JUMP JUMPDEST SWAP3 POP PUSH1 0x20 DUP5 ADD CALLDATALOAD PUSH1 0x1 PUSH1 0x1 PUSH1 0x40 SHL SUB DUP2 GT ISZERO PUSH2 0x2EE5 JUMPI PUSH1 0x0 DUP1 REVERT JUMPDEST PUSH2 0x2EF1 DUP7 DUP3 DUP8 ADD PUSH2 0x2E1F JUMP JUMPDEST SWAP3 POP POP PUSH1 0x40 DUP5 ADD CALLDATALOAD PUSH1 0x1 PUSH1 0x1 PUSH1 0x40 SHL SUB DUP2 GT ISZERO PUSH2 0x2F0D JUMPI PUSH1 0x0 DUP1 REVERT JUMPDEST PUSH2 0x2F19 DUP7 DUP3 DUP8 ADD PUSH2 0x2E1F JUMP JUMPDEST SWAP2 POP POP SWAP3 POP SWAP3 POP SWAP3 JUMP JUMPDEST PUSH1 0x1 DUP1 PUSH1 0xA0 SHL SUB DUP6 AND DUP2 MSTORE DUP4 PUSH1 0x20 DUP3 ADD MSTORE PUSH1 0x80 PUSH1 0x40 DUP3 ADD MSTORE PUSH1 0x0 PUSH2 0x2F4A PUSH1 0x80 DUP4 ADD DUP6 PUSH2 0x2D8D JUMP JUMPDEST DUP3 DUP2 SUB PUSH1 0x60 DUP5 ADD MSTORE PUSH2 0x2F5C DUP2 DUP6 PUSH2 0x2D8D JUMP JUMPDEST SWAP8 SWAP7 POP POP POP POP POP POP POP JUMP JUMPDEST PUSH1 0x0 DUP1 PUSH1 0x0 PUSH1 0x60 DUP5 DUP7 SUB SLT ISZERO PUSH2 0x2F7C JUMPI PUSH1 0x0 DUP1 REVERT JUMPDEST DUP4 CALLDATALOAD PUSH1 0x1 PUSH1 0x1 PUSH1 0x40 SHL SUB DUP2 GT ISZERO PUSH2 0x2F92 JUMPI PUSH1 0x0 DUP1 REVERT JUMPDEST PUSH2 0x2F9E DUP7 DUP3 DUP8 ADD PUSH2 0x2E1F JUMP JUMPDEST SWAP4 POP POP PUSH1 0x20 DUP5 ADD CALLDATALOAD PUSH1 0x1 PUSH1 0x1 PUSH1 0x40 SHL SUB DUP2 GT ISZERO PUSH2 0x2FBA JUMPI PUSH1 0x0 DUP1 REVERT JUMPDEST PUSH2 0x2FC6 DUP7 DUP3 DUP8 ADD PUSH2 0x2E1F JUMP JUMPDEST SWAP3 POP POP PUSH2 0x2FD5 PUSH1 0x40 DUP6 ADD PUSH2 0x2DED JUMP JUMPDEST SWAP1 POP SWAP3 POP SWAP3 POP SWAP3 JUMP JUMPDEST PUSH1 0x0 PUSH1 0x20 DUP3 DUP5 SUB SLT ISZERO PUSH2 0x2FF0 JUMPI PUSH1 0x0 DUP1 REVERT JUMPDEST PUSH2 0x2DE6 DUP3 PUSH2 0x2DED JUMP JUMPDEST PUSH1 0x0 DUP2 MLOAD DUP1 DUP5 MSTORE PUSH1 0x20 DUP5 ADD SWAP4 POP PUSH1 0x20 DUP4 ADD PUSH1 0x0 JUMPDEST DUP3 DUP2 LT ISZERO PUSH2 0x302B JUMPI DUP2 MLOAD DUP7 MSTORE PUSH1 0x20 SWAP6 DUP7 ADD SWAP6 SWAP1 SWAP2 ADD SWAP1 PUSH1 0x1 ADD PUSH2 0x300D JUMP JUMPDEST POP SWAP4 SWAP5 SWAP4 POP POP POP POP JUMP JUMPDEST PUSH1 0x80 DUP2 MSTORE PUSH1 0x0 PUSH2 0x3048 PUSH1 0x80 DUP4 ADD DUP8 PUSH2 0x2FF9 JUMP JUMPDEST DUP3 DUP2 SUB PUSH1 0x20 DUP5 ADD MSTORE PUSH2 0x305A DUP2 DUP8 PUSH2 0x2FF9 JUMP JUMPDEST SWAP1 POP DUP3 DUP2 SUB PUSH1 0x40 DUP5 ADD MSTORE PUSH2 0x306E DUP2 DUP7 PUSH2 0x2FF9 JUMP JUMPDEST DUP4 DUP2 SUB PUSH1 0x60 DUP6 ADD MSTORE DUP5 MLOAD DUP1 DUP3 MSTORE PUSH1 0x20 DUP1 DUP8 ADD SWAP4 POP SWAP1 SWAP2 ADD SWAP1 PUSH1 0x0 JUMPDEST DUP2 DUP2 LT ISZERO PUSH2 0x30A9 JUMPI DUP4 MLOAD ISZERO ISZERO DUP4 MSTORE PUSH1 0x20 SWAP4 DUP5 ADD SWAP4 SWAP1 SWAP3 ADD SWAP2 PUSH1 0x1 ADD PUSH2 0x3089 JUMP JUMPDEST POP SWAP1 SWAP9 SWAP8 POP POP POP POP POP POP POP POP JUMP JUMPDEST DUP5 DUP2 MSTORE PUSH1 0x80 PUSH1 0x20 DUP3 ADD MSTORE PUSH1 0x0 PUSH2 0x30D0 PUSH1 0x80 DUP4 ADD DUP7 PUSH2 0x2D8D JUMP JUMPDEST DUP3 DUP2 SUB PUSH1 0x40 DUP5 ADD MSTORE PUSH2 0x30E2 DUP2 DUP7 PUSH2 0x2D8D JUMP JUMPDEST SWAP2 POP POP PUSH1 0x1 DUP1 PUSH1 0xA0 SHL SUB DUP4 AND PUSH1 0x60 DUP4 ADD MSTORE SWAP6 SWAP5 POP POP POP POP POP JUMP JUMPDEST PUSH1 0x20 DUP2 MSTORE PUSH1 0x0 PUSH2 0x2DE6 PUSH1 0x20 DUP4 ADD DUP5 PUSH2 0x2FF9 JUMP JUMPDEST PUSH1 0x0 DUP1 PUSH1 0x0 DUP1 PUSH1 0x80 DUP6 DUP8 SUB SLT ISZERO PUSH2 0x3125 JUMPI PUSH1 0x0 DUP1 REVERT JUMPDEST DUP5 CALLDATALOAD SWAP4 POP PUSH1 0x20 DUP6 ADD CALLDATALOAD SWAP3 POP PUSH1 0x40 DUP6 ADD CALLDATALOAD SWAP2 POP PUSH1 0x60 DUP6 ADD CALLDATALOAD DUP1 ISZERO ISZERO DUP2 EQ PUSH2 0x314A JUMPI PUSH1 0x0 DUP1 REVERT JUMPDEST SWAP4 SWAP7 SWAP3 SWAP6 POP SWAP1 SWAP4 POP POP JUMP JUMPDEST PUSH1 0x20 DUP1 DUP3 MSTORE DUP3 MLOAD DUP3 DUP3 ADD DUP2 SWAP1 MSTORE PUSH1 0x0 SWAP2 DUP5 ADD SWAP1 PUSH1 0x40 DUP5 ADD SWAP1 DUP4 JUMPDEST DUP2 DUP2 LT ISZERO PUSH2 0x31C1 JUMPI DUP4 MLOAD DUP1 MLOAD DUP5 MSTORE PUSH1 0x20 DUP2 ADD MLOAD PUSH1 0x20 DUP6 ADD MSTORE PUSH1 0x40 DUP2 ADD MLOAD PUSH1 0x40 DUP6 ADD MSTORE PUSH1 0x60 DUP2 ADD MLOAD ISZERO ISZERO PUSH1 0x60 DUP6 ADD MSTORE PUSH1 0x80 DUP2 ADD MLOAD ISZERO ISZERO PUSH1 0x80 DUP6 ADD MSTORE POP PUSH1 0xA0 DUP4 ADD SWAP3 POP PUSH1 0x20 DUP5 ADD SWAP4 POP PUSH1 0x1 DUP2 ADD SWAP1 POP PUSH2 0x316F JUMP JUMPDEST POP SWAP1 SWAP6 SWAP5 POP POP POP POP POP JUMP JUMPDEST PUSH4 0x4E487B71 PUSH1 0xE0 SHL PUSH1 0x0 MSTORE PUSH1 0x21 PUSH1 0x4 MSTORE PUSH1 0x24 PUSH1 0x0 REVERT JUMPDEST DUP13 DUP2 MSTORE PUSH2 0x180 PUSH1 0x20 DUP3 ADD MSTORE PUSH1 0x0 PUSH2 0x31FD PUSH2 0x180 DUP4 ADD DUP15 PUSH2 0x2D8D JUMP JUMPDEST DUP3 DUP2 SUB PUSH1 0x40 DUP5 ADD MSTORE PUSH2 0x320F DUP2 DUP15 PUSH2 0x2D8D JUMP JUMPDEST SWAP1 POP DUP12 PUSH1 0x60 DUP5 ADD MSTORE DUP11 PUSH1 0x80 DUP5 ADD MSTORE DUP3 DUP2 SUB PUSH1 0xA0 DUP5 ADD MSTORE PUSH2 0x322F DUP2 DUP12 PUSH2 0x2D8D JUMP JUMPDEST SWAP2 POP POP DUP8 PUSH1 0xC0 DUP4 ADD MSTORE DUP7 PUSH1 0xE0 DUP4 ADD MSTORE DUP6 PUSH2 0x100 DUP4 ADD MSTORE DUP5 PUSH2 0x120 DUP4 ADD MSTORE DUP4 PUSH2 0x140 DUP4 ADD MSTORE PUSH1 0x8 DUP4 LT PUSH2 0x3271 JUMPI PUSH4 0x4E487B71 PUSH1 0xE0 SHL PUSH1 0x0 MSTORE PUSH1 0x21 PUSH1 0x4 MSTORE PUSH1 0x24 PUSH1 0x0 REVERT JUMPDEST DUP3 PUSH2 0x160 DUP4 ADD MSTORE SWAP14 SWAP13 POP POP POP POP POP POP POP POP POP POP POP POP POP JUMP JUMPDEST PUSH1 0x0 DUP1 PUSH1 0x0 DUP1 PUSH1 0x0 DUP1 PUSH1 0xC0 DUP8 DUP10 SUB SLT ISZERO PUSH2 0x32A2 JUMPI PUSH1 0x0 DUP1 REVERT JUMPDEST DUP7 CALLDATALOAD PUSH1 0x1 PUSH1 0x1 PUSH1 0x40 SHL SUB DUP2 GT ISZERO PUSH2 0x32B8 JUMPI PUSH1 0x0 DUP1 REVERT JUMPDEST PUSH2 0x32C4 DUP10 DUP3 DUP11 ADD PUSH2 0x2E1F JUMP JUMPDEST SWAP7 POP POP PUSH1 0x20 DUP8 ADD CALLDATALOAD PUSH1 0x1 PUSH1 0x1 PUSH1 0x40 SHL SUB DUP2 GT ISZERO PUSH2 0x32E0 JUMPI PUSH1 0x0 DUP1 REVERT JUMPDEST PUSH2 0x32EC DUP10 DUP3 DUP11 ADD PUSH2 0x2E1F JUMP JUMPDEST SWAP6 POP POP PUSH1 0x40 DUP8 ADD CALLDATALOAD SWAP4 POP PUSH1 0x60 DUP8 ADD CALLDATALOAD SWAP3 POP PUSH1 0x80 DUP8 ADD CALLDATALOAD PUSH1 0x1 PUSH1 0x1 PUSH1 0x40 SHL SUB DUP2 GT ISZERO PUSH2 0x3316 JUMPI PUSH1 0x0 DUP1 REVERT JUMPDEST PUSH2 0x3322 DUP10 DUP3 DUP11 ADD PUSH2 0x2E1F JUMP JUMPDEST SWAP7 SWAP10 SWAP6 SWAP9 POP SWAP4 SWAP7 SWAP3 SWAP6 SWAP5 PUSH1 0xA0 SWAP1 SWAP4 ADD CALLDATALOAD SWAP4 POP POP POP JUMP JUMPDEST PUSH1 0x20 DUP1 DUP3 MSTORE PUSH1 0x13 SWAP1 DUP3 ADD MSTORE PUSH19 0x125B9D985B1A59081B59591A58DA5B99481251 PUSH1 0x6A SHL PUSH1 0x40 DUP3 ADD MSTORE PUSH1 0x60 ADD SWAP1 JUMP JUMPDEST PUSH4 0x4E487B71 PUSH1 0xE0 SHL PUSH1 0x0 MSTORE PUSH1 0x32 PUSH1 0x4 MSTORE PUSH1 0x24 PUSH1 0x0 REVERT JUMPDEST PUSH4 0x4E487B71 PUSH1 0xE0 SHL PUSH1 0x0 MSTORE PUSH1 0x11 PUSH1 0x4 MSTORE PUSH1 0x24 PUSH1 0x0 REVERT JUMPDEST DUP2 DUP2 SUB DUP2 DUP2 GT ISZERO PUSH2 0x33A4 JUMPI PUSH2 0x33A4 PUSH2 0x337B JUMP JUMPDEST SWAP3 SWAP2 POP POP JUMP JUMPDEST PUSH1 0x20 DUP1 DUP3 MSTORE PUSH1 0x21 SWAP1 DUP3 ADD MSTORE PUSH32 0x4F6E6C79206F776E65722063616E2063616C6C20746869732066756E6374696F PUSH1 0x40 DUP3 ADD MSTORE PUSH1 0x37 PUSH1 0xF9 SHL PUSH1 0x60 DUP3 ADD MSTORE PUSH1 0x80 ADD SWAP1 JUMP JUMPDEST PUSH1 0x1 DUP2 DUP2 SHR SWAP1 DUP3 AND DUP1 PUSH2 0x33FF JUMPI PUSH1 0x7F DUP3 AND SWAP2 POP JUMPDEST PUSH1 0x20 DUP3 LT DUP2 SUB PUSH2 0x2461 JUMPI PUSH4 0x4E487B71 PUSH1 0xE0 SHL PUSH1 0x0 MSTORE PUSH1 0x22 PUSH1 0x4 MSTORE PUSH1 0x24 PUSH1 0x0 REVERT JUMPDEST PUSH1 0x0 PUSH1 0x1 DUP3 ADD PUSH2 0x3431 JUMPI PUSH2 0x3431 PUSH2 0x337B JUMP JUMPDEST POP PUSH1 0x1 ADD SWAP1 JUMP JUMPDEST PUSH1 0x1F DUP3 GT ISZERO PUSH2 0x3482 JUMPI DUP1 PUSH1 0x0 MSTORE PUSH1 0x20 PUSH1 0x0 KECCAK256 PUSH1 0x1F DUP5 ADD PUSH1 0x5 SHR DUP2 ADD PUSH1 0x20 DUP6 LT ISZERO PUSH2 0x345F JUMPI POP DUP1 JUMPDEST PUSH1 0x1F DUP5 ADD PUSH1 0x5 SHR DUP3 ADD SWAP2 POP JUMPDEST DUP2 DUP2 LT ISZERO PUSH2 0x347F JUMPI PUSH1 0x0 DUP2 SSTORE PUSH1 0x1 ADD PUSH2 0x346B JUMP JUMPDEST POP POP JUMPDEST POP POP POP JUMP JUMPDEST DUP2 MLOAD PUSH1 0x1 PUSH1 0x1 PUSH1 0x40 SHL SUB DUP2 GT ISZERO PUSH2 0x34A0 JUMPI PUSH2 0x34A0 PUSH2 0x2E09 JUMP JUMPDEST PUSH2 0x34B4 DUP2 PUSH2 0x34AE DUP5 SLOAD PUSH2 0x33EB JUMP JUMPDEST DUP5 PUSH2 0x3438 JUMP JUMPDEST PUSH1 0x20 PUSH1 0x1F DUP3 GT PUSH1 0x1 DUP2 EQ PUSH2 0x34E8 JUMPI PUSH1 0x0 DUP4 ISZERO PUSH2 0x34D0 JUMPI POP DUP5 DUP3 ADD MLOAD JUMPDEST PUSH1 0x0 NOT PUSH1 0x3 DUP6 SWAP1 SHL SHR NOT AND PUSH1 0x1 DUP5 SWAP1 SHL OR DUP5 SSTORE PUSH2 0x347F JUMP JUMPDEST PUSH1 0x0 DUP5 DUP2 MSTORE PUSH1 0x20 DUP2 KECCAK256 PUSH1 0x1F NOT DUP6 AND SWAP2 JUMPDEST DUP3 DUP2 LT ISZERO PUSH2 0x3518 JUMPI DUP8 DUP6 ADD MLOAD DUP3 SSTORE PUSH1 0x20 SWAP5 DUP6 ADD SWAP5 PUSH1 0x1 SWAP1 SWAP3 ADD SWAP2 ADD PUSH2 0x34F8 JUMP JUMPDEST POP DUP5 DUP3 LT ISZERO PUSH2 0x3536 JUMPI DUP7 DUP5 ADD MLOAD PUSH1 0x0 NOT PUSH1 0x3 DUP8 SWAP1 SHL PUSH1 0xF8 AND SHR NOT AND DUP2 SSTORE JUMPDEST POP POP POP POP PUSH1 0x1 SWAP1 DUP2 SHL ADD SWAP1 SSTORE POP JUMP JUMPDEST PUSH1 0x20 DUP1 DUP3 MSTORE PUSH1 0x18 SWAP1 DUP3 ADD MSTORE PUSH32 0x496E76616C6964207374616765207472616E736974696F6E0000000000000000 PUSH1 0x40 DUP3 ADD MSTORE PUSH1 0x60 ADD SWAP1 JUMP JUMPDEST DUP1 DUP3 ADD DUP1 DUP3 GT ISZERO PUSH2 0x33A4 JUMPI PUSH2 0x33A4 PUSH2 0x337B JUMP INVALID LOG2 PUSH5 0x6970667358 0x22 SLT KECCAK256 DUP10 ADD PUSH3 0x3D93CA 0xE7 SWAP8 0xDB 0xD8 0x27 0x2F 0xD7 CODESIZE GT 0xC9 0x25 DUP4 0xA8 PUSH30 0x91E1C9A4DB2BF8EB723F2BF464736F6C634300081B003300000000000000 "},"methodIdentifiers":{"DIS(uint256)":"2b0187ac","Distribute(uint256)":"4def474a","MAN(uint256)":"cc403069","Manufacturing(uint256)":"a48d335a","MedicineStock(uint256)":"eb1a06b5","Owner()":"b4a99a4e","RET(uint256)":"59bf286f","RMS(uint256)":"eef5cb40","RMSsupply(uint256)":"86c18275","Retail(uint256)":"3d753a1c","addDistributor(address)":"7250e224","addDistributor(address,string,string)":"2a4af440","addHospital(string,string,address)":"51d9ab38","addManufacturer(address,string,string)":"6a992c9f","addMedicine(string,string,uint256,uint256,string,uint256)":"f507bbc0","addRMS(address,string,string)":"2b70b08d","addRetailer(address,string,string)":"857ddb04","checkExpiry(uint256)":"e4357cd7","confirmDestruction(uint256)":"9f4ca9fe","disCtr()":"2bdb2e6b","distributors(address)":"cc642784","getDashboardData()":"d9708d48","getMedicineBatchNumber(uint256)":"154c04d2","getMedicinePrice(uint256)":"d95f4b67","getMedicineRequests(uint256)":"d0f8fd4f","getPendingRequests()":"80a1f712","hospitalCtr()":"0280b6c1","hospitals(uint256)":"81dc6fd2","initiateReturn(uint256)":"1291b2ef","manCtr()":"438e9c4d","medicineCtr()":"a95f29d9","medicineRequests(uint256,uint256)":"02565813","overstockThreshold()":"30f901d7","removeDistributor(address)":"57c1f9e2","requestMedicine(uint256,uint256,uint256,bool)":"c877b344","retCtr()":"7e43d94d","rmsCtr()":"dd286398","showStage(uint256)":"e101a2e0","sold(uint256)":"9c03facb","timeSpentInStages(uint256)":"874ae092","transferMedicine(uint256,uint256,uint256)":"0221e2cf","understockThreshold()":"f3c40a36","updateMedicineQuantity(uint256,uint256)":"5e9db90c"}}}}}