{"contracts/SupplyChain.sol":{"SupplyChain":{"abi":[{"inputs":[],"stateMutability":"nonpayable","type":"constructor"},{"inputs":[{"internalType":"uint256","name":"","type":"uint256"}],"name":"DIS","outputs":[{"internalType":"address","name":"addr","type":"address"},{"internalType":"uint256","name":"id","type":"uint256"},{"internalType":"string","name":"name","type":"string"},{"internalType":"string","name":"place","type":"string"}],"stateMutability":"view","type":"function"},{"inputs":[{"internalType":"uint256","name":"_medicineID","type":"uint256"}],"name":"Distribute","outputs":[],"stateMutability":"nonpayable","type":"function"},{"inputs":[{"internalType":"uint256","name":"","type":"uint256"}],"name":"MAN","outputs":[{"internalType":"address","name":"addr","type":"address"},{"internalType":"uint256","name":"id","type":"uint256"},{"internalType":"string","name":"name","type":"string"},{"internalType":"string","name":"place","type":"string"}],"stateMutability":"view","type":"function"},{"inputs":[{"internalType":"uint256","name":"_medicineID","type":"uint256"}],"name":"Manufacturing","outputs":[],"stateMutability":"nonpayable","type":"function"},{"inputs":[{"internalType":"uint256","name":"","type":"uint256"}],"name":"MedicineStock","outputs":[{"internalType":"uint256","name":"id","type":"uint256"},{"internalType":"string","name":"name","type":"string"},{"internalType":"string","name":"description","type":"string"},{"internalType":"uint256","name":"RMSid","type":"uint256"},{"internalType":"uint256","name":"MANid","type":"uint256"},{"internalType":"uint256","name":"DISid","type":"uint256"},{"internalType":"uint256","name":"RETid","type":"uint256"},{"internalType":"enum SupplyChain.STAGE","name":"stage","type":"uint8"}],"stateMutability":"view","type":"function"},{"inputs":[],"name":"Owner","outputs":[{"internalType":"address","name":"","type":"address"}],"stateMutability":"view","type":"function"},{"inputs":[{"internalType":"uint256","name":"","type":"uint256"}],"name":"RET","outputs":[{"internalType":"address","name":"addr","type":"address"},{"internalType":"uint256","name":"id","type":"uint256"},{"internalType":"string","name":"name","type":"string"},{"internalType":"string","name":"place","type":"string"}],"stateMutability":"view","type":"function"},{"inputs":[{"internalType":"uint256","name":"","type":"uint256"}],"name":"RMS","outputs":[{"internalType":"address","name":"addr","type":"address"},{"internalType":"uint256","name":"id","type":"uint256"},{"internalType":"string","name":"name","type":"string"},{"internalType":"string","name":"place","type":"string"}],"stateMutability":"view","type":"function"},{"inputs":[{"internalType":"uint256","name":"_medicineID","type":"uint256"}],"name":"RMSsupply","outputs":[],"stateMutability":"nonpayable","type":"function"},{"inputs":[{"internalType":"uint256","name":"_medicineID","type":"uint256"}],"name":"Retail","outputs":[],"stateMutability":"nonpayable","type":"function"},{"inputs":[{"internalType":"address","name":"_address","type":"address"},{"internalType":"string","name":"_name","type":"string"},{"internalType":"string","name":"_place","type":"string"}],"name":"addDistributor","outputs":[],"stateMutability":"nonpayable","type":"function"},{"inputs":[{"internalType":"address","name":"_address","type":"address"},{"internalType":"string","name":"_name","type":"string"},{"internalType":"string","name":"_place","type":"string"}],"name":"addManufacturer","outputs":[],"stateMutability":"nonpayable","type":"function"},{"inputs":[{"internalType":"string","name":"_name","type":"string"},{"internalType":"string","name":"_description","type":"string"}],"name":"addMedicine","outputs":[],"stateMutability":"nonpayable","type":"function"},{"inputs":[{"internalType":"address","name":"_address","type":"address"},{"internalType":"string","name":"_name","type":"string"},{"internalType":"string","name":"_place","type":"string"}],"name":"addRMS","outputs":[],"stateMutability":"nonpayable","type":"function"},{"inputs":[{"internalType":"address","name":"_address","type":"address"},{"internalType":"string","name":"_name","type":"string"},{"internalType":"string","name":"_place","type":"string"}],"name":"addRetailer","outputs":[],"stateMutability":"nonpayable","type":"function"},{"inputs":[],"name":"disCtr","outputs":[{"internalType":"uint256","name":"","type":"uint256"}],"stateMutability":"view","type":"function"},{"inputs":[],"name":"manCtr","outputs":[{"internalType":"uint256","name":"","type":"uint256"}],"stateMutability":"view","type":"function"},{"inputs":[],"name":"medicineCtr","outputs":[{"internalType":"uint256","name":"","type":"uint256"}],"stateMutability":"view","type":"function"},{"inputs":[],"name":"retCtr","outputs":[{"internalType":"uint256","name":"","type":"uint256"}],"stateMutability":"view","type":"function"},{"inputs":[],"name":"rmsCtr","outputs":[{"internalType":"uint256","name":"","type":"uint256"}],"stateMutability":"view","type":"function"},{"inputs":[{"internalType":"uint256","name":"_medicineID","type":"uint256"}],"name":"showStage","outputs":[{"internalType":"string","name":"","type":"string"}],"stateMutability":"view","type":"function"},{"inputs":[{"internalType":"uint256","name":"_medicineID","type":"uint256"}],"name":"sold","outputs":[],"stateMutability":"nonpayable","type":"function"}],"evm":{"bytecode":{"linkReferences":{},"object":"608060405260006001556000600255600060035560006004556000600555348015602857600080fd5b50600080546001600160a01b031916331790556115728061004a6000396000f3fe608060405234801561001057600080fd5b50600436106101425760003560e01c806386c18275116100b8578063b4a99a4e1161007c578063b4a99a4e14610278578063cc403069146102a3578063dd286398146102b6578063e101a2e0146102bf578063eb1a06b5146102df578063eef5cb401461030657600080fd5b806386c18275146102235780638f4183cc146102365780639c03facb14610249578063a48d335a1461025c578063a95f29d91461026f57600080fd5b8063438e9c4d1161010a578063438e9c4d146101c55780634def474a146101ce57806359bf286f146101e15780636a992c9f146101f45780637e43d94d14610207578063857ddb041461021057600080fd5b80632a4af440146101475780632b0187ac1461015c5780632b70b08d146101885780632bdb2e6b1461019b5780633d753a1c146101b2575b600080fd5b61015a610155366004611191565b610319565b005b61016f61016a366004611218565b6103d0565b60405161017f9493929190611277565b60405180910390f35b61015a610196366004611191565b610513565b6101a460045481565b60405190815260200161017f565b61015a6101c0366004611218565b6105ae565b6101a460035481565b61015a6101dc366004611218565b610646565b61016f6101ef366004611218565b6106d7565b61015a610202366004611191565b610709565b6101a460055481565b61015a61021e366004611191565b6107a3565b61015a610231366004611218565b61083d565b61015a6102443660046112bb565b6108cb565b61015a610257366004611218565b610a20565b61015a61026a366004611218565b610ac8565b6101a460015481565b60005461028b906001600160a01b031681565b6040516001600160a01b03909116815260200161017f565b61016f6102b1366004611218565b610b59565b6101a460025481565b6102d26102cd366004611218565b610b8b565b60405161017f9190611324565b6102f26102ed366004611218565b610dc0565b60405161017f989796959493929190611354565b61016f610314366004611218565b610f15565b6000546001600160a01b0316331461033057600080fd5b60048054906000610340836113cd565b9091555050604080516080810182526001600160a01b0385811682526004546020808401828152848601888152606086018890526000938452600990925294909120835181546001600160a01b031916931692909217825592516001820155915190919060028201906103b3908261147d565b50606082015160038201906103c8908261147d565b505050505050565b6009602052600090815260409020805460018201546002830180546001600160a01b03909316939192610402906113f4565b80601f016020809104026020016040519081016040528092919081815260200182805461042e906113f4565b801561047b5780601f106104505761010080835404028352916020019161047b565b820191906000526020600020905b81548152906001019060200180831161045e57829003601f168201915b505050505090806003018054610490906113f4565b80601f01602080910402602001604051908101604052809291908181526020018280546104bc906113f4565b80156105095780601f106104de57610100808354040283529160200191610509565b820191906000526020600020905b8154815290600101906020018083116104ec57829003601f168201915b5050505050905084565b6000546001600160a01b0316331461052a57600080fd5b6002805490600061053a836113cd565b9091555050604080516080810182526001600160a01b038581168252600280546020808501828152858701898152606087018990526000938452600790925295909120845181546001600160a01b031916941693909317835593516001830155925191929091908201906103b3908261147d565b6000811180156105c057506001548111155b6105c957600080fd5b60006105d433610f47565b9050600081116105e357600080fd5b600360008381526006602052604090206007015460ff16600581111561060b5761060b61133e565b1461061557600080fd5b600082815260066020819052604090912090810182905560070180546004919060ff19166001835b02179055505050565b60008111801561065857506001548111155b61066157600080fd5b600061066c33610fb7565b90506000811161067b57600080fd5b600260008381526006602052604090206007015460ff1660058111156106a3576106a361133e565b146106ad57600080fd5b60008281526006602052604090206005810182905560070180546003919060ff191660018361063d565b600a602052600090815260409020805460018201546002830180546001600160a01b03909316939192610402906113f4565b6000546001600160a01b0316331461072057600080fd5b60038054906000610730836113cd565b9091555050604080516080810182526001600160a01b0385811682526003546020808401828152848601888152606086018890526000938452600890925294909120835181546001600160a01b031916931692909217825592516001820155915190919060028201906103b3908261147d565b6000546001600160a01b031633146107ba57600080fd5b600580549060006107ca836113cd565b9091555050604080516080810182526001600160a01b0385811682526005546020808401828152848601888152606086018890526000938452600a90925294909120835181546001600160a01b031916931692909217825592516001820155915190919060028201906103b3908261147d565b60008111801561084f57506001548111155b61085857600080fd5b60006108633361101e565b90506000811161087257600080fd5b60008281526006602052604081206007015460ff1660058111156108985761089861133e565b146108a257600080fd5b60008281526006602052604090206003810182905560070180546001919060ff1916828061063d565b6000546001600160a01b031633146108e257600080fd5b60006002541180156108f657506000600354115b801561090457506000600454115b801561091257506000600554115b61091b57600080fd5b6001805490600061092b836113cd565b91905055506040518061010001604052806001548152602001838152602001828152602001600081526020016000815260200160008152602001600081526020016000600581111561097f5761097f61133e565b9052600180546000908152600660209081526040909120835181559083015190918201906109ad908261147d565b50604082015160028201906109c2908261147d565b50606082015181600301556080820151816004015560a0820151816005015560c0820151816006015560e08201518160070160006101000a81548160ff02191690836005811115610a1557610a1561133e565b021790555050505050565b600081118015610a3257506001548111155b610a3b57600080fd5b6000610a4633610f47565b905060008111610a5557600080fd5b600082815260066020819052604090912001548114610a7357600080fd5b600460008381526006602052604090206007015460ff166005811115610a9b57610a9b61133e565b14610aa557600080fd5b600082815260066020526040902060070180546005919060ff191660018361063d565b600081118015610ada57506001548111155b610ae357600080fd5b6000610aee33611085565b905060008111610afd57600080fd5b600160008381526006602052604090206007015460ff166005811115610b2557610b2561133e565b14610b2f57600080fd5b60008281526006602052604090206004810182905560070180546002919060ff191660018361063d565b6008602052600090815260409020805460018201546002830180546001600160a01b03909316939192610402906113f4565b6060600060015411610b9c57600080fd5b60008281526006602052604081206007015460ff166005811115610bc257610bc261133e565b03610bf357505060408051808201909152601081526f1359591a58da5b994813dc99195c995960821b602082015290565b600160008381526006602052604090206007015460ff166005811115610c1b57610c1b61133e565b03610c5957505060408051808201909152601981527f526177204d6174657269616c20537570706c7920537461676500000000000000602082015290565b600260008381526006602052604090206007015460ff166005811115610c8157610c8161133e565b03610cb55750506040805180820190915260138152724d616e75666163747572696e6720537461676560681b602082015290565b600360008381526006602052604090206007015460ff166005811115610cdd57610cdd61133e565b03610d10575050604080518082019091526012815271446973747269627574696f6e20537461676560701b602082015290565b600460008381526006602052604090206007015460ff166005811115610d3857610d3861133e565b03610d6557505060408051808201909152600c81526b52657461696c20537461676560a01b602082015290565b600560008381526006602052604090206007015460ff166005811115610d8d57610d8d61133e565b03610dbb57505060408051808201909152600d81526c1359591a58da5b994814dbdb19609a1b602082015290565b919050565b60066020526000908152604090208054600182018054919291610de2906113f4565b80601f0160208091040260200160405190810160405280929190818152602001828054610e0e906113f4565b8015610e5b5780601f10610e3057610100808354040283529160200191610e5b565b820191906000526020600020905b815481529060010190602001808311610e3e57829003601f168201915b505050505090806002018054610e70906113f4565b80601f0160208091040260200160405190810160405280929190818152602001828054610e9c906113f4565b8015610ee95780601f10610ebe57610100808354040283529160200191610ee9565b820191906000526020600020905b815481529060010190602001808311610ecc57829003601f168201915b505050600384015460048501546005860154600687015460079097015495969295919450925060ff1688565b6007602052600090815260409020805460018201546002830180546001600160a01b03909316939192610402906113f4565b60008060055411610f5757600080fd5b60015b6005548111610fae576000818152600a60205260409020546001600160a01b03808516911603610f9c576000908152600a602052604090206001015492915050565b80610fa6816113cd565b915050610f5a565b50600092915050565b60008060045411610fc757600080fd5b60015b6004548111610fae576000818152600960205260409020546001600160a01b0380851691160361100c5760009081526009602052604090206001015492915050565b80611016816113cd565b915050610fca565b6000806002541161102e57600080fd5b60015b6002548111610fae576000818152600760205260409020546001600160a01b038085169116036110735760009081526007602052604090206001015492915050565b8061107d816113cd565b915050611031565b6000806003541161109557600080fd5b60015b6003548111610fae576000818152600860205260409020546001600160a01b038085169116036110da5760009081526008602052604090206001015492915050565b806110e4816113cd565b915050611098565b634e487b7160e01b600052604160045260246000fd5b600082601f83011261111357600080fd5b813567ffffffffffffffff81111561112d5761112d6110ec565b604051601f8201601f19908116603f0116810167ffffffffffffffff8111828210171561115c5761115c6110ec565b60405281815283820160200185101561117457600080fd5b816020850160208301376000918101602001919091529392505050565b6000806000606084860312156111a657600080fd5b83356001600160a01b03811681146111bd57600080fd5b9250602084013567ffffffffffffffff8111156111d957600080fd5b6111e586828701611102565b925050604084013567ffffffffffffffff81111561120257600080fd5b61120e86828701611102565b9150509250925092565b60006020828403121561122a57600080fd5b5035919050565b6000815180845260005b818110156112575760208185018101518683018201520161123b565b506000602082860101526020601f19601f83011685010191505092915050565b60018060a01b038516815283602082015260806040820152600061129e6080830185611231565b82810360608401526112b08185611231565b979650505050505050565b600080604083850312156112ce57600080fd5b823567ffffffffffffffff8111156112e557600080fd5b6112f185828601611102565b925050602083013567ffffffffffffffff81111561130e57600080fd5b61131a85828601611102565b9150509250929050565b6020815260006113376020830184611231565b9392505050565b634e487b7160e01b600052602160045260246000fd5b8881526101006020820152600061136f61010083018a611231565b8281036040840152611381818a611231565b9150508660608301528560808301528460a08301528360c0830152600683106113ba57634e487b7160e01b600052602160045260246000fd5b8260e08301529998505050505050505050565b6000600182016113ed57634e487b7160e01b600052601160045260246000fd5b5060010190565b600181811c9082168061140857607f821691505b60208210810361142857634e487b7160e01b600052602260045260246000fd5b50919050565b601f82111561147857806000526020600020601f840160051c810160208510156114555750805b601f840160051c820191505b818110156114755760008155600101611461565b50505b505050565b815167ffffffffffffffff811115611497576114976110ec565b6114ab816114a584546113f4565b8461142e565b6020601f8211600181146114df57600083156114c75750848201515b600019600385901b1c1916600184901b178455611475565b600084815260208120601f198516915b8281101561150f57878501518255602094850194600190920191016114ef565b508482101561152d5786840151600019600387901b60f8161c191681555b50505050600190811b0190555056fea264697066735822122039b0191aec9079574118065a111dd5da153dd18221c22db112138ba242c15ee664736f6c634300081b0033","opcodes":"PUSH1 0x80 PUSH1 0x40 MSTORE PUSH1 0x0 PUSH1 0x1 SSTORE PUSH1 0x0 PUSH1 0x2 SSTORE PUSH1 0x0 PUSH1 0x3 SSTORE PUSH1 0x0 PUSH1 0x4 SSTORE PUSH1 0x0 PUSH1 0x5 SSTORE CALLVALUE DUP1 ISZERO PUSH1 0x28 JUMPI PUSH1 0x0 DUP1 REVERT JUMPDEST POP PUSH1 0x0 DUP1 SLOAD PUSH1 0x1 PUSH1 0x1 PUSH1 0xA0 SHL SUB NOT AND CALLER OR SWAP1 SSTORE PUSH2 0x1572 DUP1 PUSH2 0x4A PUSH1 0x0 CODECOPY PUSH1 0x0 RETURN INVALID PUSH1 0x80 PUSH1 0x40 MSTORE CALLVALUE DUP1 ISZERO PUSH2 0x10 JUMPI PUSH1 0x0 DUP1 REVERT JUMPDEST POP PUSH1 0x4 CALLDATASIZE LT PUSH2 0x142 JUMPI PUSH1 0x0 CALLDATALOAD PUSH1 0xE0 SHR DUP1 PUSH4 0x86C18275 GT PUSH2 0xB8 JUMPI DUP1 PUSH4 0xB4A99A4E GT PUSH2 0x7C JUMPI DUP1 PUSH4 0xB4A99A4E EQ PUSH2 0x278 JUMPI DUP1 PUSH4 0xCC403069 EQ PUSH2 0x2A3 JUMPI DUP1 PUSH4 0xDD286398 EQ PUSH2 0x2B6 JUMPI DUP1 PUSH4 0xE101A2E0 EQ PUSH2 0x2BF JUMPI DUP1 PUSH4 0xEB1A06B5 EQ PUSH2 0x2DF JUMPI DUP1 PUSH4 0xEEF5CB40 EQ PUSH2 0x306 JUMPI PUSH1 0x0 DUP1 REVERT JUMPDEST DUP1 PUSH4 0x86C18275 EQ PUSH2 0x223 JUMPI DUP1 PUSH4 0x8F4183CC EQ PUSH2 0x236 JUMPI DUP1 PUSH4 0x9C03FACB EQ PUSH2 0x249 JUMPI DUP1 PUSH4 0xA48D335A EQ PUSH2 0x25C JUMPI DUP1 PUSH4 0xA95F29D9 EQ PUSH2 0x26F JUMPI PUSH1 0x0 DUP1 REVERT JUMPDEST DUP1 PUSH4 0x438E9C4D GT PUSH2 0x10A JUMPI DUP1 PUSH4 0x438E9C4D EQ PUSH2 0x1C5 JUMPI DUP1 PUSH4 0x4DEF474A EQ PUSH2 0x1CE JUMPI DUP1 PUSH4 0x59BF286F EQ PUSH2 0x1E1 JUMPI DUP1 PUSH4 0x6A992C9F EQ PUSH2 0x1F4 JUMPI DUP1 PUSH4 0x7E43D94D EQ PUSH2 0x207 JUMPI DUP1 PUSH4 0x857DDB04 EQ PUSH2 0x210 JUMPI PUSH1 0x0 DUP1 REVERT JUMPDEST DUP1 PUSH4 0x2A4AF440 EQ PUSH2 0x147 JUMPI DUP1 PUSH4 0x2B0187AC EQ PUSH2 0x15C JUMPI DUP1 PUSH4 0x2B70B08D EQ PUSH2 0x188 JUMPI DUP1 PUSH4 0x2BDB2E6B EQ PUSH2 0x19B JUMPI DUP1 PUSH4 0x3D753A1C EQ PUSH2 0x1B2 JUMPI JUMPDEST PUSH1 0x0 DUP1 REVERT JUMPDEST PUSH2 0x15A PUSH2 0x155 CALLDATASIZE PUSH1 0x4 PUSH2 0x1191 JUMP JUMPDEST PUSH2 0x319 JUMP JUMPDEST STOP JUMPDEST PUSH2 0x16F PUSH2 0x16A CALLDATASIZE PUSH1 0x4 PUSH2 0x1218 JUMP JUMPDEST PUSH2 0x3D0 JUMP JUMPDEST PUSH1 0x40 MLOAD PUSH2 0x17F SWAP5 SWAP4 SWAP3 SWAP2 SWAP1 PUSH2 0x1277 JUMP JUMPDEST PUSH1 0x40 MLOAD DUP1 SWAP2 SUB SWAP1 RETURN JUMPDEST PUSH2 0x15A PUSH2 0x196 CALLDATASIZE PUSH1 0x4 PUSH2 0x1191 JUMP JUMPDEST PUSH2 0x513 JUMP JUMPDEST PUSH2 0x1A4 PUSH1 0x4 SLOAD DUP2 JUMP JUMPDEST PUSH1 0x40 MLOAD SWAP1 DUP2 MSTORE PUSH1 0x20 ADD PUSH2 0x17F JUMP JUMPDEST PUSH2 0x15A PUSH2 0x1C0 CALLDATASIZE PUSH1 0x4 PUSH2 0x1218 JUMP JUMPDEST PUSH2 0x5AE JUMP JUMPDEST PUSH2 0x1A4 PUSH1 0x3 SLOAD DUP2 JUMP JUMPDEST PUSH2 0x15A PUSH2 0x1DC CALLDATASIZE PUSH1 0x4 PUSH2 0x1218 JUMP JUMPDEST PUSH2 0x646 JUMP JUMPDEST PUSH2 0x16F PUSH2 0x1EF CALLDATASIZE PUSH1 0x4 PUSH2 0x1218 JUMP JUMPDEST PUSH2 0x6D7 JUMP JUMPDEST PUSH2 0x15A PUSH2 0x202 CALLDATASIZE PUSH1 0x4 PUSH2 0x1191 JUMP JUMPDEST PUSH2 0x709 JUMP JUMPDEST PUSH2 0x1A4 PUSH1 0x5 SLOAD DUP2 JUMP JUMPDEST PUSH2 0x15A PUSH2 0x21E CALLDATASIZE PUSH1 0x4 PUSH2 0x1191 JUMP JUMPDEST PUSH2 0x7A3 JUMP JUMPDEST PUSH2 0x15A PUSH2 0x231 CALLDATASIZE PUSH1 0x4 PUSH2 0x1218 JUMP JUMPDEST PUSH2 0x83D JUMP JUMPDEST PUSH2 0x15A PUSH2 0x244 CALLDATASIZE PUSH1 0x4 PUSH2 0x12BB JUMP JUMPDEST PUSH2 0x8CB JUMP JUMPDEST PUSH2 0x15A PUSH2 0x257 CALLDATASIZE PUSH1 0x4 PUSH2 0x1218 JUMP JUMPDEST PUSH2 0xA20 JUMP JUMPDEST PUSH2 0x15A PUSH2 0x26A CALLDATASIZE PUSH1 0x4 PUSH2 0x1218 JUMP JUMPDEST PUSH2 0xAC8 JUMP JUMPDEST PUSH2 0x1A4 PUSH1 0x1 SLOAD DUP2 JUMP JUMPDEST PUSH1 0x0 SLOAD PUSH2 0x28B SWAP1 PUSH1 0x1 PUSH1 0x1 PUSH1 0xA0 SHL SUB AND DUP2 JUMP JUMPDEST PUSH1 0x40 MLOAD PUSH1 0x1 PUSH1 0x1 PUSH1 0xA0 SHL SUB SWAP1 SWAP2 AND DUP2 MSTORE PUSH1 0x20 ADD PUSH2 0x17F JUMP JUMPDEST PUSH2 0x16F PUSH2 0x2B1 CALLDATASIZE PUSH1 0x4 PUSH2 0x1218 JUMP JUMPDEST PUSH2 0xB59 JUMP JUMPDEST PUSH2 0x1A4 PUSH1 0x2 SLOAD DUP2 JUMP JUMPDEST PUSH2 0x2D2 PUSH2 0x2CD CALLDATASIZE PUSH1 0x4 PUSH2 0x1218 JUMP JUMPDEST PUSH2 0xB8B JUMP JUMPDEST PUSH1 0x40 MLOAD PUSH2 0x17F SWAP2 SWAP1 PUSH2 0x1324 JUMP JUMPDEST PUSH2 0x2F2 PUSH2 0x2ED CALLDATASIZE PUSH1 0x4 PUSH2 0x1218 JUMP JUMPDEST PUSH2 0xDC0 JUMP JUMPDEST PUSH1 0x40 MLOAD PUSH2 0x17F SWAP9 SWAP8 SWAP7 SWAP6 SWAP5 SWAP4 SWAP3 SWAP2 SWAP1 PUSH2 0x1354 JUMP JUMPDEST PUSH2 0x16F PUSH2 0x314 CALLDATASIZE PUSH1 0x4 PUSH2 0x1218 JUMP JUMPDEST PUSH2 0xF15 JUMP JUMPDEST PUSH1 0x0 SLOAD PUSH1 0x1 PUSH1 0x1 PUSH1 0xA0 SHL SUB AND CALLER EQ PUSH2 0x330 JUMPI PUSH1 0x0 DUP1 REVERT JUMPDEST PUSH1 0x4 DUP1 SLOAD SWAP1 PUSH1 0x0 PUSH2 0x340 DUP4 PUSH2 0x13CD JUMP JUMPDEST SWAP1 SWAP2 SSTORE POP POP PUSH1 0x40 DUP1 MLOAD PUSH1 0x80 DUP2 ADD DUP3 MSTORE PUSH1 0x1 PUSH1 0x1 PUSH1 0xA0 SHL SUB DUP6 DUP2 AND DUP3 MSTORE PUSH1 0x4 SLOAD PUSH1 0x20 DUP1 DUP5 ADD DUP3 DUP2 MSTORE DUP5 DUP7 ADD DUP9 DUP2 MSTORE PUSH1 0x60 DUP7 ADD DUP9 SWAP1 MSTORE PUSH1 0x0 SWAP4 DUP5 MSTORE PUSH1 0x9 SWAP1 SWAP3 MSTORE SWAP5 SWAP1 SWAP2 KECCAK256 DUP4 MLOAD DUP2 SLOAD PUSH1 0x1 PUSH1 0x1 PUSH1 0xA0 SHL SUB NOT AND SWAP4 AND SWAP3 SWAP1 SWAP3 OR DUP3 SSTORE SWAP3 MLOAD PUSH1 0x1 DUP3 ADD SSTORE SWAP2 MLOAD SWAP1 SWAP2 SWAP1 PUSH1 0x2 DUP3 ADD SWAP1 PUSH2 0x3B3 SWAP1 DUP3 PUSH2 0x147D JUMP JUMPDEST POP PUSH1 0x60 DUP3 ADD MLOAD PUSH1 0x3 DUP3 ADD SWAP1 PUSH2 0x3C8 SWAP1 DUP3 PUSH2 0x147D JUMP JUMPDEST POP POP POP POP POP POP JUMP JUMPDEST PUSH1 0x9 PUSH1 0x20 MSTORE PUSH1 0x0 SWAP1 DUP2 MSTORE PUSH1 0x40 SWAP1 KECCAK256 DUP1 SLOAD PUSH1 0x1 DUP3 ADD SLOAD PUSH1 0x2 DUP4 ADD DUP1 SLOAD PUSH1 0x1 PUSH1 0x1 PUSH1 0xA0 SHL SUB SWAP1 SWAP4 AND SWAP4 SWAP2 SWAP3 PUSH2 0x402 SWAP1 PUSH2 0x13F4 JUMP JUMPDEST DUP1 PUSH1 0x1F ADD PUSH1 0x20 DUP1 SWAP2 DIV MUL PUSH1 0x20 ADD PUSH1 0x40 MLOAD SWAP1 DUP2 ADD PUSH1 0x40 MSTORE DUP1 SWAP3 SWAP2 SWAP1 DUP2 DUP2 MSTORE PUSH1 0x20 ADD DUP3 DUP1 SLOAD PUSH2 0x42E SWAP1 PUSH2 0x13F4 JUMP JUMPDEST DUP1 ISZERO PUSH2 0x47B JUMPI DUP1 PUSH1 0x1F LT PUSH2 0x450 JUMPI PUSH2 0x100 DUP1 DUP4 SLOAD DIV MUL DUP4 MSTORE SWAP2 PUSH1 0x20 ADD SWAP2 PUSH2 0x47B JUMP JUMPDEST DUP3 ADD SWAP2 SWAP1 PUSH1 0x0 MSTORE PUSH1 0x20 PUSH1 0x0 KECCAK256 SWAP1 JUMPDEST DUP2 SLOAD DUP2 MSTORE SWAP1 PUSH1 0x1 ADD SWAP1 PUSH1 0x20 ADD DUP1 DUP4 GT PUSH2 0x45E JUMPI DUP3 SWAP1 SUB PUSH1 0x1F AND DUP3 ADD SWAP2 JUMPDEST POP POP POP POP POP SWAP1 DUP1 PUSH1 0x3 ADD DUP1 SLOAD PUSH2 0x490 SWAP1 PUSH2 0x13F4 JUMP JUMPDEST DUP1 PUSH1 0x1F ADD PUSH1 0x20 DUP1 SWAP2 DIV MUL PUSH1 0x20 ADD PUSH1 0x40 MLOAD SWAP1 DUP2 ADD PUSH1 0x40 MSTORE DUP1 SWAP3 SWAP2 SWAP1 DUP2 DUP2 MSTORE PUSH1 0x20 ADD DUP3 DUP1 SLOAD PUSH2 0x4BC SWAP1 PUSH2 0x13F4 JUMP JUMPDEST DUP1 ISZERO PUSH2 0x509 JUMPI DUP1 PUSH1 0x1F LT PUSH2 0x4DE JUMPI PUSH2 0x100 DUP1 DUP4 SLOAD DIV MUL DUP4 MSTORE SWAP2 PUSH1 0x20 ADD SWAP2 PUSH2 0x509 JUMP JUMPDEST DUP3 ADD SWAP2 SWAP1 PUSH1 0x0 MSTORE PUSH1 0x20 PUSH1 0x0 KECCAK256 SWAP1 JUMPDEST DUP2 SLOAD DUP2 MSTORE SWAP1 PUSH1 0x1 ADD SWAP1 PUSH1 0x20 ADD DUP1 DUP4 GT PUSH2 0x4EC JUMPI DUP3 SWAP1 SUB PUSH1 0x1F AND DUP3 ADD SWAP2 JUMPDEST POP POP POP POP POP SWAP1 POP DUP5 JUMP JUMPDEST PUSH1 0x0 SLOAD PUSH1 0x1 PUSH1 0x1 PUSH1 0xA0 SHL SUB AND CALLER EQ PUSH2 0x52A JUMPI PUSH1 0x0 DUP1 REVERT JUMPDEST PUSH1 0x2 DUP1 SLOAD SWAP1 PUSH1 0x0 PUSH2 0x53A DUP4 PUSH2 0x13CD JUMP JUMPDEST SWAP1 SWAP2 SSTORE POP POP PUSH1 0x40 DUP1 MLOAD PUSH1 0x80 DUP2 ADD DUP3 MSTORE PUSH1 0x1 PUSH1 0x1 PUSH1 0xA0 SHL SUB DUP6 DUP2 AND DUP3 MSTORE PUSH1 0x2 DUP1 SLOAD PUSH1 0x20 DUP1 DUP6 ADD DUP3 DUP2 MSTORE DUP6 DUP8 ADD DUP10 DUP2 MSTORE PUSH1 0x60 DUP8 ADD DUP10 SWAP1 MSTORE PUSH1 0x0 SWAP4 DUP5 MSTORE PUSH1 0x7 SWAP1 SWAP3 MSTORE SWAP6 SWAP1 SWAP2 KECCAK256 DUP5 MLOAD DUP2 SLOAD PUSH1 0x1 PUSH1 0x1 PUSH1 0xA0 SHL SUB NOT AND SWAP5 AND SWAP4 SWAP1 SWAP4 OR DUP4 SSTORE SWAP4 MLOAD PUSH1 0x1 DUP4 ADD SSTORE SWAP3 MLOAD SWAP2 SWAP3 SWAP1 SWAP2 SWAP1 DUP3 ADD SWAP1 PUSH2 0x3B3 SWAP1 DUP3 PUSH2 0x147D JUMP JUMPDEST PUSH1 0x0 DUP2 GT DUP1 ISZERO PUSH2 0x5C0 JUMPI POP PUSH1 0x1 SLOAD DUP2 GT ISZERO JUMPDEST PUSH2 0x5C9 JUMPI PUSH1 0x0 DUP1 REVERT JUMPDEST PUSH1 0x0 PUSH2 0x5D4 CALLER PUSH2 0xF47 JUMP JUMPDEST SWAP1 POP PUSH1 0x0 DUP2 GT PUSH2 0x5E3 JUMPI PUSH1 0x0 DUP1 REVERT JUMPDEST PUSH1 0x3 PUSH1 0x0 DUP4 DUP2 MSTORE PUSH1 0x6 PUSH1 0x20 MSTORE PUSH1 0x40 SWAP1 KECCAK256 PUSH1 0x7 ADD SLOAD PUSH1 0xFF AND PUSH1 0x5 DUP2 GT ISZERO PUSH2 0x60B JUMPI PUSH2 0x60B PUSH2 0x133E JUMP JUMPDEST EQ PUSH2 0x615 JUMPI PUSH1 0x0 DUP1 REVERT JUMPDEST PUSH1 0x0 DUP3 DUP2 MSTORE PUSH1 0x6 PUSH1 0x20 DUP2 SWAP1 MSTORE PUSH1 0x40 SWAP1 SWAP2 KECCAK256 SWAP1 DUP2 ADD DUP3 SWAP1 SSTORE PUSH1 0x7 ADD DUP1 SLOAD PUSH1 0x4 SWAP2 SWAP1 PUSH1 0xFF NOT AND PUSH1 0x1 DUP4 JUMPDEST MUL OR SWAP1 SSTORE POP POP POP JUMP JUMPDEST PUSH1 0x0 DUP2 GT DUP1 ISZERO PUSH2 0x658 JUMPI POP PUSH1 0x1 SLOAD DUP2 GT ISZERO JUMPDEST PUSH2 0x661 JUMPI PUSH1 0x0 DUP1 REVERT JUMPDEST PUSH1 0x0 PUSH2 0x66C CALLER PUSH2 0xFB7 JUMP JUMPDEST SWAP1 POP PUSH1 0x0 DUP2 GT PUSH2 0x67B JUMPI PUSH1 0x0 DUP1 REVERT JUMPDEST PUSH1 0x2 PUSH1 0x0 DUP4 DUP2 MSTORE PUSH1 0x6 PUSH1 0x20 MSTORE PUSH1 0x40 SWAP1 KECCAK256 PUSH1 0x7 ADD SLOAD PUSH1 0xFF AND PUSH1 0x5 DUP2 GT ISZERO PUSH2 0x6A3 JUMPI PUSH2 0x6A3 PUSH2 0x133E JUMP JUMPDEST EQ PUSH2 0x6AD JUMPI PUSH1 0x0 DUP1 REVERT JUMPDEST PUSH1 0x0 DUP3 DUP2 MSTORE PUSH1 0x6 PUSH1 0x20 MSTORE PUSH1 0x40 SWAP1 KECCAK256 PUSH1 0x5 DUP2 ADD DUP3 SWAP1 SSTORE PUSH1 0x7 ADD DUP1 SLOAD PUSH1 0x3 SWAP2 SWAP1 PUSH1 0xFF NOT AND PUSH1 0x1 DUP4 PUSH2 0x63D JUMP JUMPDEST PUSH1 0xA PUSH1 0x20 MSTORE PUSH1 0x0 SWAP1 DUP2 MSTORE PUSH1 0x40 SWAP1 KECCAK256 DUP1 SLOAD PUSH1 0x1 DUP3 ADD SLOAD PUSH1 0x2 DUP4 ADD DUP1 SLOAD PUSH1 0x1 PUSH1 0x1 PUSH1 0xA0 SHL SUB SWAP1 SWAP4 AND SWAP4 SWAP2 SWAP3 PUSH2 0x402 SWAP1 PUSH2 0x13F4 JUMP JUMPDEST PUSH1 0x0 SLOAD PUSH1 0x1 PUSH1 0x1 PUSH1 0xA0 SHL SUB AND CALLER EQ PUSH2 0x720 JUMPI PUSH1 0x0 DUP1 REVERT JUMPDEST PUSH1 0x3 DUP1 SLOAD SWAP1 PUSH1 0x0 PUSH2 0x730 DUP4 PUSH2 0x13CD JUMP JUMPDEST SWAP1 SWAP2 SSTORE POP POP PUSH1 0x40 DUP1 MLOAD PUSH1 0x80 DUP2 ADD DUP3 MSTORE PUSH1 0x1 PUSH1 0x1 PUSH1 0xA0 SHL SUB DUP6 DUP2 AND DUP3 MSTORE PUSH1 0x3 SLOAD PUSH1 0x20 DUP1 DUP5 ADD DUP3 DUP2 MSTORE DUP5 DUP7 ADD DUP9 DUP2 MSTORE PUSH1 0x60 DUP7 ADD DUP9 SWAP1 MSTORE PUSH1 0x0 SWAP4 DUP5 MSTORE PUSH1 0x8 SWAP1 SWAP3 MSTORE SWAP5 SWAP1 SWAP2 KECCAK256 DUP4 MLOAD DUP2 SLOAD PUSH1 0x1 PUSH1 0x1 PUSH1 0xA0 SHL SUB NOT AND SWAP4 AND SWAP3 SWAP1 SWAP3 OR DUP3 SSTORE SWAP3 MLOAD PUSH1 0x1 DUP3 ADD SSTORE SWAP2 MLOAD SWAP1 SWAP2 SWAP1 PUSH1 0x2 DUP3 ADD SWAP1 PUSH2 0x3B3 SWAP1 DUP3 PUSH2 0x147D JUMP JUMPDEST PUSH1 0x0 SLOAD PUSH1 0x1 PUSH1 0x1 PUSH1 0xA0 SHL SUB AND CALLER EQ PUSH2 0x7BA JUMPI PUSH1 0x0 DUP1 REVERT JUMPDEST PUSH1 0x5 DUP1 SLOAD SWAP1 PUSH1 0x0 PUSH2 0x7CA DUP4 PUSH2 0x13CD JUMP JUMPDEST SWAP1 SWAP2 SSTORE POP POP PUSH1 0x40 DUP1 MLOAD PUSH1 0x80 DUP2 ADD DUP3 MSTORE PUSH1 0x1 PUSH1 0x1 PUSH1 0xA0 SHL SUB DUP6 DUP2 AND DUP3 MSTORE PUSH1 0x5 SLOAD PUSH1 0x20 DUP1 DUP5 ADD DUP3 DUP2 MSTORE DUP5 DUP7 ADD DUP9 DUP2 MSTORE PUSH1 0x60 DUP7 ADD DUP9 SWAP1 MSTORE PUSH1 0x0 SWAP4 DUP5 MSTORE PUSH1 0xA SWAP1 SWAP3 MSTORE SWAP5 SWAP1 SWAP2 KECCAK256 DUP4 MLOAD DUP2 SLOAD PUSH1 0x1 PUSH1 0x1 PUSH1 0xA0 SHL SUB NOT AND SWAP4 AND SWAP3 SWAP1 SWAP3 OR DUP3 SSTORE SWAP3 MLOAD PUSH1 0x1 DUP3 ADD SSTORE SWAP2 MLOAD SWAP1 SWAP2 SWAP1 PUSH1 0x2 DUP3 ADD SWAP1 PUSH2 0x3B3 SWAP1 DUP3 PUSH2 0x147D JUMP JUMPDEST PUSH1 0x0 DUP2 GT DUP1 ISZERO PUSH2 0x84F JUMPI POP PUSH1 0x1 SLOAD DUP2 GT ISZERO JUMPDEST PUSH2 0x858 JUMPI PUSH1 0x0 DUP1 REVERT JUMPDEST PUSH1 0x0 PUSH2 0x863 CALLER PUSH2 0x101E JUMP JUMPDEST SWAP1 POP PUSH1 0x0 DUP2 GT PUSH2 0x872 JUMPI PUSH1 0x0 DUP1 REVERT JUMPDEST PUSH1 0x0 DUP3 DUP2 MSTORE PUSH1 0x6 PUSH1 0x20 MSTORE PUSH1 0x40 DUP2 KECCAK256 PUSH1 0x7 ADD SLOAD PUSH1 0xFF AND PUSH1 0x5 DUP2 GT ISZERO PUSH2 0x898 JUMPI PUSH2 0x898 PUSH2 0x133E JUMP JUMPDEST EQ PUSH2 0x8A2 JUMPI PUSH1 0x0 DUP1 REVERT JUMPDEST PUSH1 0x0 DUP3 DUP2 MSTORE PUSH1 0x6 PUSH1 0x20 MSTORE PUSH1 0x40 SWAP1 KECCAK256 PUSH1 0x3 DUP2 ADD DUP3 SWAP1 SSTORE PUSH1 0x7 ADD DUP1 SLOAD PUSH1 0x1 SWAP2 SWAP1 PUSH1 0xFF NOT AND DUP3 DUP1 PUSH2 0x63D JUMP JUMPDEST PUSH1 0x0 SLOAD PUSH1 0x1 PUSH1 0x1 PUSH1 0xA0 SHL SUB AND CALLER EQ PUSH2 0x8E2 JUMPI PUSH1 0x0 DUP1 REVERT JUMPDEST PUSH1 0x0 PUSH1 0x2 SLOAD GT DUP1 ISZERO PUSH2 0x8F6 JUMPI POP PUSH1 0x0 PUSH1 0x3 SLOAD GT JUMPDEST DUP1 ISZERO PUSH2 0x904 JUMPI POP PUSH1 0x0 PUSH1 0x4 SLOAD GT JUMPDEST DUP1 ISZERO PUSH2 0x912 JUMPI POP PUSH1 0x0 PUSH1 0x5 SLOAD GT JUMPDEST PUSH2 0x91B JUMPI PUSH1 0x0 DUP1 REVERT JUMPDEST PUSH1 0x1 DUP1 SLOAD SWAP1 PUSH1 0x0 PUSH2 0x92B DUP4 PUSH2 0x13CD JUMP JUMPDEST SWAP2 SWAP1 POP SSTORE POP PUSH1 0x40 MLOAD DUP1 PUSH2 0x100 ADD PUSH1 0x40 MSTORE DUP1 PUSH1 0x1 SLOAD DUP2 MSTORE PUSH1 0x20 ADD DUP4 DUP2 MSTORE PUSH1 0x20 ADD DUP3 DUP2 MSTORE PUSH1 0x20 ADD PUSH1 0x0 DUP2 MSTORE PUSH1 0x20 ADD PUSH1 0x0 DUP2 MSTORE PUSH1 0x20 ADD PUSH1 0x0 DUP2 MSTORE PUSH1 0x20 ADD PUSH1 0x0 DUP2 MSTORE PUSH1 0x20 ADD PUSH1 0x0 PUSH1 0x5 DUP2 GT ISZERO PUSH2 0x97F JUMPI PUSH2 0x97F PUSH2 0x133E JUMP JUMPDEST SWAP1 MSTORE PUSH1 0x1 DUP1 SLOAD PUSH1 0x0 SWAP1 DUP2 MSTORE PUSH1 0x6 PUSH1 0x20 SWAP1 DUP2 MSTORE PUSH1 0x40 SWAP1 SWAP2 KECCAK256 DUP4 MLOAD DUP2 SSTORE SWAP1 DUP4 ADD MLOAD SWAP1 SWAP2 DUP3 ADD SWAP1 PUSH2 0x9AD SWAP1 DUP3 PUSH2 0x147D JUMP JUMPDEST POP PUSH1 0x40 DUP3 ADD MLOAD PUSH1 0x2 DUP3 ADD SWAP1 PUSH2 0x9C2 SWAP1 DUP3 PUSH2 0x147D JUMP JUMPDEST POP PUSH1 0x60 DUP3 ADD MLOAD DUP2 PUSH1 0x3 ADD SSTORE PUSH1 0x80 DUP3 ADD MLOAD DUP2 PUSH1 0x4 ADD SSTORE PUSH1 0xA0 DUP3 ADD MLOAD DUP2 PUSH1 0x5 ADD SSTORE PUSH1 0xC0 DUP3 ADD MLOAD DUP2 PUSH1 0x6 ADD SSTORE PUSH1 0xE0 DUP3 ADD MLOAD DUP2 PUSH1 0x7 ADD PUSH1 0x0 PUSH2 0x100 EXP DUP2 SLOAD DUP2 PUSH1 0xFF MUL NOT AND SWAP1 DUP4 PUSH1 0x5 DUP2 GT ISZERO PUSH2 0xA15 JUMPI PUSH2 0xA15 PUSH2 0x133E JUMP JUMPDEST MUL OR SWAP1 SSTORE POP POP POP POP POP JUMP JUMPDEST PUSH1 0x0 DUP2 GT DUP1 ISZERO PUSH2 0xA32 JUMPI POP PUSH1 0x1 SLOAD DUP2 GT ISZERO JUMPDEST PUSH2 0xA3B JUMPI PUSH1 0x0 DUP1 REVERT JUMPDEST PUSH1 0x0 PUSH2 0xA46 CALLER PUSH2 0xF47 JUMP JUMPDEST SWAP1 POP PUSH1 0x0 DUP2 GT PUSH2 0xA55 JUMPI PUSH1 0x0 DUP1 REVERT JUMPDEST PUSH1 0x0 DUP3 DUP2 MSTORE PUSH1 0x6 PUSH1 0x20 DUP2 SWAP1 MSTORE PUSH1 0x40 SWAP1 SWAP2 KECCAK256 ADD SLOAD DUP2 EQ PUSH2 0xA73 JUMPI PUSH1 0x0 DUP1 REVERT JUMPDEST PUSH1 0x4 PUSH1 0x0 DUP4 DUP2 MSTORE PUSH1 0x6 PUSH1 0x20 MSTORE PUSH1 0x40 SWAP1 KECCAK256 PUSH1 0x7 ADD SLOAD PUSH1 0xFF AND PUSH1 0x5 DUP2 GT ISZERO PUSH2 0xA9B JUMPI PUSH2 0xA9B PUSH2 0x133E JUMP JUMPDEST EQ PUSH2 0xAA5 JUMPI PUSH1 0x0 DUP1 REVERT JUMPDEST PUSH1 0x0 DUP3 DUP2 MSTORE PUSH1 0x6 PUSH1 0x20 MSTORE PUSH1 0x40 SWAP1 KECCAK256 PUSH1 0x7 ADD DUP1 SLOAD PUSH1 0x5 SWAP2 SWAP1 PUSH1 0xFF NOT AND PUSH1 0x1 DUP4 PUSH2 0x63D JUMP JUMPDEST PUSH1 0x0 DUP2 GT DUP1 ISZERO PUSH2 0xADA JUMPI POP PUSH1 0x1 SLOAD DUP2 GT ISZERO JUMPDEST PUSH2 0xAE3 JUMPI PUSH1 0x0 DUP1 REVERT JUMPDEST PUSH1 0x0 PUSH2 0xAEE CALLER PUSH2 0x1085 JUMP JUMPDEST SWAP1 POP PUSH1 0x0 DUP2 GT PUSH2 0xAFD JUMPI PUSH1 0x0 DUP1 REVERT JUMPDEST PUSH1 0x1 PUSH1 0x0 DUP4 DUP2 MSTORE PUSH1 0x6 PUSH1 0x20 MSTORE PUSH1 0x40 SWAP1 KECCAK256 PUSH1 0x7 ADD SLOAD PUSH1 0xFF AND PUSH1 0x5 DUP2 GT ISZERO PUSH2 0xB25 JUMPI PUSH2 0xB25 PUSH2 0x133E JUMP JUMPDEST EQ PUSH2 0xB2F JUMPI PUSH1 0x0 DUP1 REVERT JUMPDEST PUSH1 0x0 DUP3 DUP2 MSTORE PUSH1 0x6 PUSH1 0x20 MSTORE PUSH1 0x40 SWAP1 KECCAK256 PUSH1 0x4 DUP2 ADD DUP3 SWAP1 SSTORE PUSH1 0x7 ADD DUP1 SLOAD PUSH1 0x2 SWAP2 SWAP1 PUSH1 0xFF NOT AND PUSH1 0x1 DUP4 PUSH2 0x63D JUMP JUMPDEST PUSH1 0x8 PUSH1 0x20 MSTORE PUSH1 0x0 SWAP1 DUP2 MSTORE PUSH1 0x40 SWAP1 KECCAK256 DUP1 SLOAD PUSH1 0x1 DUP3 ADD SLOAD PUSH1 0x2 DUP4 ADD DUP1 SLOAD PUSH1 0x1 PUSH1 0x1 PUSH1 0xA0 SHL SUB SWAP1 SWAP4 AND SWAP4 SWAP2 SWAP3 PUSH2 0x402 SWAP1 PUSH2 0x13F4 JUMP JUMPDEST PUSH1 0x60 PUSH1 0x0 PUSH1 0x1 SLOAD GT PUSH2 0xB9C JUMPI PUSH1 0x0 DUP1 REVERT JUMPDEST PUSH1 0x0 DUP3 DUP2 MSTORE PUSH1 0x6 PUSH1 0x20 MSTORE PUSH1 0x40 DUP2 KECCAK256 PUSH1 0x7 ADD SLOAD PUSH1 0xFF AND PUSH1 0x5 DUP2 GT ISZERO PUSH2 0xBC2 JUMPI PUSH2 0xBC2 PUSH2 0x133E JUMP JUMPDEST SUB PUSH2 0xBF3 JUMPI POP POP PUSH1 0x40 DUP1 MLOAD DUP1 DUP3 ADD SWAP1 SWAP2 MSTORE PUSH1 0x10 DUP2 MSTORE PUSH16 0x1359591A58DA5B994813DC99195C9959 PUSH1 0x82 SHL PUSH1 0x20 DUP3 ADD MSTORE SWAP1 JUMP JUMPDEST PUSH1 0x1 PUSH1 0x0 DUP4 DUP2 MSTORE PUSH1 0x6 PUSH1 0x20 MSTORE PUSH1 0x40 SWAP1 KECCAK256 PUSH1 0x7 ADD SLOAD PUSH1 0xFF AND PUSH1 0x5 DUP2 GT ISZERO PUSH2 0xC1B JUMPI PUSH2 0xC1B PUSH2 0x133E JUMP JUMPDEST SUB PUSH2 0xC59 JUMPI POP POP PUSH1 0x40 DUP1 MLOAD DUP1 DUP3 ADD SWAP1 SWAP2 MSTORE PUSH1 0x19 DUP2 MSTORE PUSH32 0x526177204D6174657269616C20537570706C7920537461676500000000000000 PUSH1 0x20 DUP3 ADD MSTORE SWAP1 JUMP JUMPDEST PUSH1 0x2 PUSH1 0x0 DUP4 DUP2 MSTORE PUSH1 0x6 PUSH1 0x20 MSTORE PUSH1 0x40 SWAP1 KECCAK256 PUSH1 0x7 ADD SLOAD PUSH1 0xFF AND PUSH1 0x5 DUP2 GT ISZERO PUSH2 0xC81 JUMPI PUSH2 0xC81 PUSH2 0x133E JUMP JUMPDEST SUB PUSH2 0xCB5 JUMPI POP POP PUSH1 0x40 DUP1 MLOAD DUP1 DUP3 ADD SWAP1 SWAP2 MSTORE PUSH1 0x13 DUP2 MSTORE PUSH19 0x4D616E75666163747572696E67205374616765 PUSH1 0x68 SHL PUSH1 0x20 DUP3 ADD MSTORE SWAP1 JUMP JUMPDEST PUSH1 0x3 PUSH1 0x0 DUP4 DUP2 MSTORE PUSH1 0x6 PUSH1 0x20 MSTORE PUSH1 0x40 SWAP1 KECCAK256 PUSH1 0x7 ADD SLOAD PUSH1 0xFF AND PUSH1 0x5 DUP2 GT ISZERO PUSH2 0xCDD JUMPI PUSH2 0xCDD PUSH2 0x133E JUMP JUMPDEST SUB PUSH2 0xD10 JUMPI POP POP PUSH1 0x40 DUP1 MLOAD DUP1 DUP3 ADD SWAP1 SWAP2 MSTORE PUSH1 0x12 DUP2 MSTORE PUSH18 0x446973747269627574696F6E205374616765 PUSH1 0x70 SHL PUSH1 0x20 DUP3 ADD MSTORE SWAP1 JUMP JUMPDEST PUSH1 0x4 PUSH1 0x0 DUP4 DUP2 MSTORE PUSH1 0x6 PUSH1 0x20 MSTORE PUSH1 0x40 SWAP1 KECCAK256 PUSH1 0x7 ADD SLOAD PUSH1 0xFF AND PUSH1 0x5 DUP2 GT ISZERO PUSH2 0xD38 JUMPI PUSH2 0xD38 PUSH2 0x133E JUMP JUMPDEST SUB PUSH2 0xD65 JUMPI POP POP PUSH1 0x40 DUP1 MLOAD DUP1 DUP3 ADD SWAP1 SWAP2 MSTORE PUSH1 0xC DUP2 MSTORE PUSH12 0x52657461696C205374616765 PUSH1 0xA0 SHL PUSH1 0x20 DUP3 ADD MSTORE SWAP1 JUMP JUMPDEST PUSH1 0x5 PUSH1 0x0 DUP4 DUP2 MSTORE PUSH1 0x6 PUSH1 0x20 MSTORE PUSH1 0x40 SWAP1 KECCAK256 PUSH1 0x7 ADD SLOAD PUSH1 0xFF AND PUSH1 0x5 DUP2 GT ISZERO PUSH2 0xD8D JUMPI PUSH2 0xD8D PUSH2 0x133E JUMP JUMPDEST SUB PUSH2 0xDBB JUMPI POP POP PUSH1 0x40 DUP1 MLOAD DUP1 DUP3 ADD SWAP1 SWAP2 MSTORE PUSH1 0xD DUP2 MSTORE PUSH13 0x1359591A58DA5B994814DBDB19 PUSH1 0x9A SHL PUSH1 0x20 DUP3 ADD MSTORE SWAP1 JUMP JUMPDEST SWAP2 SWAP1 POP JUMP JUMPDEST PUSH1 0x6 PUSH1 0x20 MSTORE PUSH1 0x0 SWAP1 DUP2 MSTORE PUSH1 0x40 SWAP1 KECCAK256 DUP1 SLOAD PUSH1 0x1 DUP3 ADD DUP1 SLOAD SWAP2 SWAP3 SWAP2 PUSH2 0xDE2 SWAP1 PUSH2 0x13F4 JUMP JUMPDEST DUP1 PUSH1 0x1F ADD PUSH1 0x20 DUP1 SWAP2 DIV MUL PUSH1 0x20 ADD PUSH1 0x40 MLOAD SWAP1 DUP2 ADD PUSH1 0x40 MSTORE DUP1 SWAP3 SWAP2 SWAP1 DUP2 DUP2 MSTORE PUSH1 0x20 ADD DUP3 DUP1 SLOAD PUSH2 0xE0E SWAP1 PUSH2 0x13F4 JUMP JUMPDEST DUP1 ISZERO PUSH2 0xE5B JUMPI DUP1 PUSH1 0x1F LT PUSH2 0xE30 JUMPI PUSH2 0x100 DUP1 DUP4 SLOAD DIV MUL DUP4 MSTORE SWAP2 PUSH1 0x20 ADD SWAP2 PUSH2 0xE5B JUMP JUMPDEST DUP3 ADD SWAP2 SWAP1 PUSH1 0x0 MSTORE PUSH1 0x20 PUSH1 0x0 KECCAK256 SWAP1 JUMPDEST DUP2 SLOAD DUP2 MSTORE SWAP1 PUSH1 0x1 ADD SWAP1 PUSH1 0x20 ADD DUP1 DUP4 GT PUSH2 0xE3E JUMPI DUP3 SWAP1 SUB PUSH1 0x1F AND DUP3 ADD SWAP2 JUMPDEST POP POP POP POP POP SWAP1 DUP1 PUSH1 0x2 ADD DUP1 SLOAD PUSH2 0xE70 SWAP1 PUSH2 0x13F4 JUMP JUMPDEST DUP1 PUSH1 0x1F ADD PUSH1 0x20 DUP1 SWAP2 DIV MUL PUSH1 0x20 ADD PUSH1 0x40 MLOAD SWAP1 DUP2 ADD PUSH1 0x40 MSTORE DUP1 SWAP3 SWAP2 SWAP1 DUP2 DUP2 MSTORE PUSH1 0x20 ADD DUP3 DUP1 SLOAD PUSH2 0xE9C SWAP1 PUSH2 0x13F4 JUMP JUMPDEST DUP1 ISZERO PUSH2 0xEE9 JUMPI DUP1 PUSH1 0x1F LT PUSH2 0xEBE JUMPI PUSH2 0x100 DUP1 DUP4 SLOAD DIV MUL DUP4 MSTORE SWAP2 PUSH1 0x20 ADD SWAP2 PUSH2 0xEE9 JUMP JUMPDEST DUP3 ADD SWAP2 SWAP1 PUSH1 0x0 MSTORE PUSH1 0x20 PUSH1 0x0 KECCAK256 SWAP1 JUMPDEST DUP2 SLOAD DUP2 MSTORE SWAP1 PUSH1 0x1 ADD SWAP1 PUSH1 0x20 ADD DUP1 DUP4 GT PUSH2 0xECC JUMPI DUP3 SWAP1 SUB PUSH1 0x1F AND DUP3 ADD SWAP2 JUMPDEST POP POP POP PUSH1 0x3 DUP5 ADD SLOAD PUSH1 0x4 DUP6 ADD SLOAD PUSH1 0x5 DUP7 ADD SLOAD PUSH1 0x6 DUP8 ADD SLOAD PUSH1 0x7 SWAP1 SWAP8 ADD SLOAD SWAP6 SWAP7 SWAP3 SWAP6 SWAP2 SWAP5 POP SWAP3 POP PUSH1 0xFF AND DUP9 JUMP JUMPDEST PUSH1 0x7 PUSH1 0x20 MSTORE PUSH1 0x0 SWAP1 DUP2 MSTORE PUSH1 0x40 SWAP1 KECCAK256 DUP1 SLOAD PUSH1 0x1 DUP3 ADD SLOAD PUSH1 0x2 DUP4 ADD DUP1 SLOAD PUSH1 0x1 PUSH1 0x1 PUSH1 0xA0 SHL SUB SWAP1 SWAP4 AND SWAP4 SWAP2 SWAP3 PUSH2 0x402 SWAP1 PUSH2 0x13F4 JUMP JUMPDEST PUSH1 0x0 DUP1 PUSH1 0x5 SLOAD GT PUSH2 0xF57 JUMPI PUSH1 0x0 DUP1 REVERT JUMPDEST PUSH1 0x1 JUMPDEST PUSH1 0x5 SLOAD DUP2 GT PUSH2 0xFAE JUMPI PUSH1 0x0 DUP2 DUP2 MSTORE PUSH1 0xA PUSH1 0x20 MSTORE PUSH1 0x40 SWAP1 KECCAK256 SLOAD PUSH1 0x1 PUSH1 0x1 PUSH1 0xA0 SHL SUB DUP1 DUP6 AND SWAP2 AND SUB PUSH2 0xF9C JUMPI PUSH1 0x0 SWAP1 DUP2 MSTORE PUSH1 0xA PUSH1 0x20 MSTORE PUSH1 0x40 SWAP1 KECCAK256 PUSH1 0x1 ADD SLOAD SWAP3 SWAP2 POP POP JUMP JUMPDEST DUP1 PUSH2 0xFA6 DUP2 PUSH2 0x13CD JUMP JUMPDEST SWAP2 POP POP PUSH2 0xF5A JUMP JUMPDEST POP PUSH1 0x0 SWAP3 SWAP2 POP POP JUMP JUMPDEST PUSH1 0x0 DUP1 PUSH1 0x4 SLOAD GT PUSH2 0xFC7 JUMPI PUSH1 0x0 DUP1 REVERT JUMPDEST PUSH1 0x1 JUMPDEST PUSH1 0x4 SLOAD DUP2 GT PUSH2 0xFAE JUMPI PUSH1 0x0 DUP2 DUP2 MSTORE PUSH1 0x9 PUSH1 0x20 MSTORE PUSH1 0x40 SWAP1 KECCAK256 SLOAD PUSH1 0x1 PUSH1 0x1 PUSH1 0xA0 SHL SUB DUP1 DUP6 AND SWAP2 AND SUB PUSH2 0x100C JUMPI PUSH1 0x0 SWAP1 DUP2 MSTORE PUSH1 0x9 PUSH1 0x20 MSTORE PUSH1 0x40 SWAP1 KECCAK256 PUSH1 0x1 ADD SLOAD SWAP3 SWAP2 POP POP JUMP JUMPDEST DUP1 PUSH2 0x1016 DUP2 PUSH2 0x13CD JUMP JUMPDEST SWAP2 POP POP PUSH2 0xFCA JUMP JUMPDEST PUSH1 0x0 DUP1 PUSH1 0x2 SLOAD GT PUSH2 0x102E JUMPI PUSH1 0x0 DUP1 REVERT JUMPDEST PUSH1 0x1 JUMPDEST PUSH1 0x2 SLOAD DUP2 GT PUSH2 0xFAE JUMPI PUSH1 0x0 DUP2 DUP2 MSTORE PUSH1 0x7 PUSH1 0x20 MSTORE PUSH1 0x40 SWAP1 KECCAK256 SLOAD PUSH1 0x1 PUSH1 0x1 PUSH1 0xA0 SHL SUB DUP1 DUP6 AND SWAP2 AND SUB PUSH2 0x1073 JUMPI PUSH1 0x0 SWAP1 DUP2 MSTORE PUSH1 0x7 PUSH1 0x20 MSTORE PUSH1 0x40 SWAP1 KECCAK256 PUSH1 0x1 ADD SLOAD SWAP3 SWAP2 POP POP JUMP JUMPDEST DUP1 PUSH2 0x107D DUP2 PUSH2 0x13CD JUMP JUMPDEST SWAP2 POP POP PUSH2 0x1031 JUMP JUMPDEST PUSH1 0x0 DUP1 PUSH1 0x3 SLOAD GT PUSH2 0x1095 JUMPI PUSH1 0x0 DUP1 REVERT JUMPDEST PUSH1 0x1 JUMPDEST PUSH1 0x3 SLOAD DUP2 GT PUSH2 0xFAE JUMPI PUSH1 0x0 DUP2 DUP2 MSTORE PUSH1 0x8 PUSH1 0x20 MSTORE PUSH1 0x40 SWAP1 KECCAK256 SLOAD PUSH1 0x1 PUSH1 0x1 PUSH1 0xA0 SHL SUB DUP1 DUP6 AND SWAP2 AND SUB PUSH2 0x10DA JUMPI PUSH1 0x0 SWAP1 DUP2 MSTORE PUSH1 0x8 PUSH1 0x20 MSTORE PUSH1 0x40 SWAP1 KECCAK256 PUSH1 0x1 ADD SLOAD SWAP3 SWAP2 POP POP JUMP JUMPDEST DUP1 PUSH2 0x10E4 DUP2 PUSH2 0x13CD JUMP JUMPDEST SWAP2 POP POP PUSH2 0x1098 JUMP JUMPDEST PUSH4 0x4E487B71 PUSH1 0xE0 SHL PUSH1 0x0 MSTORE PUSH1 0x41 PUSH1 0x4 MSTORE PUSH1 0x24 PUSH1 0x0 REVERT JUMPDEST PUSH1 0x0 DUP3 PUSH1 0x1F DUP4 ADD SLT PUSH2 0x1113 JUMPI PUSH1 0x0 DUP1 REVERT JUMPDEST DUP2 CALLDATALOAD PUSH8 0xFFFFFFFFFFFFFFFF DUP2 GT ISZERO PUSH2 0x112D JUMPI PUSH2 0x112D PUSH2 0x10EC JUMP JUMPDEST PUSH1 0x40 MLOAD PUSH1 0x1F DUP3 ADD PUSH1 0x1F NOT SWAP1 DUP2 AND PUSH1 0x3F ADD AND DUP2 ADD PUSH8 0xFFFFFFFFFFFFFFFF DUP2 GT DUP3 DUP3 LT OR ISZERO PUSH2 0x115C JUMPI PUSH2 0x115C PUSH2 0x10EC JUMP JUMPDEST PUSH1 0x40 MSTORE DUP2 DUP2 MSTORE DUP4 DUP3 ADD PUSH1 0x20 ADD DUP6 LT ISZERO PUSH2 0x1174 JUMPI PUSH1 0x0 DUP1 REVERT JUMPDEST DUP2 PUSH1 0x20 DUP6 ADD PUSH1 0x20 DUP4 ADD CALLDATACOPY PUSH1 0x0 SWAP2 DUP2 ADD PUSH1 0x20 ADD SWAP2 SWAP1 SWAP2 MSTORE SWAP4 SWAP3 POP POP POP JUMP JUMPDEST PUSH1 0x0 DUP1 PUSH1 0x0 PUSH1 0x60 DUP5 DUP7 SUB SLT ISZERO PUSH2 0x11A6 JUMPI PUSH1 0x0 DUP1 REVERT JUMPDEST DUP4 CALLDATALOAD PUSH1 0x1 PUSH1 0x1 PUSH1 0xA0 SHL SUB DUP2 AND DUP2 EQ PUSH2 0x11BD JUMPI PUSH1 0x0 DUP1 REVERT JUMPDEST SWAP3 POP PUSH1 0x20 DUP5 ADD CALLDATALOAD PUSH8 0xFFFFFFFFFFFFFFFF DUP2 GT ISZERO PUSH2 0x11D9 JUMPI PUSH1 0x0 DUP1 REVERT JUMPDEST PUSH2 0x11E5 DUP7 DUP3 DUP8 ADD PUSH2 0x1102 JUMP JUMPDEST SWAP3 POP POP PUSH1 0x40 DUP5 ADD CALLDATALOAD PUSH8 0xFFFFFFFFFFFFFFFF DUP2 GT ISZERO PUSH2 0x1202 JUMPI PUSH1 0x0 DUP1 REVERT JUMPDEST PUSH2 0x120E DUP7 DUP3 DUP8 ADD PUSH2 0x1102 JUMP JUMPDEST SWAP2 POP POP SWAP3 POP SWAP3 POP SWAP3 JUMP JUMPDEST PUSH1 0x0 PUSH1 0x20 DUP3 DUP5 SUB SLT ISZERO PUSH2 0x122A JUMPI PUSH1 0x0 DUP1 REVERT JUMPDEST POP CALLDATALOAD SWAP2 SWAP1 POP JUMP JUMPDEST PUSH1 0x0 DUP2 MLOAD DUP1 DUP5 MSTORE PUSH1 0x0 JUMPDEST DUP2 DUP2 LT ISZERO PUSH2 0x1257 JUMPI PUSH1 0x20 DUP2 DUP6 ADD DUP2 ADD MLOAD DUP7 DUP4 ADD DUP3 ADD MSTORE ADD PUSH2 0x123B JUMP JUMPDEST POP PUSH1 0x0 PUSH1 0x20 DUP3 DUP7 ADD ADD MSTORE PUSH1 0x20 PUSH1 0x1F NOT PUSH1 0x1F DUP4 ADD AND DUP6 ADD ADD SWAP2 POP POP SWAP3 SWAP2 POP POP JUMP JUMPDEST PUSH1 0x1 DUP1 PUSH1 0xA0 SHL SUB DUP6 AND DUP2 MSTORE DUP4 PUSH1 0x20 DUP3 ADD MSTORE PUSH1 0x80 PUSH1 0x40 DUP3 ADD MSTORE PUSH1 0x0 PUSH2 0x129E PUSH1 0x80 DUP4 ADD DUP6 PUSH2 0x1231 JUMP JUMPDEST DUP3 DUP2 SUB PUSH1 0x60 DUP5 ADD MSTORE PUSH2 0x12B0 DUP2 DUP6 PUSH2 0x1231 JUMP JUMPDEST SWAP8 SWAP7 POP POP POP POP POP POP POP JUMP JUMPDEST PUSH1 0x0 DUP1 PUSH1 0x40 DUP4 DUP6 SUB SLT ISZERO PUSH2 0x12CE JUMPI PUSH1 0x0 DUP1 REVERT JUMPDEST DUP3 CALLDATALOAD PUSH8 0xFFFFFFFFFFFFFFFF DUP2 GT ISZERO PUSH2 0x12E5 JUMPI PUSH1 0x0 DUP1 REVERT JUMPDEST PUSH2 0x12F1 DUP6 DUP3 DUP7 ADD PUSH2 0x1102 JUMP JUMPDEST SWAP3 POP POP PUSH1 0x20 DUP4 ADD CALLDATALOAD PUSH8 0xFFFFFFFFFFFFFFFF DUP2 GT ISZERO PUSH2 0x130E JUMPI PUSH1 0x0 DUP1 REVERT JUMPDEST PUSH2 0x131A DUP6 DUP3 DUP7 ADD PUSH2 0x1102 JUMP JUMPDEST SWAP2 POP POP SWAP3 POP SWAP3 SWAP1 POP JUMP JUMPDEST PUSH1 0x20 DUP2 MSTORE PUSH1 0x0 PUSH2 0x1337 PUSH1 0x20 DUP4 ADD DUP5 PUSH2 0x1231 JUMP JUMPDEST SWAP4 SWAP3 POP POP POP JUMP JUMPDEST PUSH4 0x4E487B71 PUSH1 0xE0 SHL PUSH1 0x0 MSTORE PUSH1 0x21 PUSH1 0x4 MSTORE PUSH1 0x24 PUSH1 0x0 REVERT JUMPDEST DUP9 DUP2 MSTORE PUSH2 0x100 PUSH1 0x20 DUP3 ADD MSTORE PUSH1 0x0 PUSH2 0x136F PUSH2 0x100 DUP4 ADD DUP11 PUSH2 0x1231 JUMP JUMPDEST DUP3 DUP2 SUB PUSH1 0x40 DUP5 ADD MSTORE PUSH2 0x1381 DUP2 DUP11 PUSH2 0x1231 JUMP JUMPDEST SWAP2 POP POP DUP7 PUSH1 0x60 DUP4 ADD MSTORE DUP6 PUSH1 0x80 DUP4 ADD MSTORE DUP5 PUSH1 0xA0 DUP4 ADD MSTORE DUP4 PUSH1 0xC0 DUP4 ADD MSTORE PUSH1 0x6 DUP4 LT PUSH2 0x13BA JUMPI PUSH4 0x4E487B71 PUSH1 0xE0 SHL PUSH1 0x0 MSTORE PUSH1 0x21 PUSH1 0x4 MSTORE PUSH1 0x24 PUSH1 0x0 REVERT JUMPDEST DUP3 PUSH1 0xE0 DUP4 ADD MSTORE SWAP10 SWAP9 POP POP POP POP POP POP POP POP POP JUMP JUMPDEST PUSH1 0x0 PUSH1 0x1 DUP3 ADD PUSH2 0x13ED JUMPI PUSH4 0x4E487B71 PUSH1 0xE0 SHL PUSH1 0x0 MSTORE PUSH1 0x11 PUSH1 0x4 MSTORE PUSH1 0x24 PUSH1 0x0 REVERT JUMPDEST POP PUSH1 0x1 ADD SWAP1 JUMP JUMPDEST PUSH1 0x1 DUP2 DUP2 SHR SWAP1 DUP3 AND DUP1 PUSH2 0x1408 JUMPI PUSH1 0x7F DUP3 AND SWAP2 POP JUMPDEST PUSH1 0x20 DUP3 LT DUP2 SUB PUSH2 0x1428 JUMPI PUSH4 0x4E487B71 PUSH1 0xE0 SHL PUSH1 0x0 MSTORE PUSH1 0x22 PUSH1 0x4 MSTORE PUSH1 0x24 PUSH1 0x0 REVERT JUMPDEST POP SWAP2 SWAP1 POP JUMP JUMPDEST PUSH1 0x1F DUP3 GT ISZERO PUSH2 0x1478 JUMPI DUP1 PUSH1 0x0 MSTORE PUSH1 0x20 PUSH1 0x0 KECCAK256 PUSH1 0x1F DUP5 ADD PUSH1 0x5 SHR DUP2 ADD PUSH1 0x20 DUP6 LT ISZERO PUSH2 0x1455 JUMPI POP DUP1 JUMPDEST PUSH1 0x1F DUP5 ADD PUSH1 0x5 SHR DUP3 ADD SWAP2 POP JUMPDEST DUP2 DUP2 LT ISZERO PUSH2 0x1475 JUMPI PUSH1 0x0 DUP2 SSTORE PUSH1 0x1 ADD PUSH2 0x1461 JUMP JUMPDEST POP POP JUMPDEST POP POP POP JUMP JUMPDEST DUP2 MLOAD PUSH8 0xFFFFFFFFFFFFFFFF DUP2 GT ISZERO PUSH2 0x1497 JUMPI PUSH2 0x1497 PUSH2 0x10EC JUMP JUMPDEST PUSH2 0x14AB DUP2 PUSH2 0x14A5 DUP5 SLOAD PUSH2 0x13F4 JUMP JUMPDEST DUP5 PUSH2 0x142E JUMP JUMPDEST PUSH1 0x20 PUSH1 0x1F DUP3 GT PUSH1 0x1 DUP2 EQ PUSH2 0x14DF JUMPI PUSH1 0x0 DUP4 ISZERO PUSH2 0x14C7 JUMPI POP DUP5 DUP3 ADD MLOAD JUMPDEST PUSH1 0x0 NOT PUSH1 0x3 DUP6 SWAP1 SHL SHR NOT AND PUSH1 0x1 DUP5 SWAP1 SHL OR DUP5 SSTORE PUSH2 0x1475 JUMP JUMPDEST PUSH1 0x0 DUP5 DUP2 MSTORE PUSH1 0x20 DUP2 KECCAK256 PUSH1 0x1F NOT DUP6 AND SWAP2 JUMPDEST DUP3 DUP2 LT ISZERO PUSH2 0x150F JUMPI DUP8 DUP6 ADD MLOAD DUP3 SSTORE PUSH1 0x20 SWAP5 DUP6 ADD SWAP5 PUSH1 0x1 SWAP1 SWAP3 ADD SWAP2 ADD PUSH2 0x14EF JUMP JUMPDEST POP DUP5 DUP3 LT ISZERO PUSH2 0x152D JUMPI DUP7 DUP5 ADD MLOAD PUSH1 0x0 NOT PUSH1 0x3 DUP8 SWAP1 SHL PUSH1 0xF8 AND SHR NOT AND DUP2 SSTORE JUMPDEST POP POP POP POP PUSH1 0x1 SWAP1 DUP2 SHL ADD SWAP1 SSTORE POP JUMP INVALID LOG2 PUSH5 0x6970667358 0x22 SLT KECCAK256 CODECOPY 0xB0 NOT BYTE 0xEC SWAP1 PUSH26 0x574118065A111DD5DA153DD18221C22DB112138BA242C15EE664 PUSH20 0x6F6C634300081B00330000000000000000000000 "},"methodIdentifiers":{"DIS(uint256)":"2b0187ac","Distribute(uint256)":"4def474a","MAN(uint256)":"cc403069","Manufacturing(uint256)":"a48d335a","MedicineStock(uint256)":"eb1a06b5","Owner()":"b4a99a4e","RET(uint256)":"59bf286f","RMS(uint256)":"eef5cb40","RMSsupply(uint256)":"86c18275","Retail(uint256)":"3d753a1c","addDistributor(address,string,string)":"2a4af440","addManufacturer(address,string,string)":"6a992c9f","addMedicine(string,string)":"8f4183cc","addRMS(address,string,string)":"2b70b08d","addRetailer(address,string,string)":"857ddb04","disCtr()":"2bdb2e6b","manCtr()":"438e9c4d","medicineCtr()":"a95f29d9","retCtr()":"7e43d94d","rmsCtr()":"dd286398","showStage(uint256)":"e101a2e0","sold(uint256)":"9c03facb"}}}}}