{"contracts/SupplyChain.sol":{"SupplyChain":{"abi":[{"inputs":[],"stateMutability":"nonpayable","type":"constructor"},{"anonymous":false,"inputs":[{"indexed":false,"internalType":"uint256","name":"medicineID","type":"uint256"},{"indexed":false,"internalType":"string","name":"alertMessage","type":"string"}],"name":"ExpiryAlert","type":"event"},{"anonymous":false,"inputs":[{"indexed":false,"internalType":"uint256","name":"medicineID","type":"uint256"},{"indexed":false,"internalType":"string","name":"alertType","type":"string"}],"name":"StockAlert","type":"event"},{"inputs":[{"internalType":"uint256","name":"","type":"uint256"}],"name":"DIS","outputs":[{"internalType":"address","name":"addr","type":"address"},{"internalType":"uint256","name":"id","type":"uint256"},{"internalType":"string","name":"name","type":"string"},{"internalType":"string","name":"place","type":"string"}],"stateMutability":"view","type":"function"},{"inputs":[{"internalType":"uint256","name":"_medicineID","type":"uint256"}],"name":"Distribute","outputs":[],"stateMutability":"nonpayable","type":"function"},{"inputs":[{"internalType":"uint256","name":"","type":"uint256"}],"name":"MAN","outputs":[{"internalType":"address","name":"addr","type":"address"},{"internalType":"uint256","name":"id","type":"uint256"},{"internalType":"string","name":"name","type":"string"},{"internalType":"string","name":"place","type":"string"}],"stateMutability":"view","type":"function"},{"inputs":[{"internalType":"uint256","name":"_medicineID","type":"uint256"}],"name":"Manufacturing","outputs":[],"stateMutability":"nonpayable","type":"function"},{"inputs":[{"internalType":"uint256","name":"","type":"uint256"}],"name":"MedicineStock","outputs":[{"internalType":"uint256","name":"id","type":"uint256"},{"internalType":"string","name":"name","type":"string"},{"internalType":"string","name":"description","type":"string"},{"internalType":"uint256","name":"quantity","type":"uint256"},{"internalType":"uint256","name":"expiryDate","type":"uint256"},{"internalType":"uint256","name":"RMSid","type":"uint256"},{"internalType":"uint256","name":"MANid","type":"uint256"},{"internalType":"uint256","name":"DISid","type":"uint256"},{"internalType":"uint256","name":"RETid","type":"uint256"},{"internalType":"enum SupplyChain.STAGE","name":"stage","type":"uint8"}],"stateMutability":"view","type":"function"},{"inputs":[],"name":"Owner","outputs":[{"internalType":"address","name":"","type":"address"}],"stateMutability":"view","type":"function"},{"inputs":[{"internalType":"uint256","name":"","type":"uint256"}],"name":"RET","outputs":[{"internalType":"address","name":"addr","type":"address"},{"internalType":"uint256","name":"id","type":"uint256"},{"internalType":"string","name":"name","type":"string"},{"internalType":"string","name":"place","type":"string"}],"stateMutability":"view","type":"function"},{"inputs":[{"internalType":"uint256","name":"","type":"uint256"}],"name":"RMS","outputs":[{"internalType":"address","name":"addr","type":"address"},{"internalType":"uint256","name":"id","type":"uint256"},{"internalType":"string","name":"name","type":"string"},{"internalType":"string","name":"place","type":"string"}],"stateMutability":"view","type":"function"},{"inputs":[{"internalType":"uint256","name":"_medicineID","type":"uint256"}],"name":"RMSsupply","outputs":[],"stateMutability":"nonpayable","type":"function"},{"inputs":[{"internalType":"uint256","name":"_medicineID","type":"uint256"}],"name":"Retail","outputs":[],"stateMutability":"nonpayable","type":"function"},{"inputs":[{"internalType":"address","name":"_address","type":"address"},{"internalType":"string","name":"_name","type":"string"},{"internalType":"string","name":"_place","type":"string"}],"name":"addDistributor","outputs":[],"stateMutability":"nonpayable","type":"function"},{"inputs":[{"internalType":"address","name":"_address","type":"address"},{"internalType":"string","name":"_name","type":"string"},{"internalType":"string","name":"_place","type":"string"}],"name":"addManufacturer","outputs":[],"stateMutability":"nonpayable","type":"function"},{"inputs":[{"internalType":"string","name":"_name","type":"string"},{"internalType":"string","name":"_description","type":"string"},{"internalType":"uint256","name":"_quantity","type":"uint256"},{"internalType":"uint256","name":"_expiryDate","type":"uint256"}],"name":"addMedicine","outputs":[],"stateMutability":"nonpayable","type":"function"},{"inputs":[{"internalType":"address","name":"_address","type":"address"},{"internalType":"string","name":"_name","type":"string"},{"internalType":"string","name":"_place","type":"string"}],"name":"addRMS","outputs":[],"stateMutability":"nonpayable","type":"function"},{"inputs":[{"internalType":"address","name":"_address","type":"address"},{"internalType":"string","name":"_name","type":"string"},{"internalType":"string","name":"_place","type":"string"}],"name":"addRetailer","outputs":[],"stateMutability":"nonpayable","type":"function"},{"inputs":[{"internalType":"uint256","name":"_medicineID","type":"uint256"}],"name":"checkExpiry","outputs":[{"internalType":"bool","name":"isExpiringSoon","type":"bool"}],"stateMutability":"view","type":"function"},{"inputs":[],"name":"disCtr","outputs":[{"internalType":"uint256","name":"","type":"uint256"}],"stateMutability":"view","type":"function"},{"inputs":[],"name":"getDashboardData","outputs":[{"internalType":"uint256","name":"totalMedicines","type":"uint256"},{"internalType":"uint256","name":"understocked","type":"uint256"},{"internalType":"uint256","name":"overstocked","type":"uint256"},{"internalType":"uint256","name":"expiringSoon","type":"uint256"}],"stateMutability":"view","type":"function"},{"inputs":[],"name":"manCtr","outputs":[{"internalType":"uint256","name":"","type":"uint256"}],"stateMutability":"view","type":"function"},{"inputs":[],"name":"medicineCtr","outputs":[{"internalType":"uint256","name":"","type":"uint256"}],"stateMutability":"view","type":"function"},{"inputs":[],"name":"overstockThreshold","outputs":[{"internalType":"uint256","name":"","type":"uint256"}],"stateMutability":"view","type":"function"},{"inputs":[],"name":"retCtr","outputs":[{"internalType":"uint256","name":"","type":"uint256"}],"stateMutability":"view","type":"function"},{"inputs":[],"name":"rmsCtr","outputs":[{"internalType":"uint256","name":"","type":"uint256"}],"stateMutability":"view","type":"function"},{"inputs":[{"internalType":"uint256","name":"_medicineID","type":"uint256"}],"name":"showStage","outputs":[{"internalType":"string","name":"","type":"string"}],"stateMutability":"view","type":"function"},{"inputs":[{"internalType":"uint256","name":"_medicineID","type":"uint256"}],"name":"sold","outputs":[],"stateMutability":"nonpayable","type":"function"},{"inputs":[{"internalType":"uint256","name":"_medicineID","type":"uint256"}],"name":"timeSpentInStages","outputs":[{"internalType":"uint256[]","name":"times","type":"uint256[]"}],"stateMutability":"view","type":"function"},{"inputs":[],"name":"understockThreshold","outputs":[{"internalType":"uint256","name":"","type":"uint256"}],"stateMutability":"view","type":"function"},{"inputs":[{"internalType":"uint256","name":"_medicineID","type":"uint256"},{"internalType":"uint256","name":"_newQuantity","type":"uint256"}],"name":"updateMedicineQuantity","outputs":[],"stateMutability":"nonpayable","type":"function"}],"evm":{"bytecode":{"linkReferences":{},"object":"608060405260006001556000600255600060035560006004556000600555600a600b556103e8600c55348015603357600080fd5b50600080546001600160a01b0319163317905561207b806100556000396000f3fe608060405234801561001057600080fd5b50600436106101c45760003560e01c806386c18275116100f9578063d9708d4811610097578063e4357cd711610071578063e4357cd7146103c5578063eb1a06b5146103e8578063eef5cb4014610411578063f3c40a361461042457600080fd5b8063d9708d4814610374578063dd2863981461039c578063e101a2e0146103a557600080fd5b8063a48d335a116100d3578063a48d335a1461031a578063a95f29d91461032d578063b4a99a4e14610336578063cc4030691461036157600080fd5b806386c18275146102d4578063874ae092146102e75780639c03facb1461030757600080fd5b8063438e9c4d116101665780635e9db90c116101405780635e9db90c146102925780636a992c9f146102a55780637e43d94d146102b8578063857ddb04146102c157600080fd5b8063438e9c4d146102635780634def474a1461026c57806359bf286f1461027f57600080fd5b80632ba25bdc116101a25780632ba25bdc1461021d5780632bdb2e6b1461023057806330f901d7146102475780633d753a1c1461025057600080fd5b80632a4af440146101c95780632b0187ac146101de5780632b70b08d1461020a575b600080fd5b6101dc6101d7366004611b2c565b61042d565b005b6101f16101ec366004611bb3565b610500565b6040516102019493929190611c12565b60405180910390f35b6101dc610218366004611b2c565b610643565b6101dc61022b366004611c56565b6106f1565b61023960045481565b604051908152602001610201565b610239600c5481565b6101dc61025e366004611bb3565b610919565b61023960035481565b6101dc61027a366004611bb3565b610a2c565b6101f161028d366004611bb3565b610b26565b6101dc6102a0366004611ccf565b610b58565b6101dc6102b3366004611b2c565b610bd1565b61023960055481565b6101dc6102cf366004611b2c565b610c7e565b6101dc6102e2366004611bb3565b610d2b565b6102fa6102f5366004611bb3565b610e1b565b6040516102019190611cf1565b6101dc610315366004611bb3565b610f70565b6101dc610328366004611bb3565b6110cf565b61023960015481565b600054610349906001600160a01b031681565b6040516001600160a01b039091168152602001610201565b6101f161036f366004611bb3565b6111cc565b61037c6111fe565b604080519485526020850193909352918301526060820152608001610201565b61023960025481565b6103b86103b3366004611bb3565b61128c565b6040516102019190611d34565b6103d86103d3366004611bb3565b6114b6565b6040519015158152602001610201565b6103fb6103f6366004611bb3565b611528565b6040516102019a99989796959493929190611d64565b6101f161041f366004611bb3565b61168a565b610239600b5481565b6000546001600160a01b031633146104605760405162461bcd60e51b815260040161045790611ded565b60405180910390fd5b6004805490600061047083611e44565b9091555050604080516080810182526001600160a01b0385811682526004546020808401828152848601888152606086018890526000938452600990925294909120835181546001600160a01b031916931692909217825592516001820155915190919060028201906104e39082611ee0565b50606082015160038201906104f89082611ee0565b505050505050565b6009602052600090815260409020805460018201546002830180546001600160a01b0390931693919261053290611e5d565b80601f016020809104026020016040519081016040528092919081815260200182805461055e90611e5d565b80156105ab5780601f10610580576101008083540402835291602001916105ab565b820191906000526020600020905b81548152906001019060200180831161058e57829003601f168201915b5050505050908060030180546105c090611e5d565b80601f01602080910402602001604051908101604052809291908181526020018280546105ec90611e5d565b80156106395780601f1061060e57610100808354040283529160200191610639565b820191906000526020600020905b81548152906001019060200180831161061c57829003601f168201915b5050505050905084565b6000546001600160a01b0316331461066d5760405162461bcd60e51b815260040161045790611ded565b6002805490600061067d83611e44565b9091555050604080516080810182526001600160a01b038581168252600280546020808501828152858701898152606087018990526000938452600790925295909120845181546001600160a01b031916941693909317835593516001830155925191929091908201906104e39082611ee0565b6000546001600160a01b0316331461071b5760405162461bcd60e51b815260040161045790611ded565b600060025411801561072f57506000600354115b801561073d57506000600454115b801561074b57506000600554115b6107ad5760405162461bcd60e51b815260206004820152602d60248201527f416c6c20726f6c6573206d75737420626520736574206265666f72652061646460448201526c696e67206d65646963696e657360981b6064820152608401610457565b600180549060006107bd83611e44565b91905055506040518061016001604052806001548152602001858152602001848152602001838152602001828152602001600081526020016000815260200160008152602001600081526020016000600581111561081d5761081d611d4e565b815260408051600680825260e08201909252602092830192909190820160c0803683375050509052600180546000908152600660209081526040909120835181559083015190918201906108719082611ee0565b50604082015160028201906108869082611ee0565b50606082015181600301556080820151816004015560a0820151816005015560c0820151816006015560e0820151816007015561010082015181600801556101208201518160090160006101000a81548160ff021916908360058111156108ef576108ef611d4e565b0217905550610140820151805161091091600a840191602090910190611a27565b50505050505050565b60008111801561092b57506001548111155b6109475760405162461bcd60e51b815260040161045790611f9f565b6000610952336116bc565b9050600081116109995760405162461bcd60e51b815260206004820152601260248201527114995d185a5b195c881b9bdd08199bdd5b9960721b6044820152606401610457565b600360008381526006602052604090206009015460ff1660058111156109c1576109c1611d4e565b146109de5760405162461bcd60e51b815260040161045790611fcc565b60008281526006602052604090206008810182905560098101805460ff191660049081179091554291600a01905b81548110610a1c57610a1c612003565b6000918252602090912001555050565b600081118015610a3e57506001548111155b610a5a5760405162461bcd60e51b815260040161045790611f9f565b6000610a653361175f565b905060008111610aaf5760405162461bcd60e51b8152602060048201526015602482015274111a5cdd1c9a589d5d1bdc881b9bdd08199bdd5b99605a1b6044820152606401610457565b600260008381526006602052604090206009015460ff166005811115610ad757610ad7611d4e565b14610af45760405162461bcd60e51b815260040161045790611fcc565b60008281526006602052604090206007810182905560098101805460ff191660039081179091554291600a0190610a0c565b600a602052600090815260409020805460018201546002830180546001600160a01b0390931693919261053290611e5d565b6000546001600160a01b03163314610b825760405162461bcd60e51b815260040161045790611ded565b600082118015610b9457506001548211155b610bb05760405162461bcd60e51b815260040161045790611f9f565b6000828152600660205260409020600301819055610bcd82611809565b5050565b6000546001600160a01b03163314610bfb5760405162461bcd60e51b815260040161045790611ded565b60038054906000610c0b83611e44565b9091555050604080516080810182526001600160a01b0385811682526003546020808401828152848601888152606086018890526000938452600890925294909120835181546001600160a01b031916931692909217825592516001820155915190919060028201906104e39082611ee0565b6000546001600160a01b03163314610ca85760405162461bcd60e51b815260040161045790611ded565b60058054906000610cb883611e44565b9091555050604080516080810182526001600160a01b0385811682526005546020808401828152848601888152606086018890526000938452600a90925294909120835181546001600160a01b031916931692909217825592516001820155915190919060028201906104e39082611ee0565b600081118015610d3d57506001548111155b610d595760405162461bcd60e51b815260040161045790611f9f565b6000610d64336118e0565b905060008111610da65760405162461bcd60e51b815260206004820152600d60248201526c149354c81b9bdd08199bdd5b99609a1b6044820152606401610457565b60008281526006602052604081206009015460ff166005811115610dcc57610dcc611d4e565b14610de95760405162461bcd60e51b815260040161045790611fcc565b60008281526006602052604090206005810182905560098101805460ff191660019081179091554291600a0190610a0c565b6060600082118015610e2f57506001548211155b610e4b5760405162461bcd60e51b815260040161045790611f9f565b600082815260066020818152604092839020835183815260e0810190945292908290820160c08036833701905050925060015b81811015610f6857600083600a018281548110610e9d57610e9d612003565b9060005260206000200154118015610ede57506000600a8401610ec1600184612019565b81548110610ed157610ed1612003565b9060005260206000200154115b15610f6057600a8301610ef2600183612019565b81548110610f0257610f02612003565b906000526020600020015483600a018281548110610f2257610f22612003565b9060005260206000200154610f379190612019565b84610f43600184612019565b81518110610f5357610f53612003565b6020026020010181815250505b600101610e7e565b505050919050565b600081118015610f8257506001548111155b610f9e5760405162461bcd60e51b815260040161045790611f9f565b6000610fa9336116bc565b905060008111610ff05760405162461bcd60e51b815260206004820152601260248201527114995d185a5b195c881b9bdd08199bdd5b9960721b6044820152606401610457565b600082815260066020526040902060080154811461105f5760405162461bcd60e51b815260206004820152602660248201527f4f6e6c7920636f72726563742072657461696c65722063616e206d61726b20616044820152651cc81cdbdb1960d21b6064820152608401610457565b600460008381526006602052604090206009015460ff16600581111561108757611087611d4e565b146110a45760405162461bcd60e51b815260040161045790611fcc565b600082815260066020526040902060098101805460ff191660059081179091554291600a0190610a0c565b6000811180156110e157506001548111155b6110fd5760405162461bcd60e51b815260040161045790611f9f565b60006111083361197d565b9050600081116111535760405162461bcd60e51b815260206004820152601660248201527513585b9d599858dd1d5c995c881b9bdd08199bdd5b9960521b6044820152606401610457565b600160008381526006602052604090206009015460ff16600581111561117b5761117b611d4e565b146111985760405162461bcd60e51b815260040161045790611fcc565b600082815260066020819052604090912090810182905560098101805460ff191660029081179091554291600a0190610a0c565b6008602052600090815260409020805460018201546002830180546001600160a01b0390931693919261053290611e5d565b6001805490600090819081905b600154811161128557600081815260066020526040902060030154600b5481101561123e578461123a81611e44565b9550505b600c54811115611256578361125281611e44565b9450505b61125f826114b6565b15611272578261126e81611e44565b9350505b508061127d81611e44565b91505061120b565b5090919293565b60606000821180156112a057506001548211155b6112bc5760405162461bcd60e51b815260040161045790611f9f565b60008281526006602052604081206009015460ff16908160058111156112e4576112e4611d4e565b0361131757505060408051808201909152601081526f1359591a58da5b994813dc99195c995960821b6020820152919050565b600181600581111561132b5761132b611d4e565b0361136b57505060408051808201909152601981527f526177204d6174657269616c20537570706c79205374616765000000000000006020820152919050565b600281600581111561137f5761137f611d4e565b036113b55750506040805180820190915260138152724d616e75666163747572696e6720537461676560681b6020820152919050565b60038160058111156113c9576113c9611d4e565b036113fe575050604080518082019091526012815271446973747269627574696f6e20537461676560701b6020820152919050565b600481600581111561141257611412611d4e565b0361144157505060408051808201909152600c81526b52657461696c20537461676560a01b6020820152919050565b600581600581111561145557611455611d4e565b0361148557505060408051808201909152600d81526c1359591a58da5b994814dbdb19609a1b6020820152919050565b505060408051808201909152600d81526c556e6b6e6f776e20537461676560981b6020820152919050565b50919050565b600080821180156114c957506001548211155b6114e55760405162461bcd60e51b815260040161045790611f9f565b6000828152600660205260409020600401548015801590611511575061150e426213c680612032565b81105b1561151f5750600192915050565b50600092915050565b6006602052600090815260409020805460018201805491929161154a90611e5d565b80601f016020809104026020016040519081016040528092919081815260200182805461157690611e5d565b80156115c35780601f10611598576101008083540402835291602001916115c3565b820191906000526020600020905b8154815290600101906020018083116115a657829003601f168201915b5050505050908060020180546115d890611e5d565b80601f016020809104026020016040519081016040528092919081815260200182805461160490611e5d565b80156116515780601f1061162657610100808354040283529160200191611651565b820191906000526020600020905b81548152906001019060200180831161163457829003601f168201915b50505050600383015460048401546005850154600686015460078701546008880154600990980154969794969395509193909260ff168a565b6007602052600090815260409020805460018201546002830180546001600160a01b0390931693919261053290611e5d565b600080600554116117085760405162461bcd60e51b81526020600482015260166024820152754e6f2072657461696c65727320617661696c61626c6560501b6044820152606401610457565b60015b600554811161151f576000818152600a60205260409020546001600160a01b0380851691160361174d576000908152600a602052604090206001015492915050565b8061175781611e44565b91505061170b565b600080600454116117b25760405162461bcd60e51b815260206004820152601960248201527f4e6f206469737472696275746f727320617661696c61626c65000000000000006044820152606401610457565b60015b600454811161151f576000818152600960205260409020546001600160a01b038085169116036117f75760009081526009602052604090206001015492915050565b8061180181611e44565b9150506117b5565b600081815260066020526040902060030154600b54811015611884577fe15983936b4d90991838db308a365ee0da6b9bd5e38c649239c1e46c0efc498082604051611878918152604060208201819052600a9082015269556e64657273746f636b60b01b606082015260800190565b60405180910390a15050565b600c54811115610bcd577fe15983936b4d90991838db308a365ee0da6b9bd5e38c649239c1e46c0efc498082604051611878918152604060208201819052600990820152684f76657273746f636b60b81b606082015260800190565b600080600254116119265760405162461bcd60e51b815260206004820152601060248201526f4e6f20524d5320617661696c61626c6560801b6044820152606401610457565b60015b600254811161151f576000818152600760205260409020546001600160a01b0380851691160361196b5760009081526007602052604090206001015492915050565b8061197581611e44565b915050611929565b600080600354116119d05760405162461bcd60e51b815260206004820152601a60248201527f4e6f206d616e7566616374757265727320617661696c61626c650000000000006044820152606401610457565b60015b600354811161151f576000818152600860205260409020546001600160a01b03808516911603611a155760009081526008602052604090206001015492915050565b80611a1f81611e44565b9150506119d3565b828054828255906000526020600020908101928215611a62579160200282015b82811115611a62578251825591602001919060010190611a47565b50611a6e929150611a72565b5090565b5b80821115611a6e5760008155600101611a73565b634e487b7160e01b600052604160045260246000fd5b600082601f830112611aae57600080fd5b813567ffffffffffffffff811115611ac857611ac8611a87565b604051601f8201601f19908116603f0116810167ffffffffffffffff81118282101715611af757611af7611a87565b604052818152838201602001851015611b0f57600080fd5b816020850160208301376000918101602001919091529392505050565b600080600060608486031215611b4157600080fd5b83356001600160a01b0381168114611b5857600080fd5b9250602084013567ffffffffffffffff811115611b7457600080fd5b611b8086828701611a9d565b925050604084013567ffffffffffffffff811115611b9d57600080fd5b611ba986828701611a9d565b9150509250925092565b600060208284031215611bc557600080fd5b5035919050565b6000815180845260005b81811015611bf257602081850181015186830182015201611bd6565b506000602082860101526020601f19601f83011685010191505092915050565b60018060a01b0385168152836020820152608060408201526000611c396080830185611bcc565b8281036060840152611c4b8185611bcc565b979650505050505050565b60008060008060808587031215611c6c57600080fd5b843567ffffffffffffffff811115611c8357600080fd5b611c8f87828801611a9d565b945050602085013567ffffffffffffffff811115611cac57600080fd5b611cb887828801611a9d565b949794965050505060408301359260600135919050565b60008060408385031215611ce257600080fd5b50508035926020909101359150565b602080825282518282018190526000918401906040840190835b81811015611d29578351835260209384019390920191600101611d0b565b509095945050505050565b602081526000611d476020830184611bcc565b9392505050565b634e487b7160e01b600052602160045260246000fd5b8a815261014060208201526000611d7f61014083018c611bcc565b8281036040840152611d91818c611bcc565b9150508860608301528760808301528660a08301528560c08301528460e08301528361010083015260068310611dd757634e487b7160e01b600052602160045260246000fd5b826101208301529b9a5050505050505050505050565b60208082526021908201527f4f6e6c79206f776e65722063616e2063616c6c20746869732066756e6374696f6040820152603760f91b606082015260800190565b634e487b7160e01b600052601160045260246000fd5b600060018201611e5657611e56611e2e565b5060010190565b600181811c90821680611e7157607f821691505b6020821081036114b057634e487b7160e01b600052602260045260246000fd5b601f821115611edb57806000526020600020601f840160051c81016020851015611eb85750805b601f840160051c820191505b81811015611ed85760008155600101611ec4565b50505b505050565b815167ffffffffffffffff811115611efa57611efa611a87565b611f0e81611f088454611e5d565b84611e91565b6020601f821160018114611f425760008315611f2a5750848201515b600019600385901b1c1916600184901b178455611ed8565b600084815260208120601f198516915b82811015611f725787850151825560209485019460019092019101611f52565b5084821015611f905786840151600019600387901b60f8161c191681555b50505050600190811b01905550565b602080825260139082015272125b9d985b1a59081b59591a58da5b99481251606a1b604082015260600190565b60208082526018908201527f496e76616c6964207374616765207472616e736974696f6e0000000000000000604082015260600190565b634e487b7160e01b600052603260045260246000fd5b8181038181111561202c5761202c611e2e565b92915050565b8082018082111561202c5761202c611e2e56fea26469706673582212208694b8c2edd32db4f3da37858de90535a8fbf8d8270e2e8d00b4a8ad22a7cdcc64736f6c634300081b0033","opcodes":"PUSH1 0x80 PUSH1 0x40 MSTORE PUSH1 0x0 PUSH1 0x1 SSTORE PUSH1 0x0 PUSH1 0x2 SSTORE PUSH1 0x0 PUSH1 0x3 SSTORE PUSH1 0x0 PUSH1 0x4 SSTORE PUSH1 0x0 PUSH1 0x5 SSTORE PUSH1 0xA PUSH1 0xB SSTORE PUSH2 0x3E8 PUSH1 0xC SSTORE CALLVALUE DUP1 ISZERO PUSH1 0x33 JUMPI PUSH1 0x0 DUP1 REVERT JUMPDEST POP PUSH1 0x0 DUP1 SLOAD PUSH1 0x1 PUSH1 0x1 PUSH1 0xA0 SHL SUB NOT AND CALLER OR SWAP1 SSTORE PUSH2 0x207B DUP1 PUSH2 0x55 PUSH1 0x0 CODECOPY PUSH1 0x0 RETURN INVALID PUSH1 0x80 PUSH1 0x40 MSTORE CALLVALUE DUP1 ISZERO PUSH2 0x10 JUMPI PUSH1 0x0 DUP1 REVERT JUMPDEST POP PUSH1 0x4 CALLDATASIZE LT PUSH2 0x1C4 JUMPI PUSH1 0x0 CALLDATALOAD PUSH1 0xE0 SHR DUP1 PUSH4 0x86C18275 GT PUSH2 0xF9 JUMPI DUP1 PUSH4 0xD9708D48 GT PUSH2 0x97 JUMPI DUP1 PUSH4 0xE4357CD7 GT PUSH2 0x71 JUMPI DUP1 PUSH4 0xE4357CD7 EQ PUSH2 0x3C5 JUMPI DUP1 PUSH4 0xEB1A06B5 EQ PUSH2 0x3E8 JUMPI DUP1 PUSH4 0xEEF5CB40 EQ PUSH2 0x411 JUMPI DUP1 PUSH4 0xF3C40A36 EQ PUSH2 0x424 JUMPI PUSH1 0x0 DUP1 REVERT JUMPDEST DUP1 PUSH4 0xD9708D48 EQ PUSH2 0x374 JUMPI DUP1 PUSH4 0xDD286398 EQ PUSH2 0x39C JUMPI DUP1 PUSH4 0xE101A2E0 EQ PUSH2 0x3A5 JUMPI PUSH1 0x0 DUP1 REVERT JUMPDEST DUP1 PUSH4 0xA48D335A GT PUSH2 0xD3 JUMPI DUP1 PUSH4 0xA48D335A EQ PUSH2 0x31A JUMPI DUP1 PUSH4 0xA95F29D9 EQ PUSH2 0x32D JUMPI DUP1 PUSH4 0xB4A99A4E EQ PUSH2 0x336 JUMPI DUP1 PUSH4 0xCC403069 EQ PUSH2 0x361 JUMPI PUSH1 0x0 DUP1 REVERT JUMPDEST DUP1 PUSH4 0x86C18275 EQ PUSH2 0x2D4 JUMPI DUP1 PUSH4 0x874AE092 EQ PUSH2 0x2E7 JUMPI DUP1 PUSH4 0x9C03FACB EQ PUSH2 0x307 JUMPI PUSH1 0x0 DUP1 REVERT JUMPDEST DUP1 PUSH4 0x438E9C4D GT PUSH2 0x166 JUMPI DUP1 PUSH4 0x5E9DB90C GT PUSH2 0x140 JUMPI DUP1 PUSH4 0x5E9DB90C EQ PUSH2 0x292 JUMPI DUP1 PUSH4 0x6A992C9F EQ PUSH2 0x2A5 JUMPI DUP1 PUSH4 0x7E43D94D EQ PUSH2 0x2B8 JUMPI DUP1 PUSH4 0x857DDB04 EQ PUSH2 0x2C1 JUMPI PUSH1 0x0 DUP1 REVERT JUMPDEST DUP1 PUSH4 0x438E9C4D EQ PUSH2 0x263 JUMPI DUP1 PUSH4 0x4DEF474A EQ PUSH2 0x26C JUMPI DUP1 PUSH4 0x59BF286F EQ PUSH2 0x27F JUMPI PUSH1 0x0 DUP1 REVERT JUMPDEST DUP1 PUSH4 0x2BA25BDC GT PUSH2 0x1A2 JUMPI DUP1 PUSH4 0x2BA25BDC EQ PUSH2 0x21D JUMPI DUP1 PUSH4 0x2BDB2E6B EQ PUSH2 0x230 JUMPI DUP1 PUSH4 0x30F901D7 EQ PUSH2 0x247 JUMPI DUP1 PUSH4 0x3D753A1C EQ PUSH2 0x250 JUMPI PUSH1 0x0 DUP1 REVERT JUMPDEST DUP1 PUSH4 0x2A4AF440 EQ PUSH2 0x1C9 JUMPI DUP1 PUSH4 0x2B0187AC EQ PUSH2 0x1DE JUMPI DUP1 PUSH4 0x2B70B08D EQ PUSH2 0x20A JUMPI JUMPDEST PUSH1 0x0 DUP1 REVERT JUMPDEST PUSH2 0x1DC PUSH2 0x1D7 CALLDATASIZE PUSH1 0x4 PUSH2 0x1B2C JUMP JUMPDEST PUSH2 0x42D JUMP JUMPDEST STOP JUMPDEST PUSH2 0x1F1 PUSH2 0x1EC CALLDATASIZE PUSH1 0x4 PUSH2 0x1BB3 JUMP JUMPDEST PUSH2 0x500 JUMP JUMPDEST PUSH1 0x40 MLOAD PUSH2 0x201 SWAP5 SWAP4 SWAP3 SWAP2 SWAP1 PUSH2 0x1C12 JUMP JUMPDEST PUSH1 0x40 MLOAD DUP1 SWAP2 SUB SWAP1 RETURN JUMPDEST PUSH2 0x1DC PUSH2 0x218 CALLDATASIZE PUSH1 0x4 PUSH2 0x1B2C JUMP JUMPDEST PUSH2 0x643 JUMP JUMPDEST PUSH2 0x1DC PUSH2 0x22B CALLDATASIZE PUSH1 0x4 PUSH2 0x1C56 JUMP JUMPDEST PUSH2 0x6F1 JUMP JUMPDEST PUSH2 0x239 PUSH1 0x4 SLOAD DUP2 JUMP JUMPDEST PUSH1 0x40 MLOAD SWAP1 DUP2 MSTORE PUSH1 0x20 ADD PUSH2 0x201 JUMP JUMPDEST PUSH2 0x239 PUSH1 0xC SLOAD DUP2 JUMP JUMPDEST PUSH2 0x1DC PUSH2 0x25E CALLDATASIZE PUSH1 0x4 PUSH2 0x1BB3 JUMP JUMPDEST PUSH2 0x919 JUMP JUMPDEST PUSH2 0x239 PUSH1 0x3 SLOAD DUP2 JUMP JUMPDEST PUSH2 0x1DC PUSH2 0x27A CALLDATASIZE PUSH1 0x4 PUSH2 0x1BB3 JUMP JUMPDEST PUSH2 0xA2C JUMP JUMPDEST PUSH2 0x1F1 PUSH2 0x28D CALLDATASIZE PUSH1 0x4 PUSH2 0x1BB3 JUMP JUMPDEST PUSH2 0xB26 JUMP JUMPDEST PUSH2 0x1DC PUSH2 0x2A0 CALLDATASIZE PUSH1 0x4 PUSH2 0x1CCF JUMP JUMPDEST PUSH2 0xB58 JUMP JUMPDEST PUSH2 0x1DC PUSH2 0x2B3 CALLDATASIZE PUSH1 0x4 PUSH2 0x1B2C JUMP JUMPDEST PUSH2 0xBD1 JUMP JUMPDEST PUSH2 0x239 PUSH1 0x5 SLOAD DUP2 JUMP JUMPDEST PUSH2 0x1DC PUSH2 0x2CF CALLDATASIZE PUSH1 0x4 PUSH2 0x1B2C JUMP JUMPDEST PUSH2 0xC7E JUMP JUMPDEST PUSH2 0x1DC PUSH2 0x2E2 CALLDATASIZE PUSH1 0x4 PUSH2 0x1BB3 JUMP JUMPDEST PUSH2 0xD2B JUMP JUMPDEST PUSH2 0x2FA PUSH2 0x2F5 CALLDATASIZE PUSH1 0x4 PUSH2 0x1BB3 JUMP JUMPDEST PUSH2 0xE1B JUMP JUMPDEST PUSH1 0x40 MLOAD PUSH2 0x201 SWAP2 SWAP1 PUSH2 0x1CF1 JUMP JUMPDEST PUSH2 0x1DC PUSH2 0x315 CALLDATASIZE PUSH1 0x4 PUSH2 0x1BB3 JUMP JUMPDEST PUSH2 0xF70 JUMP JUMPDEST PUSH2 0x1DC PUSH2 0x328 CALLDATASIZE PUSH1 0x4 PUSH2 0x1BB3 JUMP JUMPDEST PUSH2 0x10CF JUMP JUMPDEST PUSH2 0x239 PUSH1 0x1 SLOAD DUP2 JUMP JUMPDEST PUSH1 0x0 SLOAD PUSH2 0x349 SWAP1 PUSH1 0x1 PUSH1 0x1 PUSH1 0xA0 SHL SUB AND DUP2 JUMP JUMPDEST PUSH1 0x40 MLOAD PUSH1 0x1 PUSH1 0x1 PUSH1 0xA0 SHL SUB SWAP1 SWAP2 AND DUP2 MSTORE PUSH1 0x20 ADD PUSH2 0x201 JUMP JUMPDEST PUSH2 0x1F1 PUSH2 0x36F CALLDATASIZE PUSH1 0x4 PUSH2 0x1BB3 JUMP JUMPDEST PUSH2 0x11CC JUMP JUMPDEST PUSH2 0x37C PUSH2 0x11FE JUMP JUMPDEST PUSH1 0x40 DUP1 MLOAD SWAP5 DUP6 MSTORE PUSH1 0x20 DUP6 ADD SWAP4 SWAP1 SWAP4 MSTORE SWAP2 DUP4 ADD MSTORE PUSH1 0x60 DUP3 ADD MSTORE PUSH1 0x80 ADD PUSH2 0x201 JUMP JUMPDEST PUSH2 0x239 PUSH1 0x2 SLOAD DUP2 JUMP JUMPDEST PUSH2 0x3B8 PUSH2 0x3B3 CALLDATASIZE PUSH1 0x4 PUSH2 0x1BB3 JUMP JUMPDEST PUSH2 0x128C JUMP JUMPDEST PUSH1 0x40 MLOAD PUSH2 0x201 SWAP2 SWAP1 PUSH2 0x1D34 JUMP JUMPDEST PUSH2 0x3D8 PUSH2 0x3D3 CALLDATASIZE PUSH1 0x4 PUSH2 0x1BB3 JUMP JUMPDEST PUSH2 0x14B6 JUMP JUMPDEST PUSH1 0x40 MLOAD SWAP1 ISZERO ISZERO DUP2 MSTORE PUSH1 0x20 ADD PUSH2 0x201 JUMP JUMPDEST PUSH2 0x3FB PUSH2 0x3F6 CALLDATASIZE PUSH1 0x4 PUSH2 0x1BB3 JUMP JUMPDEST PUSH2 0x1528 JUMP JUMPDEST PUSH1 0x40 MLOAD PUSH2 0x201 SWAP11 SWAP10 SWAP9 SWAP8 SWAP7 SWAP6 SWAP5 SWAP4 SWAP3 SWAP2 SWAP1 PUSH2 0x1D64 JUMP JUMPDEST PUSH2 0x1F1 PUSH2 0x41F CALLDATASIZE PUSH1 0x4 PUSH2 0x1BB3 JUMP JUMPDEST PUSH2 0x168A JUMP JUMPDEST PUSH2 0x239 PUSH1 0xB SLOAD DUP2 JUMP JUMPDEST PUSH1 0x0 SLOAD PUSH1 0x1 PUSH1 0x1 PUSH1 0xA0 SHL SUB AND CALLER EQ PUSH2 0x460 JUMPI PUSH1 0x40 MLOAD PUSH3 0x461BCD PUSH1 0xE5 SHL DUP2 MSTORE PUSH1 0x4 ADD PUSH2 0x457 SWAP1 PUSH2 0x1DED JUMP JUMPDEST PUSH1 0x40 MLOAD DUP1 SWAP2 SUB SWAP1 REVERT JUMPDEST PUSH1 0x4 DUP1 SLOAD SWAP1 PUSH1 0x0 PUSH2 0x470 DUP4 PUSH2 0x1E44 JUMP JUMPDEST SWAP1 SWAP2 SSTORE POP POP PUSH1 0x40 DUP1 MLOAD PUSH1 0x80 DUP2 ADD DUP3 MSTORE PUSH1 0x1 PUSH1 0x1 PUSH1 0xA0 SHL SUB DUP6 DUP2 AND DUP3 MSTORE PUSH1 0x4 SLOAD PUSH1 0x20 DUP1 DUP5 ADD DUP3 DUP2 MSTORE DUP5 DUP7 ADD DUP9 DUP2 MSTORE PUSH1 0x60 DUP7 ADD DUP9 SWAP1 MSTORE PUSH1 0x0 SWAP4 DUP5 MSTORE PUSH1 0x9 SWAP1 SWAP3 MSTORE SWAP5 SWAP1 SWAP2 KECCAK256 DUP4 MLOAD DUP2 SLOAD PUSH1 0x1 PUSH1 0x1 PUSH1 0xA0 SHL SUB NOT AND SWAP4 AND SWAP3 SWAP1 SWAP3 OR DUP3 SSTORE SWAP3 MLOAD PUSH1 0x1 DUP3 ADD SSTORE SWAP2 MLOAD SWAP1 SWAP2 SWAP1 PUSH1 0x2 DUP3 ADD SWAP1 PUSH2 0x4E3 SWAP1 DUP3 PUSH2 0x1EE0 JUMP JUMPDEST POP PUSH1 0x60 DUP3 ADD MLOAD PUSH1 0x3 DUP3 ADD SWAP1 PUSH2 0x4F8 SWAP1 DUP3 PUSH2 0x1EE0 JUMP JUMPDEST POP POP POP POP POP POP JUMP JUMPDEST PUSH1 0x9 PUSH1 0x20 MSTORE PUSH1 0x0 SWAP1 DUP2 MSTORE PUSH1 0x40 SWAP1 KECCAK256 DUP1 SLOAD PUSH1 0x1 DUP3 ADD SLOAD PUSH1 0x2 DUP4 ADD DUP1 SLOAD PUSH1 0x1 PUSH1 0x1 PUSH1 0xA0 SHL SUB SWAP1 SWAP4 AND SWAP4 SWAP2 SWAP3 PUSH2 0x532 SWAP1 PUSH2 0x1E5D JUMP JUMPDEST DUP1 PUSH1 0x1F ADD PUSH1 0x20 DUP1 SWAP2 DIV MUL PUSH1 0x20 ADD PUSH1 0x40 MLOAD SWAP1 DUP2 ADD PUSH1 0x40 MSTORE DUP1 SWAP3 SWAP2 SWAP1 DUP2 DUP2 MSTORE PUSH1 0x20 ADD DUP3 DUP1 SLOAD PUSH2 0x55E SWAP1 PUSH2 0x1E5D JUMP JUMPDEST DUP1 ISZERO PUSH2 0x5AB JUMPI DUP1 PUSH1 0x1F LT PUSH2 0x580 JUMPI PUSH2 0x100 DUP1 DUP4 SLOAD DIV MUL DUP4 MSTORE SWAP2 PUSH1 0x20 ADD SWAP2 PUSH2 0x5AB JUMP JUMPDEST DUP3 ADD SWAP2 SWAP1 PUSH1 0x0 MSTORE PUSH1 0x20 PUSH1 0x0 KECCAK256 SWAP1 JUMPDEST DUP2 SLOAD DUP2 MSTORE SWAP1 PUSH1 0x1 ADD SWAP1 PUSH1 0x20 ADD DUP1 DUP4 GT PUSH2 0x58E JUMPI DUP3 SWAP1 SUB PUSH1 0x1F AND DUP3 ADD SWAP2 JUMPDEST POP POP POP POP POP SWAP1 DUP1 PUSH1 0x3 ADD DUP1 SLOAD PUSH2 0x5C0 SWAP1 PUSH2 0x1E5D JUMP JUMPDEST DUP1 PUSH1 0x1F ADD PUSH1 0x20 DUP1 SWAP2 DIV MUL PUSH1 0x20 ADD PUSH1 0x40 MLOAD SWAP1 DUP2 ADD PUSH1 0x40 MSTORE DUP1 SWAP3 SWAP2 SWAP1 DUP2 DUP2 MSTORE PUSH1 0x20 ADD DUP3 DUP1 SLOAD PUSH2 0x5EC SWAP1 PUSH2 0x1E5D JUMP JUMPDEST DUP1 ISZERO PUSH2 0x639 JUMPI DUP1 PUSH1 0x1F LT PUSH2 0x60E JUMPI PUSH2 0x100 DUP1 DUP4 SLOAD DIV MUL DUP4 MSTORE SWAP2 PUSH1 0x20 ADD SWAP2 PUSH2 0x639 JUMP JUMPDEST DUP3 ADD SWAP2 SWAP1 PUSH1 0x0 MSTORE PUSH1 0x20 PUSH1 0x0 KECCAK256 SWAP1 JUMPDEST DUP2 SLOAD DUP2 MSTORE SWAP1 PUSH1 0x1 ADD SWAP1 PUSH1 0x20 ADD DUP1 DUP4 GT PUSH2 0x61C JUMPI DUP3 SWAP1 SUB PUSH1 0x1F AND DUP3 ADD SWAP2 JUMPDEST POP POP POP POP POP SWAP1 POP DUP5 JUMP JUMPDEST PUSH1 0x0 SLOAD PUSH1 0x1 PUSH1 0x1 PUSH1 0xA0 SHL SUB AND CALLER EQ PUSH2 0x66D JUMPI PUSH1 0x40 MLOAD PUSH3 0x461BCD PUSH1 0xE5 SHL DUP2 MSTORE PUSH1 0x4 ADD PUSH2 0x457 SWAP1 PUSH2 0x1DED JUMP JUMPDEST PUSH1 0x2 DUP1 SLOAD SWAP1 PUSH1 0x0 PUSH2 0x67D DUP4 PUSH2 0x1E44 JUMP JUMPDEST SWAP1 SWAP2 SSTORE POP POP PUSH1 0x40 DUP1 MLOAD PUSH1 0x80 DUP2 ADD DUP3 MSTORE PUSH1 0x1 PUSH1 0x1 PUSH1 0xA0 SHL SUB DUP6 DUP2 AND DUP3 MSTORE PUSH1 0x2 DUP1 SLOAD PUSH1 0x20 DUP1 DUP6 ADD DUP3 DUP2 MSTORE DUP6 DUP8 ADD DUP10 DUP2 MSTORE PUSH1 0x60 DUP8 ADD DUP10 SWAP1 MSTORE PUSH1 0x0 SWAP4 DUP5 MSTORE PUSH1 0x7 SWAP1 SWAP3 MSTORE SWAP6 SWAP1 SWAP2 KECCAK256 DUP5 MLOAD DUP2 SLOAD PUSH1 0x1 PUSH1 0x1 PUSH1 0xA0 SHL SUB NOT AND SWAP5 AND SWAP4 SWAP1 SWAP4 OR DUP4 SSTORE SWAP4 MLOAD PUSH1 0x1 DUP4 ADD SSTORE SWAP3 MLOAD SWAP2 SWAP3 SWAP1 SWAP2 SWAP1 DUP3 ADD SWAP1 PUSH2 0x4E3 SWAP1 DUP3 PUSH2 0x1EE0 JUMP JUMPDEST PUSH1 0x0 SLOAD PUSH1 0x1 PUSH1 0x1 PUSH1 0xA0 SHL SUB AND CALLER EQ PUSH2 0x71B JUMPI PUSH1 0x40 MLOAD PUSH3 0x461BCD PUSH1 0xE5 SHL DUP2 MSTORE PUSH1 0x4 ADD PUSH2 0x457 SWAP1 PUSH2 0x1DED JUMP JUMPDEST PUSH1 0x0 PUSH1 0x2 SLOAD GT DUP1 ISZERO PUSH2 0x72F JUMPI POP PUSH1 0x0 PUSH1 0x3 SLOAD GT JUMPDEST DUP1 ISZERO PUSH2 0x73D JUMPI POP PUSH1 0x0 PUSH1 0x4 SLOAD GT JUMPDEST DUP1 ISZERO PUSH2 0x74B JUMPI POP PUSH1 0x0 PUSH1 0x5 SLOAD GT JUMPDEST PUSH2 0x7AD JUMPI PUSH1 0x40 MLOAD PUSH3 0x461BCD PUSH1 0xE5 SHL DUP2 MSTORE PUSH1 0x20 PUSH1 0x4 DUP3 ADD MSTORE PUSH1 0x2D PUSH1 0x24 DUP3 ADD MSTORE PUSH32 0x416C6C20726F6C6573206D75737420626520736574206265666F726520616464 PUSH1 0x44 DUP3 ADD MSTORE PUSH13 0x696E67206D65646963696E6573 PUSH1 0x98 SHL PUSH1 0x64 DUP3 ADD MSTORE PUSH1 0x84 ADD PUSH2 0x457 JUMP JUMPDEST PUSH1 0x1 DUP1 SLOAD SWAP1 PUSH1 0x0 PUSH2 0x7BD DUP4 PUSH2 0x1E44 JUMP JUMPDEST SWAP2 SWAP1 POP SSTORE POP PUSH1 0x40 MLOAD DUP1 PUSH2 0x160 ADD PUSH1 0x40 MSTORE DUP1 PUSH1 0x1 SLOAD DUP2 MSTORE PUSH1 0x20 ADD DUP6 DUP2 MSTORE PUSH1 0x20 ADD DUP5 DUP2 MSTORE PUSH1 0x20 ADD DUP4 DUP2 MSTORE PUSH1 0x20 ADD DUP3 DUP2 MSTORE PUSH1 0x20 ADD PUSH1 0x0 DUP2 MSTORE PUSH1 0x20 ADD PUSH1 0x0 DUP2 MSTORE PUSH1 0x20 ADD PUSH1 0x0 DUP2 MSTORE PUSH1 0x20 ADD PUSH1 0x0 DUP2 MSTORE PUSH1 0x20 ADD PUSH1 0x0 PUSH1 0x5 DUP2 GT ISZERO PUSH2 0x81D JUMPI PUSH2 0x81D PUSH2 0x1D4E JUMP JUMPDEST DUP2 MSTORE PUSH1 0x40 DUP1 MLOAD PUSH1 0x6 DUP1 DUP3 MSTORE PUSH1 0xE0 DUP3 ADD SWAP1 SWAP3 MSTORE PUSH1 0x20 SWAP3 DUP4 ADD SWAP3 SWAP1 SWAP2 SWAP1 DUP3 ADD PUSH1 0xC0 DUP1 CALLDATASIZE DUP4 CALLDATACOPY POP POP POP SWAP1 MSTORE PUSH1 0x1 DUP1 SLOAD PUSH1 0x0 SWAP1 DUP2 MSTORE PUSH1 0x6 PUSH1 0x20 SWAP1 DUP2 MSTORE PUSH1 0x40 SWAP1 SWAP2 KECCAK256 DUP4 MLOAD DUP2 SSTORE SWAP1 DUP4 ADD MLOAD SWAP1 SWAP2 DUP3 ADD SWAP1 PUSH2 0x871 SWAP1 DUP3 PUSH2 0x1EE0 JUMP JUMPDEST POP PUSH1 0x40 DUP3 ADD MLOAD PUSH1 0x2 DUP3 ADD SWAP1 PUSH2 0x886 SWAP1 DUP3 PUSH2 0x1EE0 JUMP JUMPDEST POP PUSH1 0x60 DUP3 ADD MLOAD DUP2 PUSH1 0x3 ADD SSTORE PUSH1 0x80 DUP3 ADD MLOAD DUP2 PUSH1 0x4 ADD SSTORE PUSH1 0xA0 DUP3 ADD MLOAD DUP2 PUSH1 0x5 ADD SSTORE PUSH1 0xC0 DUP3 ADD MLOAD DUP2 PUSH1 0x6 ADD SSTORE PUSH1 0xE0 DUP3 ADD MLOAD DUP2 PUSH1 0x7 ADD SSTORE PUSH2 0x100 DUP3 ADD MLOAD DUP2 PUSH1 0x8 ADD SSTORE PUSH2 0x120 DUP3 ADD MLOAD DUP2 PUSH1 0x9 ADD PUSH1 0x0 PUSH2 0x100 EXP DUP2 SLOAD DUP2 PUSH1 0xFF MUL NOT AND SWAP1 DUP4 PUSH1 0x5 DUP2 GT ISZERO PUSH2 0x8EF JUMPI PUSH2 0x8EF PUSH2 0x1D4E JUMP JUMPDEST MUL OR SWAP1 SSTORE POP PUSH2 0x140 DUP3 ADD MLOAD DUP1 MLOAD PUSH2 0x910 SWAP2 PUSH1 0xA DUP5 ADD SWAP2 PUSH1 0x20 SWAP1 SWAP2 ADD SWAP1 PUSH2 0x1A27 JUMP JUMPDEST POP POP POP POP POP POP POP JUMP JUMPDEST PUSH1 0x0 DUP2 GT DUP1 ISZERO PUSH2 0x92B JUMPI POP PUSH1 0x1 SLOAD DUP2 GT ISZERO JUMPDEST PUSH2 0x947 JUMPI PUSH1 0x40 MLOAD PUSH3 0x461BCD PUSH1 0xE5 SHL DUP2 MSTORE PUSH1 0x4 ADD PUSH2 0x457 SWAP1 PUSH2 0x1F9F JUMP JUMPDEST PUSH1 0x0 PUSH2 0x952 CALLER PUSH2 0x16BC JUMP JUMPDEST SWAP1 POP PUSH1 0x0 DUP2 GT PUSH2 0x999 JUMPI PUSH1 0x40 MLOAD PUSH3 0x461BCD PUSH1 0xE5 SHL DUP2 MSTORE PUSH1 0x20 PUSH1 0x4 DUP3 ADD MSTORE PUSH1 0x12 PUSH1 0x24 DUP3 ADD MSTORE PUSH18 0x14995D185A5B195C881B9BDD08199BDD5B99 PUSH1 0x72 SHL PUSH1 0x44 DUP3 ADD MSTORE PUSH1 0x64 ADD PUSH2 0x457 JUMP JUMPDEST PUSH1 0x3 PUSH1 0x0 DUP4 DUP2 MSTORE PUSH1 0x6 PUSH1 0x20 MSTORE PUSH1 0x40 SWAP1 KECCAK256 PUSH1 0x9 ADD SLOAD PUSH1 0xFF AND PUSH1 0x5 DUP2 GT ISZERO PUSH2 0x9C1 JUMPI PUSH2 0x9C1 PUSH2 0x1D4E JUMP JUMPDEST EQ PUSH2 0x9DE JUMPI PUSH1 0x40 MLOAD PUSH3 0x461BCD PUSH1 0xE5 SHL DUP2 MSTORE PUSH1 0x4 ADD PUSH2 0x457 SWAP1 PUSH2 0x1FCC JUMP JUMPDEST PUSH1 0x0 DUP3 DUP2 MSTORE PUSH1 0x6 PUSH1 0x20 MSTORE PUSH1 0x40 SWAP1 KECCAK256 PUSH1 0x8 DUP2 ADD DUP3 SWAP1 SSTORE PUSH1 0x9 DUP2 ADD DUP1 SLOAD PUSH1 0xFF NOT AND PUSH1 0x4 SWAP1 DUP2 OR SWAP1 SWAP2 SSTORE TIMESTAMP SWAP2 PUSH1 0xA ADD SWAP1 JUMPDEST DUP2 SLOAD DUP2 LT PUSH2 0xA1C JUMPI PUSH2 0xA1C PUSH2 0x2003 JUMP JUMPDEST PUSH1 0x0 SWAP2 DUP3 MSTORE PUSH1 0x20 SWAP1 SWAP2 KECCAK256 ADD SSTORE POP POP JUMP JUMPDEST PUSH1 0x0 DUP2 GT DUP1 ISZERO PUSH2 0xA3E JUMPI POP PUSH1 0x1 SLOAD DUP2 GT ISZERO JUMPDEST PUSH2 0xA5A JUMPI PUSH1 0x40 MLOAD PUSH3 0x461BCD PUSH1 0xE5 SHL DUP2 MSTORE PUSH1 0x4 ADD PUSH2 0x457 SWAP1 PUSH2 0x1F9F JUMP JUMPDEST PUSH1 0x0 PUSH2 0xA65 CALLER PUSH2 0x175F JUMP JUMPDEST SWAP1 POP PUSH1 0x0 DUP2 GT PUSH2 0xAAF JUMPI PUSH1 0x40 MLOAD PUSH3 0x461BCD PUSH1 0xE5 SHL DUP2 MSTORE PUSH1 0x20 PUSH1 0x4 DUP3 ADD MSTORE PUSH1 0x15 PUSH1 0x24 DUP3 ADD MSTORE PUSH21 0x111A5CDD1C9A589D5D1BDC881B9BDD08199BDD5B99 PUSH1 0x5A SHL PUSH1 0x44 DUP3 ADD MSTORE PUSH1 0x64 ADD PUSH2 0x457 JUMP JUMPDEST PUSH1 0x2 PUSH1 0x0 DUP4 DUP2 MSTORE PUSH1 0x6 PUSH1 0x20 MSTORE PUSH1 0x40 SWAP1 KECCAK256 PUSH1 0x9 ADD SLOAD PUSH1 0xFF AND PUSH1 0x5 DUP2 GT ISZERO PUSH2 0xAD7 JUMPI PUSH2 0xAD7 PUSH2 0x1D4E JUMP JUMPDEST EQ PUSH2 0xAF4 JUMPI PUSH1 0x40 MLOAD PUSH3 0x461BCD PUSH1 0xE5 SHL DUP2 MSTORE PUSH1 0x4 ADD PUSH2 0x457 SWAP1 PUSH2 0x1FCC JUMP JUMPDEST PUSH1 0x0 DUP3 DUP2 MSTORE PUSH1 0x6 PUSH1 0x20 MSTORE PUSH1 0x40 SWAP1 KECCAK256 PUSH1 0x7 DUP2 ADD DUP3 SWAP1 SSTORE PUSH1 0x9 DUP2 ADD DUP1 SLOAD PUSH1 0xFF NOT AND PUSH1 0x3 SWAP1 DUP2 OR SWAP1 SWAP2 SSTORE TIMESTAMP SWAP2 PUSH1 0xA ADD SWAP1 PUSH2 0xA0C JUMP JUMPDEST PUSH1 0xA PUSH1 0x20 MSTORE PUSH1 0x0 SWAP1 DUP2 MSTORE PUSH1 0x40 SWAP1 KECCAK256 DUP1 SLOAD PUSH1 0x1 DUP3 ADD SLOAD PUSH1 0x2 DUP4 ADD DUP1 SLOAD PUSH1 0x1 PUSH1 0x1 PUSH1 0xA0 SHL SUB SWAP1 SWAP4 AND SWAP4 SWAP2 SWAP3 PUSH2 0x532 SWAP1 PUSH2 0x1E5D JUMP JUMPDEST PUSH1 0x0 SLOAD PUSH1 0x1 PUSH1 0x1 PUSH1 0xA0 SHL SUB AND CALLER EQ PUSH2 0xB82 JUMPI PUSH1 0x40 MLOAD PUSH3 0x461BCD PUSH1 0xE5 SHL DUP2 MSTORE PUSH1 0x4 ADD PUSH2 0x457 SWAP1 PUSH2 0x1DED JUMP JUMPDEST PUSH1 0x0 DUP3 GT DUP1 ISZERO PUSH2 0xB94 JUMPI POP PUSH1 0x1 SLOAD DUP3 GT ISZERO JUMPDEST PUSH2 0xBB0 JUMPI PUSH1 0x40 MLOAD PUSH3 0x461BCD PUSH1 0xE5 SHL DUP2 MSTORE PUSH1 0x4 ADD PUSH2 0x457 SWAP1 PUSH2 0x1F9F JUMP JUMPDEST PUSH1 0x0 DUP3 DUP2 MSTORE PUSH1 0x6 PUSH1 0x20 MSTORE PUSH1 0x40 SWAP1 KECCAK256 PUSH1 0x3 ADD DUP2 SWAP1 SSTORE PUSH2 0xBCD DUP3 PUSH2 0x1809 JUMP JUMPDEST POP POP JUMP JUMPDEST PUSH1 0x0 SLOAD PUSH1 0x1 PUSH1 0x1 PUSH1 0xA0 SHL SUB AND CALLER EQ PUSH2 0xBFB JUMPI PUSH1 0x40 MLOAD PUSH3 0x461BCD PUSH1 0xE5 SHL DUP2 MSTORE PUSH1 0x4 ADD PUSH2 0x457 SWAP1 PUSH2 0x1DED JUMP JUMPDEST PUSH1 0x3 DUP1 SLOAD SWAP1 PUSH1 0x0 PUSH2 0xC0B DUP4 PUSH2 0x1E44 JUMP JUMPDEST SWAP1 SWAP2 SSTORE POP POP PUSH1 0x40 DUP1 MLOAD PUSH1 0x80 DUP2 ADD DUP3 MSTORE PUSH1 0x1 PUSH1 0x1 PUSH1 0xA0 SHL SUB DUP6 DUP2 AND DUP3 MSTORE PUSH1 0x3 SLOAD PUSH1 0x20 DUP1 DUP5 ADD DUP3 DUP2 MSTORE DUP5 DUP7 ADD DUP9 DUP2 MSTORE PUSH1 0x60 DUP7 ADD DUP9 SWAP1 MSTORE PUSH1 0x0 SWAP4 DUP5 MSTORE PUSH1 0x8 SWAP1 SWAP3 MSTORE SWAP5 SWAP1 SWAP2 KECCAK256 DUP4 MLOAD DUP2 SLOAD PUSH1 0x1 PUSH1 0x1 PUSH1 0xA0 SHL SUB NOT AND SWAP4 AND SWAP3 SWAP1 SWAP3 OR DUP3 SSTORE SWAP3 MLOAD PUSH1 0x1 DUP3 ADD SSTORE SWAP2 MLOAD SWAP1 SWAP2 SWAP1 PUSH1 0x2 DUP3 ADD SWAP1 PUSH2 0x4E3 SWAP1 DUP3 PUSH2 0x1EE0 JUMP JUMPDEST PUSH1 0x0 SLOAD PUSH1 0x1 PUSH1 0x1 PUSH1 0xA0 SHL SUB AND CALLER EQ PUSH2 0xCA8 JUMPI PUSH1 0x40 MLOAD PUSH3 0x461BCD PUSH1 0xE5 SHL DUP2 MSTORE PUSH1 0x4 ADD PUSH2 0x457 SWAP1 PUSH2 0x1DED JUMP JUMPDEST PUSH1 0x5 DUP1 SLOAD SWAP1 PUSH1 0x0 PUSH2 0xCB8 DUP4 PUSH2 0x1E44 JUMP JUMPDEST SWAP1 SWAP2 SSTORE POP POP PUSH1 0x40 DUP1 MLOAD PUSH1 0x80 DUP2 ADD DUP3 MSTORE PUSH1 0x1 PUSH1 0x1 PUSH1 0xA0 SHL SUB DUP6 DUP2 AND DUP3 MSTORE PUSH1 0x5 SLOAD PUSH1 0x20 DUP1 DUP5 ADD DUP3 DUP2 MSTORE DUP5 DUP7 ADD DUP9 DUP2 MSTORE PUSH1 0x60 DUP7 ADD DUP9 SWAP1 MSTORE PUSH1 0x0 SWAP4 DUP5 MSTORE PUSH1 0xA SWAP1 SWAP3 MSTORE SWAP5 SWAP1 SWAP2 KECCAK256 DUP4 MLOAD DUP2 SLOAD PUSH1 0x1 PUSH1 0x1 PUSH1 0xA0 SHL SUB NOT AND SWAP4 AND SWAP3 SWAP1 SWAP3 OR DUP3 SSTORE SWAP3 MLOAD PUSH1 0x1 DUP3 ADD SSTORE SWAP2 MLOAD SWAP1 SWAP2 SWAP1 PUSH1 0x2 DUP3 ADD SWAP1 PUSH2 0x4E3 SWAP1 DUP3 PUSH2 0x1EE0 JUMP JUMPDEST PUSH1 0x0 DUP2 GT DUP1 ISZERO PUSH2 0xD3D JUMPI POP PUSH1 0x1 SLOAD DUP2 GT ISZERO JUMPDEST PUSH2 0xD59 JUMPI PUSH1 0x40 MLOAD PUSH3 0x461BCD PUSH1 0xE5 SHL DUP2 MSTORE PUSH1 0x4 ADD PUSH2 0x457 SWAP1 PUSH2 0x1F9F JUMP JUMPDEST PUSH1 0x0 PUSH2 0xD64 CALLER PUSH2 0x18E0 JUMP JUMPDEST SWAP1 POP PUSH1 0x0 DUP2 GT PUSH2 0xDA6 JUMPI PUSH1 0x40 MLOAD PUSH3 0x461BCD PUSH1 0xE5 SHL DUP2 MSTORE PUSH1 0x20 PUSH1 0x4 DUP3 ADD MSTORE PUSH1 0xD PUSH1 0x24 DUP3 ADD MSTORE PUSH13 0x149354C81B9BDD08199BDD5B99 PUSH1 0x9A SHL PUSH1 0x44 DUP3 ADD MSTORE PUSH1 0x64 ADD PUSH2 0x457 JUMP JUMPDEST PUSH1 0x0 DUP3 DUP2 MSTORE PUSH1 0x6 PUSH1 0x20 MSTORE PUSH1 0x40 DUP2 KECCAK256 PUSH1 0x9 ADD SLOAD PUSH1 0xFF AND PUSH1 0x5 DUP2 GT ISZERO PUSH2 0xDCC JUMPI PUSH2 0xDCC PUSH2 0x1D4E JUMP JUMPDEST EQ PUSH2 0xDE9 JUMPI PUSH1 0x40 MLOAD PUSH3 0x461BCD PUSH1 0xE5 SHL DUP2 MSTORE PUSH1 0x4 ADD PUSH2 0x457 SWAP1 PUSH2 0x1FCC JUMP JUMPDEST PUSH1 0x0 DUP3 DUP2 MSTORE PUSH1 0x6 PUSH1 0x20 MSTORE PUSH1 0x40 SWAP1 KECCAK256 PUSH1 0x5 DUP2 ADD DUP3 SWAP1 SSTORE PUSH1 0x9 DUP2 ADD DUP1 SLOAD PUSH1 0xFF NOT AND PUSH1 0x1 SWAP1 DUP2 OR SWAP1 SWAP2 SSTORE TIMESTAMP SWAP2 PUSH1 0xA ADD SWAP1 PUSH2 0xA0C JUMP JUMPDEST PUSH1 0x60 PUSH1 0x0 DUP3 GT DUP1 ISZERO PUSH2 0xE2F JUMPI POP PUSH1 0x1 SLOAD DUP3 GT ISZERO JUMPDEST PUSH2 0xE4B JUMPI PUSH1 0x40 MLOAD PUSH3 0x461BCD PUSH1 0xE5 SHL DUP2 MSTORE PUSH1 0x4 ADD PUSH2 0x457 SWAP1 PUSH2 0x1F9F JUMP JUMPDEST PUSH1 0x0 DUP3 DUP2 MSTORE PUSH1 0x6 PUSH1 0x20 DUP2 DUP2 MSTORE PUSH1 0x40 SWAP3 DUP4 SWAP1 KECCAK256 DUP4 MLOAD DUP4 DUP2 MSTORE PUSH1 0xE0 DUP2 ADD SWAP1 SWAP5 MSTORE SWAP3 SWAP1 DUP3 SWAP1 DUP3 ADD PUSH1 0xC0 DUP1 CALLDATASIZE DUP4 CALLDATACOPY ADD SWAP1 POP POP SWAP3 POP PUSH1 0x1 JUMPDEST DUP2 DUP2 LT ISZERO PUSH2 0xF68 JUMPI PUSH1 0x0 DUP4 PUSH1 0xA ADD DUP3 DUP2 SLOAD DUP2 LT PUSH2 0xE9D JUMPI PUSH2 0xE9D PUSH2 0x2003 JUMP JUMPDEST SWAP1 PUSH1 0x0 MSTORE PUSH1 0x20 PUSH1 0x0 KECCAK256 ADD SLOAD GT DUP1 ISZERO PUSH2 0xEDE JUMPI POP PUSH1 0x0 PUSH1 0xA DUP5 ADD PUSH2 0xEC1 PUSH1 0x1 DUP5 PUSH2 0x2019 JUMP JUMPDEST DUP2 SLOAD DUP2 LT PUSH2 0xED1 JUMPI PUSH2 0xED1 PUSH2 0x2003 JUMP JUMPDEST SWAP1 PUSH1 0x0 MSTORE PUSH1 0x20 PUSH1 0x0 KECCAK256 ADD SLOAD GT JUMPDEST ISZERO PUSH2 0xF60 JUMPI PUSH1 0xA DUP4 ADD PUSH2 0xEF2 PUSH1 0x1 DUP4 PUSH2 0x2019 JUMP JUMPDEST DUP2 SLOAD DUP2 LT PUSH2 0xF02 JUMPI PUSH2 0xF02 PUSH2 0x2003 JUMP JUMPDEST SWAP1 PUSH1 0x0 MSTORE PUSH1 0x20 PUSH1 0x0 KECCAK256 ADD SLOAD DUP4 PUSH1 0xA ADD DUP3 DUP2 SLOAD DUP2 LT PUSH2 0xF22 JUMPI PUSH2 0xF22 PUSH2 0x2003 JUMP JUMPDEST SWAP1 PUSH1 0x0 MSTORE PUSH1 0x20 PUSH1 0x0 KECCAK256 ADD SLOAD PUSH2 0xF37 SWAP2 SWAP1 PUSH2 0x2019 JUMP JUMPDEST DUP5 PUSH2 0xF43 PUSH1 0x1 DUP5 PUSH2 0x2019 JUMP JUMPDEST DUP2 MLOAD DUP2 LT PUSH2 0xF53 JUMPI PUSH2 0xF53 PUSH2 0x2003 JUMP JUMPDEST PUSH1 0x20 MUL PUSH1 0x20 ADD ADD DUP2 DUP2 MSTORE POP POP JUMPDEST PUSH1 0x1 ADD PUSH2 0xE7E JUMP JUMPDEST POP POP POP SWAP2 SWAP1 POP JUMP JUMPDEST PUSH1 0x0 DUP2 GT DUP1 ISZERO PUSH2 0xF82 JUMPI POP PUSH1 0x1 SLOAD DUP2 GT ISZERO JUMPDEST PUSH2 0xF9E JUMPI PUSH1 0x40 MLOAD PUSH3 0x461BCD PUSH1 0xE5 SHL DUP2 MSTORE PUSH1 0x4 ADD PUSH2 0x457 SWAP1 PUSH2 0x1F9F JUMP JUMPDEST PUSH1 0x0 PUSH2 0xFA9 CALLER PUSH2 0x16BC JUMP JUMPDEST SWAP1 POP PUSH1 0x0 DUP2 GT PUSH2 0xFF0 JUMPI PUSH1 0x40 MLOAD PUSH3 0x461BCD PUSH1 0xE5 SHL DUP2 MSTORE PUSH1 0x20 PUSH1 0x4 DUP3 ADD MSTORE PUSH1 0x12 PUSH1 0x24 DUP3 ADD MSTORE PUSH18 0x14995D185A5B195C881B9BDD08199BDD5B99 PUSH1 0x72 SHL PUSH1 0x44 DUP3 ADD MSTORE PUSH1 0x64 ADD PUSH2 0x457 JUMP JUMPDEST PUSH1 0x0 DUP3 DUP2 MSTORE PUSH1 0x6 PUSH1 0x20 MSTORE PUSH1 0x40 SWAP1 KECCAK256 PUSH1 0x8 ADD SLOAD DUP2 EQ PUSH2 0x105F JUMPI PUSH1 0x40 MLOAD PUSH3 0x461BCD PUSH1 0xE5 SHL DUP2 MSTORE PUSH1 0x20 PUSH1 0x4 DUP3 ADD MSTORE PUSH1 0x26 PUSH1 0x24 DUP3 ADD MSTORE PUSH32 0x4F6E6C7920636F72726563742072657461696C65722063616E206D61726B2061 PUSH1 0x44 DUP3 ADD MSTORE PUSH6 0x1CC81CDBDB19 PUSH1 0xD2 SHL PUSH1 0x64 DUP3 ADD MSTORE PUSH1 0x84 ADD PUSH2 0x457 JUMP JUMPDEST PUSH1 0x4 PUSH1 0x0 DUP4 DUP2 MSTORE PUSH1 0x6 PUSH1 0x20 MSTORE PUSH1 0x40 SWAP1 KECCAK256 PUSH1 0x9 ADD SLOAD PUSH1 0xFF AND PUSH1 0x5 DUP2 GT ISZERO PUSH2 0x1087 JUMPI PUSH2 0x1087 PUSH2 0x1D4E JUMP JUMPDEST EQ PUSH2 0x10A4 JUMPI PUSH1 0x40 MLOAD PUSH3 0x461BCD PUSH1 0xE5 SHL DUP2 MSTORE PUSH1 0x4 ADD PUSH2 0x457 SWAP1 PUSH2 0x1FCC JUMP JUMPDEST PUSH1 0x0 DUP3 DUP2 MSTORE PUSH1 0x6 PUSH1 0x20 MSTORE PUSH1 0x40 SWAP1 KECCAK256 PUSH1 0x9 DUP2 ADD DUP1 SLOAD PUSH1 0xFF NOT AND PUSH1 0x5 SWAP1 DUP2 OR SWAP1 SWAP2 SSTORE TIMESTAMP SWAP2 PUSH1 0xA ADD SWAP1 PUSH2 0xA0C JUMP JUMPDEST PUSH1 0x0 DUP2 GT DUP1 ISZERO PUSH2 0x10E1 JUMPI POP PUSH1 0x1 SLOAD DUP2 GT ISZERO JUMPDEST PUSH2 0x10FD JUMPI PUSH1 0x40 MLOAD PUSH3 0x461BCD PUSH1 0xE5 SHL DUP2 MSTORE PUSH1 0x4 ADD PUSH2 0x457 SWAP1 PUSH2 0x1F9F JUMP JUMPDEST PUSH1 0x0 PUSH2 0x1108 CALLER PUSH2 0x197D JUMP JUMPDEST SWAP1 POP PUSH1 0x0 DUP2 GT PUSH2 0x1153 JUMPI PUSH1 0x40 MLOAD PUSH3 0x461BCD PUSH1 0xE5 SHL DUP2 MSTORE PUSH1 0x20 PUSH1 0x4 DUP3 ADD MSTORE PUSH1 0x16 PUSH1 0x24 DUP3 ADD MSTORE PUSH22 0x13585B9D599858DD1D5C995C881B9BDD08199BDD5B99 PUSH1 0x52 SHL PUSH1 0x44 DUP3 ADD MSTORE PUSH1 0x64 ADD PUSH2 0x457 JUMP JUMPDEST PUSH1 0x1 PUSH1 0x0 DUP4 DUP2 MSTORE PUSH1 0x6 PUSH1 0x20 MSTORE PUSH1 0x40 SWAP1 KECCAK256 PUSH1 0x9 ADD SLOAD PUSH1 0xFF AND PUSH1 0x5 DUP2 GT ISZERO PUSH2 0x117B JUMPI PUSH2 0x117B PUSH2 0x1D4E JUMP JUMPDEST EQ PUSH2 0x1198 JUMPI PUSH1 0x40 MLOAD PUSH3 0x461BCD PUSH1 0xE5 SHL DUP2 MSTORE PUSH1 0x4 ADD PUSH2 0x457 SWAP1 PUSH2 0x1FCC JUMP JUMPDEST PUSH1 0x0 DUP3 DUP2 MSTORE PUSH1 0x6 PUSH1 0x20 DUP2 SWAP1 MSTORE PUSH1 0x40 SWAP1 SWAP2 KECCAK256 SWAP1 DUP2 ADD DUP3 SWAP1 SSTORE PUSH1 0x9 DUP2 ADD DUP1 SLOAD PUSH1 0xFF NOT AND PUSH1 0x2 SWAP1 DUP2 OR SWAP1 SWAP2 SSTORE TIMESTAMP SWAP2 PUSH1 0xA ADD SWAP1 PUSH2 0xA0C JUMP JUMPDEST PUSH1 0x8 PUSH1 0x20 MSTORE PUSH1 0x0 SWAP1 DUP2 MSTORE PUSH1 0x40 SWAP1 KECCAK256 DUP1 SLOAD PUSH1 0x1 DUP3 ADD SLOAD PUSH1 0x2 DUP4 ADD DUP1 SLOAD PUSH1 0x1 PUSH1 0x1 PUSH1 0xA0 SHL SUB SWAP1 SWAP4 AND SWAP4 SWAP2 SWAP3 PUSH2 0x532 SWAP1 PUSH2 0x1E5D JUMP JUMPDEST PUSH1 0x1 DUP1 SLOAD SWAP1 PUSH1 0x0 SWAP1 DUP2 SWAP1 DUP2 SWAP1 JUMPDEST PUSH1 0x1 SLOAD DUP2 GT PUSH2 0x1285 JUMPI PUSH1 0x0 DUP2 DUP2 MSTORE PUSH1 0x6 PUSH1 0x20 MSTORE PUSH1 0x40 SWAP1 KECCAK256 PUSH1 0x3 ADD SLOAD PUSH1 0xB SLOAD DUP2 LT ISZERO PUSH2 0x123E JUMPI DUP5 PUSH2 0x123A DUP2 PUSH2 0x1E44 JUMP JUMPDEST SWAP6 POP POP JUMPDEST PUSH1 0xC SLOAD DUP2 GT ISZERO PUSH2 0x1256 JUMPI DUP4 PUSH2 0x1252 DUP2 PUSH2 0x1E44 JUMP JUMPDEST SWAP5 POP POP JUMPDEST PUSH2 0x125F DUP3 PUSH2 0x14B6 JUMP JUMPDEST ISZERO PUSH2 0x1272 JUMPI DUP3 PUSH2 0x126E DUP2 PUSH2 0x1E44 JUMP JUMPDEST SWAP4 POP POP JUMPDEST POP DUP1 PUSH2 0x127D DUP2 PUSH2 0x1E44 JUMP JUMPDEST SWAP2 POP POP PUSH2 0x120B JUMP JUMPDEST POP SWAP1 SWAP2 SWAP3 SWAP4 JUMP JUMPDEST PUSH1 0x60 PUSH1 0x0 DUP3 GT DUP1 ISZERO PUSH2 0x12A0 JUMPI POP PUSH1 0x1 SLOAD DUP3 GT ISZERO JUMPDEST PUSH2 0x12BC JUMPI PUSH1 0x40 MLOAD PUSH3 0x461BCD PUSH1 0xE5 SHL DUP2 MSTORE PUSH1 0x4 ADD PUSH2 0x457 SWAP1 PUSH2 0x1F9F JUMP JUMPDEST PUSH1 0x0 DUP3 DUP2 MSTORE PUSH1 0x6 PUSH1 0x20 MSTORE PUSH1 0x40 DUP2 KECCAK256 PUSH1 0x9 ADD SLOAD PUSH1 0xFF AND SWAP1 DUP2 PUSH1 0x5 DUP2 GT ISZERO PUSH2 0x12E4 JUMPI PUSH2 0x12E4 PUSH2 0x1D4E JUMP JUMPDEST SUB PUSH2 0x1317 JUMPI POP POP PUSH1 0x40 DUP1 MLOAD DUP1 DUP3 ADD SWAP1 SWAP2 MSTORE PUSH1 0x10 DUP2 MSTORE PUSH16 0x1359591A58DA5B994813DC99195C9959 PUSH1 0x82 SHL PUSH1 0x20 DUP3 ADD MSTORE SWAP2 SWAP1 POP JUMP JUMPDEST PUSH1 0x1 DUP2 PUSH1 0x5 DUP2 GT ISZERO PUSH2 0x132B JUMPI PUSH2 0x132B PUSH2 0x1D4E JUMP JUMPDEST SUB PUSH2 0x136B JUMPI POP POP PUSH1 0x40 DUP1 MLOAD DUP1 DUP3 ADD SWAP1 SWAP2 MSTORE PUSH1 0x19 DUP2 MSTORE PUSH32 0x526177204D6174657269616C20537570706C7920537461676500000000000000 PUSH1 0x20 DUP3 ADD MSTORE SWAP2 SWAP1 POP JUMP JUMPDEST PUSH1 0x2 DUP2 PUSH1 0x5 DUP2 GT ISZERO PUSH2 0x137F JUMPI PUSH2 0x137F PUSH2 0x1D4E JUMP JUMPDEST SUB PUSH2 0x13B5 JUMPI POP POP PUSH1 0x40 DUP1 MLOAD DUP1 DUP3 ADD SWAP1 SWAP2 MSTORE PUSH1 0x13 DUP2 MSTORE PUSH19 0x4D616E75666163747572696E67205374616765 PUSH1 0x68 SHL PUSH1 0x20 DUP3 ADD MSTORE SWAP2 SWAP1 POP JUMP JUMPDEST PUSH1 0x3 DUP2 PUSH1 0x5 DUP2 GT ISZERO PUSH2 0x13C9 JUMPI PUSH2 0x13C9 PUSH2 0x1D4E JUMP JUMPDEST SUB PUSH2 0x13FE JUMPI POP POP PUSH1 0x40 DUP1 MLOAD DUP1 DUP3 ADD SWAP1 SWAP2 MSTORE PUSH1 0x12 DUP2 MSTORE PUSH18 0x446973747269627574696F6E205374616765 PUSH1 0x70 SHL PUSH1 0x20 DUP3 ADD MSTORE SWAP2 SWAP1 POP JUMP JUMPDEST PUSH1 0x4 DUP2 PUSH1 0x5 DUP2 GT ISZERO PUSH2 0x1412 JUMPI PUSH2 0x1412 PUSH2 0x1D4E JUMP JUMPDEST SUB PUSH2 0x1441 JUMPI POP POP PUSH1 0x40 DUP1 MLOAD DUP1 DUP3 ADD SWAP1 SWAP2 MSTORE PUSH1 0xC DUP2 MSTORE PUSH12 0x52657461696C205374616765 PUSH1 0xA0 SHL PUSH1 0x20 DUP3 ADD MSTORE SWAP2 SWAP1 POP JUMP JUMPDEST PUSH1 0x5 DUP2 PUSH1 0x5 DUP2 GT ISZERO PUSH2 0x1455 JUMPI PUSH2 0x1455 PUSH2 0x1D4E JUMP JUMPDEST SUB PUSH2 0x1485 JUMPI POP POP PUSH1 0x40 DUP1 MLOAD DUP1 DUP3 ADD SWAP1 SWAP2 MSTORE PUSH1 0xD DUP2 MSTORE PUSH13 0x1359591A58DA5B994814DBDB19 PUSH1 0x9A SHL PUSH1 0x20 DUP3 ADD MSTORE SWAP2 SWAP1 POP JUMP JUMPDEST POP POP PUSH1 0x40 DUP1 MLOAD DUP1 DUP3 ADD SWAP1 SWAP2 MSTORE PUSH1 0xD DUP2 MSTORE PUSH13 0x556E6B6E6F776E205374616765 PUSH1 0x98 SHL PUSH1 0x20 DUP3 ADD MSTORE SWAP2 SWAP1 POP JUMP JUMPDEST POP SWAP2 SWAP1 POP JUMP JUMPDEST PUSH1 0x0 DUP1 DUP3 GT DUP1 ISZERO PUSH2 0x14C9 JUMPI POP PUSH1 0x1 SLOAD DUP3 GT ISZERO JUMPDEST PUSH2 0x14E5 JUMPI PUSH1 0x40 MLOAD PUSH3 0x461BCD PUSH1 0xE5 SHL DUP2 MSTORE PUSH1 0x4 ADD PUSH2 0x457 SWAP1 PUSH2 0x1F9F JUMP JUMPDEST PUSH1 0x0 DUP3 DUP2 MSTORE PUSH1 0x6 PUSH1 0x20 MSTORE PUSH1 0x40 SWAP1 KECCAK256 PUSH1 0x4 ADD SLOAD DUP1 ISZERO DUP1 ISZERO SWAP1 PUSH2 0x1511 JUMPI POP PUSH2 0x150E TIMESTAMP PUSH3 0x13C680 PUSH2 0x2032 JUMP JUMPDEST DUP2 LT JUMPDEST ISZERO PUSH2 0x151F JUMPI POP PUSH1 0x1 SWAP3 SWAP2 POP POP JUMP JUMPDEST POP PUSH1 0x0 SWAP3 SWAP2 POP POP JUMP JUMPDEST PUSH1 0x6 PUSH1 0x20 MSTORE PUSH1 0x0 SWAP1 DUP2 MSTORE PUSH1 0x40 SWAP1 KECCAK256 DUP1 SLOAD PUSH1 0x1 DUP3 ADD DUP1 SLOAD SWAP2 SWAP3 SWAP2 PUSH2 0x154A SWAP1 PUSH2 0x1E5D JUMP JUMPDEST DUP1 PUSH1 0x1F ADD PUSH1 0x20 DUP1 SWAP2 DIV MUL PUSH1 0x20 ADD PUSH1 0x40 MLOAD SWAP1 DUP2 ADD PUSH1 0x40 MSTORE DUP1 SWAP3 SWAP2 SWAP1 DUP2 DUP2 MSTORE PUSH1 0x20 ADD DUP3 DUP1 SLOAD PUSH2 0x1576 SWAP1 PUSH2 0x1E5D JUMP JUMPDEST DUP1 ISZERO PUSH2 0x15C3 JUMPI DUP1 PUSH1 0x1F LT PUSH2 0x1598 JUMPI PUSH2 0x100 DUP1 DUP4 SLOAD DIV MUL DUP4 MSTORE SWAP2 PUSH1 0x20 ADD SWAP2 PUSH2 0x15C3 JUMP JUMPDEST DUP3 ADD SWAP2 SWAP1 PUSH1 0x0 MSTORE PUSH1 0x20 PUSH1 0x0 KECCAK256 SWAP1 JUMPDEST DUP2 SLOAD DUP2 MSTORE SWAP1 PUSH1 0x1 ADD SWAP1 PUSH1 0x20 ADD DUP1 DUP4 GT PUSH2 0x15A6 JUMPI DUP3 SWAP1 SUB PUSH1 0x1F AND DUP3 ADD SWAP2 JUMPDEST POP POP POP POP POP SWAP1 DUP1 PUSH1 0x2 ADD DUP1 SLOAD PUSH2 0x15D8 SWAP1 PUSH2 0x1E5D JUMP JUMPDEST DUP1 PUSH1 0x1F ADD PUSH1 0x20 DUP1 SWAP2 DIV MUL PUSH1 0x20 ADD PUSH1 0x40 MLOAD SWAP1 DUP2 ADD PUSH1 0x40 MSTORE DUP1 SWAP3 SWAP2 SWAP1 DUP2 DUP2 MSTORE PUSH1 0x20 ADD DUP3 DUP1 SLOAD PUSH2 0x1604 SWAP1 PUSH2 0x1E5D JUMP JUMPDEST DUP1 ISZERO PUSH2 0x1651 JUMPI DUP1 PUSH1 0x1F LT PUSH2 0x1626 JUMPI PUSH2 0x100 DUP1 DUP4 SLOAD DIV MUL DUP4 MSTORE SWAP2 PUSH1 0x20 ADD SWAP2 PUSH2 0x1651 JUMP JUMPDEST DUP3 ADD SWAP2 SWAP1 PUSH1 0x0 MSTORE PUSH1 0x20 PUSH1 0x0 KECCAK256 SWAP1 JUMPDEST DUP2 SLOAD DUP2 MSTORE SWAP1 PUSH1 0x1 ADD SWAP1 PUSH1 0x20 ADD DUP1 DUP4 GT PUSH2 0x1634 JUMPI DUP3 SWAP1 SUB PUSH1 0x1F AND DUP3 ADD SWAP2 JUMPDEST POP POP POP POP PUSH1 0x3 DUP4 ADD SLOAD PUSH1 0x4 DUP5 ADD SLOAD PUSH1 0x5 DUP6 ADD SLOAD PUSH1 0x6 DUP7 ADD SLOAD PUSH1 0x7 DUP8 ADD SLOAD PUSH1 0x8 DUP9 ADD SLOAD PUSH1 0x9 SWAP1 SWAP9 ADD SLOAD SWAP7 SWAP8 SWAP5 SWAP7 SWAP4 SWAP6 POP SWAP2 SWAP4 SWAP1 SWAP3 PUSH1 0xFF AND DUP11 JUMP JUMPDEST PUSH1 0x7 PUSH1 0x20 MSTORE PUSH1 0x0 SWAP1 DUP2 MSTORE PUSH1 0x40 SWAP1 KECCAK256 DUP1 SLOAD PUSH1 0x1 DUP3 ADD SLOAD PUSH1 0x2 DUP4 ADD DUP1 SLOAD PUSH1 0x1 PUSH1 0x1 PUSH1 0xA0 SHL SUB SWAP1 SWAP4 AND SWAP4 SWAP2 SWAP3 PUSH2 0x532 SWAP1 PUSH2 0x1E5D JUMP JUMPDEST PUSH1 0x0 DUP1 PUSH1 0x5 SLOAD GT PUSH2 0x1708 JUMPI PUSH1 0x40 MLOAD PUSH3 0x461BCD PUSH1 0xE5 SHL DUP2 MSTORE PUSH1 0x20 PUSH1 0x4 DUP3 ADD MSTORE PUSH1 0x16 PUSH1 0x24 DUP3 ADD MSTORE PUSH22 0x4E6F2072657461696C65727320617661696C61626C65 PUSH1 0x50 SHL PUSH1 0x44 DUP3 ADD MSTORE PUSH1 0x64 ADD PUSH2 0x457 JUMP JUMPDEST PUSH1 0x1 JUMPDEST PUSH1 0x5 SLOAD DUP2 GT PUSH2 0x151F JUMPI PUSH1 0x0 DUP2 DUP2 MSTORE PUSH1 0xA PUSH1 0x20 MSTORE PUSH1 0x40 SWAP1 KECCAK256 SLOAD PUSH1 0x1 PUSH1 0x1 PUSH1 0xA0 SHL SUB DUP1 DUP6 AND SWAP2 AND SUB PUSH2 0x174D JUMPI PUSH1 0x0 SWAP1 DUP2 MSTORE PUSH1 0xA PUSH1 0x20 MSTORE PUSH1 0x40 SWAP1 KECCAK256 PUSH1 0x1 ADD SLOAD SWAP3 SWAP2 POP POP JUMP JUMPDEST DUP1 PUSH2 0x1757 DUP2 PUSH2 0x1E44 JUMP JUMPDEST SWAP2 POP POP PUSH2 0x170B JUMP JUMPDEST PUSH1 0x0 DUP1 PUSH1 0x4 SLOAD GT PUSH2 0x17B2 JUMPI PUSH1 0x40 MLOAD PUSH3 0x461BCD PUSH1 0xE5 SHL DUP2 MSTORE PUSH1 0x20 PUSH1 0x4 DUP3 ADD MSTORE PUSH1 0x19 PUSH1 0x24 DUP3 ADD MSTORE PUSH32 0x4E6F206469737472696275746F727320617661696C61626C6500000000000000 PUSH1 0x44 DUP3 ADD MSTORE PUSH1 0x64 ADD PUSH2 0x457 JUMP JUMPDEST PUSH1 0x1 JUMPDEST PUSH1 0x4 SLOAD DUP2 GT PUSH2 0x151F JUMPI PUSH1 0x0 DUP2 DUP2 MSTORE PUSH1 0x9 PUSH1 0x20 MSTORE PUSH1 0x40 SWAP1 KECCAK256 SLOAD PUSH1 0x1 PUSH1 0x1 PUSH1 0xA0 SHL SUB DUP1 DUP6 AND SWAP2 AND SUB PUSH2 0x17F7 JUMPI PUSH1 0x0 SWAP1 DUP2 MSTORE PUSH1 0x9 PUSH1 0x20 MSTORE PUSH1 0x40 SWAP1 KECCAK256 PUSH1 0x1 ADD SLOAD SWAP3 SWAP2 POP POP JUMP JUMPDEST DUP1 PUSH2 0x1801 DUP2 PUSH2 0x1E44 JUMP JUMPDEST SWAP2 POP POP PUSH2 0x17B5 JUMP JUMPDEST PUSH1 0x0 DUP2 DUP2 MSTORE PUSH1 0x6 PUSH1 0x20 MSTORE PUSH1 0x40 SWAP1 KECCAK256 PUSH1 0x3 ADD SLOAD PUSH1 0xB SLOAD DUP2 LT ISZERO PUSH2 0x1884 JUMPI PUSH32 0xE15983936B4D90991838DB308A365EE0DA6B9BD5E38C649239C1E46C0EFC4980 DUP3 PUSH1 0x40 MLOAD PUSH2 0x1878 SWAP2 DUP2 MSTORE PUSH1 0x40 PUSH1 0x20 DUP3 ADD DUP2 SWAP1 MSTORE PUSH1 0xA SWAP1 DUP3 ADD MSTORE PUSH10 0x556E64657273746F636B PUSH1 0xB0 SHL PUSH1 0x60 DUP3 ADD MSTORE PUSH1 0x80 ADD SWAP1 JUMP JUMPDEST PUSH1 0x40 MLOAD DUP1 SWAP2 SUB SWAP1 LOG1 POP POP JUMP JUMPDEST PUSH1 0xC SLOAD DUP2 GT ISZERO PUSH2 0xBCD JUMPI PUSH32 0xE15983936B4D90991838DB308A365EE0DA6B9BD5E38C649239C1E46C0EFC4980 DUP3 PUSH1 0x40 MLOAD PUSH2 0x1878 SWAP2 DUP2 MSTORE PUSH1 0x40 PUSH1 0x20 DUP3 ADD DUP2 SWAP1 MSTORE PUSH1 0x9 SWAP1 DUP3 ADD MSTORE PUSH9 0x4F76657273746F636B PUSH1 0xB8 SHL PUSH1 0x60 DUP3 ADD MSTORE PUSH1 0x80 ADD SWAP1 JUMP JUMPDEST PUSH1 0x0 DUP1 PUSH1 0x2 SLOAD GT PUSH2 0x1926 JUMPI PUSH1 0x40 MLOAD PUSH3 0x461BCD PUSH1 0xE5 SHL DUP2 MSTORE PUSH1 0x20 PUSH1 0x4 DUP3 ADD MSTORE PUSH1 0x10 PUSH1 0x24 DUP3 ADD MSTORE PUSH16 0x4E6F20524D5320617661696C61626C65 PUSH1 0x80 SHL PUSH1 0x44 DUP3 ADD MSTORE PUSH1 0x64 ADD PUSH2 0x457 JUMP JUMPDEST PUSH1 0x1 JUMPDEST PUSH1 0x2 SLOAD DUP2 GT PUSH2 0x151F JUMPI PUSH1 0x0 DUP2 DUP2 MSTORE PUSH1 0x7 PUSH1 0x20 MSTORE PUSH1 0x40 SWAP1 KECCAK256 SLOAD PUSH1 0x1 PUSH1 0x1 PUSH1 0xA0 SHL SUB DUP1 DUP6 AND SWAP2 AND SUB PUSH2 0x196B JUMPI PUSH1 0x0 SWAP1 DUP2 MSTORE PUSH1 0x7 PUSH1 0x20 MSTORE PUSH1 0x40 SWAP1 KECCAK256 PUSH1 0x1 ADD SLOAD SWAP3 SWAP2 POP POP JUMP JUMPDEST DUP1 PUSH2 0x1975 DUP2 PUSH2 0x1E44 JUMP JUMPDEST SWAP2 POP POP PUSH2 0x1929 JUMP JUMPDEST PUSH1 0x0 DUP1 PUSH1 0x3 SLOAD GT PUSH2 0x19D0 JUMPI PUSH1 0x40 MLOAD PUSH3 0x461BCD PUSH1 0xE5 SHL DUP2 MSTORE PUSH1 0x20 PUSH1 0x4 DUP3 ADD MSTORE PUSH1 0x1A PUSH1 0x24 DUP3 ADD MSTORE PUSH32 0x4E6F206D616E7566616374757265727320617661696C61626C65000000000000 PUSH1 0x44 DUP3 ADD MSTORE PUSH1 0x64 ADD PUSH2 0x457 JUMP JUMPDEST PUSH1 0x1 JUMPDEST PUSH1 0x3 SLOAD DUP2 GT PUSH2 0x151F JUMPI PUSH1 0x0 DUP2 DUP2 MSTORE PUSH1 0x8 PUSH1 0x20 MSTORE PUSH1 0x40 SWAP1 KECCAK256 SLOAD PUSH1 0x1 PUSH1 0x1 PUSH1 0xA0 SHL SUB DUP1 DUP6 AND SWAP2 AND SUB PUSH2 0x1A15 JUMPI PUSH1 0x0 SWAP1 DUP2 MSTORE PUSH1 0x8 PUSH1 0x20 MSTORE PUSH1 0x40 SWAP1 KECCAK256 PUSH1 0x1 ADD SLOAD SWAP3 SWAP2 POP POP JUMP JUMPDEST DUP1 PUSH2 0x1A1F DUP2 PUSH2 0x1E44 JUMP JUMPDEST SWAP2 POP POP PUSH2 0x19D3 JUMP JUMPDEST DUP3 DUP1 SLOAD DUP3 DUP3 SSTORE SWAP1 PUSH1 0x0 MSTORE PUSH1 0x20 PUSH1 0x0 KECCAK256 SWAP1 DUP2 ADD SWAP3 DUP3 ISZERO PUSH2 0x1A62 JUMPI SWAP2 PUSH1 0x20 MUL DUP3 ADD JUMPDEST DUP3 DUP2 GT ISZERO PUSH2 0x1A62 JUMPI DUP3 MLOAD DUP3 SSTORE SWAP2 PUSH1 0x20 ADD SWAP2 SWAP1 PUSH1 0x1 ADD SWAP1 PUSH2 0x1A47 JUMP JUMPDEST POP PUSH2 0x1A6E SWAP3 SWAP2 POP PUSH2 0x1A72 JUMP JUMPDEST POP SWAP1 JUMP JUMPDEST JUMPDEST DUP1 DUP3 GT ISZERO PUSH2 0x1A6E JUMPI PUSH1 0x0 DUP2 SSTORE PUSH1 0x1 ADD PUSH2 0x1A73 JUMP JUMPDEST PUSH4 0x4E487B71 PUSH1 0xE0 SHL PUSH1 0x0 MSTORE PUSH1 0x41 PUSH1 0x4 MSTORE PUSH1 0x24 PUSH1 0x0 REVERT JUMPDEST PUSH1 0x0 DUP3 PUSH1 0x1F DUP4 ADD SLT PUSH2 0x1AAE JUMPI PUSH1 0x0 DUP1 REVERT JUMPDEST DUP2 CALLDATALOAD PUSH8 0xFFFFFFFFFFFFFFFF DUP2 GT ISZERO PUSH2 0x1AC8 JUMPI PUSH2 0x1AC8 PUSH2 0x1A87 JUMP JUMPDEST PUSH1 0x40 MLOAD PUSH1 0x1F DUP3 ADD PUSH1 0x1F NOT SWAP1 DUP2 AND PUSH1 0x3F ADD AND DUP2 ADD PUSH8 0xFFFFFFFFFFFFFFFF DUP2 GT DUP3 DUP3 LT OR ISZERO PUSH2 0x1AF7 JUMPI PUSH2 0x1AF7 PUSH2 0x1A87 JUMP JUMPDEST PUSH1 0x40 MSTORE DUP2 DUP2 MSTORE DUP4 DUP3 ADD PUSH1 0x20 ADD DUP6 LT ISZERO PUSH2 0x1B0F JUMPI PUSH1 0x0 DUP1 REVERT JUMPDEST DUP2 PUSH1 0x20 DUP6 ADD PUSH1 0x20 DUP4 ADD CALLDATACOPY PUSH1 0x0 SWAP2 DUP2 ADD PUSH1 0x20 ADD SWAP2 SWAP1 SWAP2 MSTORE SWAP4 SWAP3 POP POP POP JUMP JUMPDEST PUSH1 0x0 DUP1 PUSH1 0x0 PUSH1 0x60 DUP5 DUP7 SUB SLT ISZERO PUSH2 0x1B41 JUMPI PUSH1 0x0 DUP1 REVERT JUMPDEST DUP4 CALLDATALOAD PUSH1 0x1 PUSH1 0x1 PUSH1 0xA0 SHL SUB DUP2 AND DUP2 EQ PUSH2 0x1B58 JUMPI PUSH1 0x0 DUP1 REVERT JUMPDEST SWAP3 POP PUSH1 0x20 DUP5 ADD CALLDATALOAD PUSH8 0xFFFFFFFFFFFFFFFF DUP2 GT ISZERO PUSH2 0x1B74 JUMPI PUSH1 0x0 DUP1 REVERT JUMPDEST PUSH2 0x1B80 DUP7 DUP3 DUP8 ADD PUSH2 0x1A9D JUMP JUMPDEST SWAP3 POP POP PUSH1 0x40 DUP5 ADD CALLDATALOAD PUSH8 0xFFFFFFFFFFFFFFFF DUP2 GT ISZERO PUSH2 0x1B9D JUMPI PUSH1 0x0 DUP1 REVERT JUMPDEST PUSH2 0x1BA9 DUP7 DUP3 DUP8 ADD PUSH2 0x1A9D JUMP JUMPDEST SWAP2 POP POP SWAP3 POP SWAP3 POP SWAP3 JUMP JUMPDEST PUSH1 0x0 PUSH1 0x20 DUP3 DUP5 SUB SLT ISZERO PUSH2 0x1BC5 JUMPI PUSH1 0x0 DUP1 REVERT JUMPDEST POP CALLDATALOAD SWAP2 SWAP1 POP JUMP JUMPDEST PUSH1 0x0 DUP2 MLOAD DUP1 DUP5 MSTORE PUSH1 0x0 JUMPDEST DUP2 DUP2 LT ISZERO PUSH2 0x1BF2 JUMPI PUSH1 0x20 DUP2 DUP6 ADD DUP2 ADD MLOAD DUP7 DUP4 ADD DUP3 ADD MSTORE ADD PUSH2 0x1BD6 JUMP JUMPDEST POP PUSH1 0x0 PUSH1 0x20 DUP3 DUP7 ADD ADD MSTORE PUSH1 0x20 PUSH1 0x1F NOT PUSH1 0x1F DUP4 ADD AND DUP6 ADD ADD SWAP2 POP POP SWAP3 SWAP2 POP POP JUMP JUMPDEST PUSH1 0x1 DUP1 PUSH1 0xA0 SHL SUB DUP6 AND DUP2 MSTORE DUP4 PUSH1 0x20 DUP3 ADD MSTORE PUSH1 0x80 PUSH1 0x40 DUP3 ADD MSTORE PUSH1 0x0 PUSH2 0x1C39 PUSH1 0x80 DUP4 ADD DUP6 PUSH2 0x1BCC JUMP JUMPDEST DUP3 DUP2 SUB PUSH1 0x60 DUP5 ADD MSTORE PUSH2 0x1C4B DUP2 DUP6 PUSH2 0x1BCC JUMP JUMPDEST SWAP8 SWAP7 POP POP POP POP POP POP POP JUMP JUMPDEST PUSH1 0x0 DUP1 PUSH1 0x0 DUP1 PUSH1 0x80 DUP6 DUP8 SUB SLT ISZERO PUSH2 0x1C6C JUMPI PUSH1 0x0 DUP1 REVERT JUMPDEST DUP5 CALLDATALOAD PUSH8 0xFFFFFFFFFFFFFFFF DUP2 GT ISZERO PUSH2 0x1C83 JUMPI PUSH1 0x0 DUP1 REVERT JUMPDEST PUSH2 0x1C8F DUP8 DUP3 DUP9 ADD PUSH2 0x1A9D JUMP JUMPDEST SWAP5 POP POP PUSH1 0x20 DUP6 ADD CALLDATALOAD PUSH8 0xFFFFFFFFFFFFFFFF DUP2 GT ISZERO PUSH2 0x1CAC JUMPI PUSH1 0x0 DUP1 REVERT JUMPDEST PUSH2 0x1CB8 DUP8 DUP3 DUP9 ADD PUSH2 0x1A9D JUMP JUMPDEST SWAP5 SWAP8 SWAP5 SWAP7 POP POP POP POP PUSH1 0x40 DUP4 ADD CALLDATALOAD SWAP3 PUSH1 0x60 ADD CALLDATALOAD SWAP2 SWAP1 POP JUMP JUMPDEST PUSH1 0x0 DUP1 PUSH1 0x40 DUP4 DUP6 SUB SLT ISZERO PUSH2 0x1CE2 JUMPI PUSH1 0x0 DUP1 REVERT JUMPDEST POP POP DUP1 CALLDATALOAD SWAP3 PUSH1 0x20 SWAP1 SWAP2 ADD CALLDATALOAD SWAP2 POP JUMP JUMPDEST PUSH1 0x20 DUP1 DUP3 MSTORE DUP3 MLOAD DUP3 DUP3 ADD DUP2 SWAP1 MSTORE PUSH1 0x0 SWAP2 DUP5 ADD SWAP1 PUSH1 0x40 DUP5 ADD SWAP1 DUP4 JUMPDEST DUP2 DUP2 LT ISZERO PUSH2 0x1D29 JUMPI DUP4 MLOAD DUP4 MSTORE PUSH1 0x20 SWAP4 DUP5 ADD SWAP4 SWAP1 SWAP3 ADD SWAP2 PUSH1 0x1 ADD PUSH2 0x1D0B JUMP JUMPDEST POP SWAP1 SWAP6 SWAP5 POP POP POP POP POP JUMP JUMPDEST PUSH1 0x20 DUP2 MSTORE PUSH1 0x0 PUSH2 0x1D47 PUSH1 0x20 DUP4 ADD DUP5 PUSH2 0x1BCC JUMP JUMPDEST SWAP4 SWAP3 POP POP POP JUMP JUMPDEST PUSH4 0x4E487B71 PUSH1 0xE0 SHL PUSH1 0x0 MSTORE PUSH1 0x21 PUSH1 0x4 MSTORE PUSH1 0x24 PUSH1 0x0 REVERT JUMPDEST DUP11 DUP2 MSTORE PUSH2 0x140 PUSH1 0x20 DUP3 ADD MSTORE PUSH1 0x0 PUSH2 0x1D7F PUSH2 0x140 DUP4 ADD DUP13 PUSH2 0x1BCC JUMP JUMPDEST DUP3 DUP2 SUB PUSH1 0x40 DUP5 ADD MSTORE PUSH2 0x1D91 DUP2 DUP13 PUSH2 0x1BCC JUMP JUMPDEST SWAP2 POP POP DUP9 PUSH1 0x60 DUP4 ADD MSTORE DUP8 PUSH1 0x80 DUP4 ADD MSTORE DUP7 PUSH1 0xA0 DUP4 ADD MSTORE DUP6 PUSH1 0xC0 DUP4 ADD MSTORE DUP5 PUSH1 0xE0 DUP4 ADD MSTORE DUP4 PUSH2 0x100 DUP4 ADD MSTORE PUSH1 0x6 DUP4 LT PUSH2 0x1DD7 JUMPI PUSH4 0x4E487B71 PUSH1 0xE0 SHL PUSH1 0x0 MSTORE PUSH1 0x21 PUSH1 0x4 MSTORE PUSH1 0x24 PUSH1 0x0 REVERT JUMPDEST DUP3 PUSH2 0x120 DUP4 ADD MSTORE SWAP12 SWAP11 POP POP POP POP POP POP POP POP POP POP POP JUMP JUMPDEST PUSH1 0x20 DUP1 DUP3 MSTORE PUSH1 0x21 SWAP1 DUP3 ADD MSTORE PUSH32 0x4F6E6C79206F776E65722063616E2063616C6C20746869732066756E6374696F PUSH1 0x40 DUP3 ADD MSTORE PUSH1 0x37 PUSH1 0xF9 SHL PUSH1 0x60 DUP3 ADD MSTORE PUSH1 0x80 ADD SWAP1 JUMP JUMPDEST PUSH4 0x4E487B71 PUSH1 0xE0 SHL PUSH1 0x0 MSTORE PUSH1 0x11 PUSH1 0x4 MSTORE PUSH1 0x24 PUSH1 0x0 REVERT JUMPDEST PUSH1 0x0 PUSH1 0x1 DUP3 ADD PUSH2 0x1E56 JUMPI PUSH2 0x1E56 PUSH2 0x1E2E JUMP JUMPDEST POP PUSH1 0x1 ADD SWAP1 JUMP JUMPDEST PUSH1 0x1 DUP2 DUP2 SHR SWAP1 DUP3 AND DUP1 PUSH2 0x1E71 JUMPI PUSH1 0x7F DUP3 AND SWAP2 POP JUMPDEST PUSH1 0x20 DUP3 LT DUP2 SUB PUSH2 0x14B0 JUMPI PUSH4 0x4E487B71 PUSH1 0xE0 SHL PUSH1 0x0 MSTORE PUSH1 0x22 PUSH1 0x4 MSTORE PUSH1 0x24 PUSH1 0x0 REVERT JUMPDEST PUSH1 0x1F DUP3 GT ISZERO PUSH2 0x1EDB JUMPI DUP1 PUSH1 0x0 MSTORE PUSH1 0x20 PUSH1 0x0 KECCAK256 PUSH1 0x1F DUP5 ADD PUSH1 0x5 SHR DUP2 ADD PUSH1 0x20 DUP6 LT ISZERO PUSH2 0x1EB8 JUMPI POP DUP1 JUMPDEST PUSH1 0x1F DUP5 ADD PUSH1 0x5 SHR DUP3 ADD SWAP2 POP JUMPDEST DUP2 DUP2 LT ISZERO PUSH2 0x1ED8 JUMPI PUSH1 0x0 DUP2 SSTORE PUSH1 0x1 ADD PUSH2 0x1EC4 JUMP JUMPDEST POP POP JUMPDEST POP POP POP JUMP JUMPDEST DUP2 MLOAD PUSH8 0xFFFFFFFFFFFFFFFF DUP2 GT ISZERO PUSH2 0x1EFA JUMPI PUSH2 0x1EFA PUSH2 0x1A87 JUMP JUMPDEST PUSH2 0x1F0E DUP2 PUSH2 0x1F08 DUP5 SLOAD PUSH2 0x1E5D JUMP JUMPDEST DUP5 PUSH2 0x1E91 JUMP JUMPDEST PUSH1 0x20 PUSH1 0x1F DUP3 GT PUSH1 0x1 DUP2 EQ PUSH2 0x1F42 JUMPI PUSH1 0x0 DUP4 ISZERO PUSH2 0x1F2A JUMPI POP DUP5 DUP3 ADD MLOAD JUMPDEST PUSH1 0x0 NOT PUSH1 0x3 DUP6 SWAP1 SHL SHR NOT AND PUSH1 0x1 DUP5 SWAP1 SHL OR DUP5 SSTORE PUSH2 0x1ED8 JUMP JUMPDEST PUSH1 0x0 DUP5 DUP2 MSTORE PUSH1 0x20 DUP2 KECCAK256 PUSH1 0x1F NOT DUP6 AND SWAP2 JUMPDEST DUP3 DUP2 LT ISZERO PUSH2 0x1F72 JUMPI DUP8 DUP6 ADD MLOAD DUP3 SSTORE PUSH1 0x20 SWAP5 DUP6 ADD SWAP5 PUSH1 0x1 SWAP1 SWAP3 ADD SWAP2 ADD PUSH2 0x1F52 JUMP JUMPDEST POP DUP5 DUP3 LT ISZERO PUSH2 0x1F90 JUMPI DUP7 DUP5 ADD MLOAD PUSH1 0x0 NOT PUSH1 0x3 DUP8 SWAP1 SHL PUSH1 0xF8 AND SHR NOT AND DUP2 SSTORE JUMPDEST POP POP POP POP PUSH1 0x1 SWAP1 DUP2 SHL ADD SWAP1 SSTORE POP JUMP JUMPDEST PUSH1 0x20 DUP1 DUP3 MSTORE PUSH1 0x13 SWAP1 DUP3 ADD MSTORE PUSH19 0x125B9D985B1A59081B59591A58DA5B99481251 PUSH1 0x6A SHL PUSH1 0x40 DUP3 ADD MSTORE PUSH1 0x60 ADD SWAP1 JUMP JUMPDEST PUSH1 0x20 DUP1 DUP3 MSTORE PUSH1 0x18 SWAP1 DUP3 ADD MSTORE PUSH32 0x496E76616C6964207374616765207472616E736974696F6E0000000000000000 PUSH1 0x40 DUP3 ADD MSTORE PUSH1 0x60 ADD SWAP1 JUMP JUMPDEST PUSH4 0x4E487B71 PUSH1 0xE0 SHL PUSH1 0x0 MSTORE PUSH1 0x32 PUSH1 0x4 MSTORE PUSH1 0x24 PUSH1 0x0 REVERT JUMPDEST DUP2 DUP2 SUB DUP2 DUP2 GT ISZERO PUSH2 0x202C JUMPI PUSH2 0x202C PUSH2 0x1E2E JUMP JUMPDEST SWAP3 SWAP2 POP POP JUMP JUMPDEST DUP1 DUP3 ADD DUP1 DUP3 GT ISZERO PUSH2 0x202C JUMPI PUSH2 0x202C PUSH2 0x1E2E JUMP INVALID LOG2 PUSH5 0x6970667358 0x22 SLT KECCAK256 DUP7 SWAP5 0xB8 0xC2 0xED 0xD3 0x2D 0xB4 RETURN 0xDA CALLDATACOPY DUP6 DUP14 0xE9 SDIV CALLDATALOAD 0xA8 0xFB 0xF8 0xD8 0x27 0xE 0x2E DUP14 STOP 0xB4 0xA8 0xAD 0x22 0xA7 0xCD 0xCC PUSH5 0x736F6C6343 STOP ADDMOD SHL STOP CALLER "},"methodIdentifiers":{"DIS(uint256)":"2b0187ac","Distribute(uint256)":"4def474a","MAN(uint256)":"cc403069","Manufacturing(uint256)":"a48d335a","MedicineStock(uint256)":"eb1a06b5","Owner()":"b4a99a4e","RET(uint256)":"59bf286f","RMS(uint256)":"eef5cb40","RMSsupply(uint256)":"86c18275","Retail(uint256)":"3d753a1c","addDistributor(address,string,string)":"2a4af440","addManufacturer(address,string,string)":"6a992c9f","addMedicine(string,string,uint256,uint256)":"2ba25bdc","addRMS(address,string,string)":"2b70b08d","addRetailer(address,string,string)":"857ddb04","checkExpiry(uint256)":"e4357cd7","disCtr()":"2bdb2e6b","getDashboardData()":"d9708d48","manCtr()":"438e9c4d","medicineCtr()":"a95f29d9","overstockThreshold()":"30f901d7","retCtr()":"7e43d94d","rmsCtr()":"dd286398","showStage(uint256)":"e101a2e0","sold(uint256)":"9c03facb","timeSpentInStages(uint256)":"874ae092","understockThreshold()":"f3c40a36","updateMedicineQuantity(uint256,uint256)":"5e9db90c"}}}}}